:100000000C9438060C947F060C947F060C948F2673
:100010000C947F060C947F060C947F060C947F064C
:100020000C947F060C947F060C94252F0C94F82FCB
:100030000C94A5290C947F060C947F060C947F06E3
:100040000C947F060C947F060C947F060C947F061C
:100050000C947F060C94372A0C947F060C947F0630
:100060000C947F060C947F060C947F060C947F06FC
:100070000C947F060C947F060C947F060C947F06EC
:100080000C947F060C947F060C947F060C947F06DC
:100090000C947F060C947F060C947F060C947F06CC
:1000A0000C947F060C947F060C947F0600050105D6
:1000B0000205030504050505000601060206030600
:1000C00004060506000701070207030704070507E2
:1000D00000080108020803080408050800090109CE
:1000E00002090309040905090000010002000300D8
:1000F00004000500000101010201030104010501E2
:1001000000020102020203020402050200030103CD
:1001100002030303040305030004010402040304AF
:1001200004040504808182838485868788898A8B7C
:100130008C8D8E8F9091929394A0A1A2A3A4A5A63A
:10014000A7A8A9AAABACADAEAFB0B1B2B3B4C0C1B1
:10015000C2C3C4C5C6C7C8C9CACBCCCDCECFD0D107
:10016000D2D3D40035001E001F0020002100220041
:10017000290014001A000800150017002B000400C5
:100180001600070009000A00E1001D001B00060020
:1001900019000500E300E200E000655D2800A8000A
:1001A0003500270026002500240023002A00130024
:1001B00012000C0018001C00340033000F000E0069
:1001C0000D000B00E500380037003600100011006C
:1001D000E700E600E400665D2C00000035001E002C
:1001E0001F00200021002200290014001A0009002D
:1001F00013000A002B00040015001600170007006A
:10020000E1001D001B00060019000500E300E200EC
:10021000E000655D2800A8003500270026002500C5
:10022000240023002A0033001C0018000F000D00DA
:10023000340012000C00080011000B00E50038002B
:100240003700360010000E00E700E600E400665DAF
:100250002C00000001003A003B003C003D003E0045
:1002600035001E001F0020002100220001001E0298
:100270001F0220022102220201002E002D002E0268
:100280002F02300201000100010001000100010005
:10029000440043004200410040003F004500270069
:1002A0002600250024002300310227022602250211
:1002B00024022302010031003302330030002F00FA
:1002C0000100010001000100010001000100010026
:1002D0000100010001000100010049004600650025
:1002E000000000000100E200E000E1000000390031
:1002F00001007A007B007C007D000000010001000D
:1003000001000100010001000100010001000100E5
:10031000010001002A006C5D695D5200685D4B00C0
:100320002A004C004F00510050004E000100000018
:100330006B5D00006A5D000001000100010001002A
:1003400001000100000000000000000000000000AB
:10035000005C0000635D645D015D00000000000062
:10036000015D00000000000000000000000000002F
:100370000000000001000100010001000100000078
:10038000000000000000000000000000000000006D
:10039000000000000000000000000000A900A8000C
:1003A000AA00000000000000AB00AE00AC0000009E
:1003B0000100010001000100010000004445425518
:1003C000473A2064697361626C65642E0A00444593
:1003D0004255473A20656E61626C65642E0A004F93
:1003E0006E6573686F743A206163746976653A204C
:1003F00025640A000A0025303258006B6579626F67
:100400006172645F7365745F6C65643A20000A0012
:1004100025303862003A200025303258000A722F09
:10042000632030313233343536370A005461726715
:10043000657420636F6E6E65637465640D0A0054A5
:10044000617267657420646973636F6E6E6563744F
:1004500065642C207468726F74746C696E672063B5
:100460006F6E6E656374696F6E20617474656D7014
:1004700074730D0A004661696C656420746F2065B1
:100480007865637574652025730A006F6C65645F19
:100490007363726F6C6C5F6C65667420636D64204F
:1004A0006661696C65640A006F6C65645F6F66669F
:1004B00020636D64206661696C65640A0000AE6F3C
:1004C0006C65645F6F6E20636D64206661696C6546
:1004D000640A0000AF6F6C65645F72656E6465727C
:1004E00039302064617461206661696C65640A005A
:1004F0006F6C65645F72656E6465722064617461BF
:10050000206661696C65640A006F6C65645F726582
:100510006E646572206F666673657420636F6D6DBF
:10052000616E64206661696C65640A006469737059
:100530006C61795F736574757032206661696C6592
:10054000640A0000DA0281FFD9F1DB20A4A62EAFF5
:10055000646973706C61795F666C69707065642042
:100560006661696C65640A0000A0C06F6C65645FB9
:10057000696E697420636D64206E6F726D616C20AA
:10058000726F746174696F6E206661696C65640A6C
:100590000000A1C86F6C65645F696E697420636D4B
:1005A00064207365742031206661696C65640A009B
:1005B00000AED580A81FD300408D14200007087F0F
:1005C0000807003E5B4F5B3E003E6B4F6B3E001CDE
:1005D0003E7C3E1C00183C7E3C18001C577D571C7E
:1005E000001C5E7F5E1C0000183C180000FFE7C383
:1005F000E7FF00001824180000FFE7DBE7FF0030EA
:10060000483A060E00262979292600407F0505076D
:1006100000407F05253F005A3CE73C5A007F3E1CC6
:100620001C0800081C1C3E7F0014227F2214005F5F
:100630005F005F5F0006097F017F00006689956AA1
:100640000060606060600094A2FFA2940008047ED5
:1006500004080010207E20100008082A1C0800084A
:100660001C2A0808001E10101010000C1E0C1E0C76
:100670000030383E383000060E3E0E060000000006
:1006800000000000005F00000000070007000014E9
:100690007F147F1400242A7F2A1200231308646227
:1006A00000364956205000000807030000001C22B5
:1006B0004100000041221C00002A1C7F1C2A000867
:1006C000083E08080000807030000008080808088C
:1006D000000000606000002010080402003E514944
:1006E000453E0000427F40000072494949460021D2
:1006F00041494D33001814127F10002745454539F4
:10070000003C4A4949310041211109070036494955
:10071000493600464949291E000000140000000027
:100720004034000000000814224100141414141472
:10073000000041221408000201590906003E415DF3
:10074000594E007C1211127C007F49494936003E07
:1007500041414122007F4141413E007F4949494199
:10076000007F09090901003E41415173007F0808DB
:10077000087F0000417F4100002040413F01007F91
:1007800008142241007F40404040007F021C027F4D
:10079000007F0408107F003E4141413E007F09096F
:1007A0000906003E4151215E007F091929460026B5
:1007B000494949320003017F0103003F4040403F67
:1007C000001F2040201F003F4038403F00631408B6
:1007D0001463000304780403006159494D43000089
:1007E0007F41414100020408102000004141417F47
:1007F00000040201020400404040404000000307A2
:100800000800002054547840007F284444380038C1
:100810004444442800384444287F00385454541831
:100820000000087E09020018A4A49C78007F080438
:1008300004780000447D4000002040403D00007FDF
:10084000102844000000417F4000007C04780478B8
:10085000007C0804047800384444443800FC182420
:1008600024180018242418FC007C080404080048FC
:10087000545454240004043F4424003C4040207C51
:10088000001C2040201C003C4030403C004428100C
:100890002844004C9090907C004464544C440000E8
:1008A00008364100000000770000000041360800D3
:1008B000000201020402003C2623263C0000000046
:1008C000000000404040F0F8F8FF38FFF8F83FF82B
:1008D000F8FF38FFF8F8F04040400000000000004A
:1008E00080C0C0C0800000C0C08000000080C0C0C8
:1008F00000C0C0000080C0C00000000000C0C0C038
:10090000C0C000C0C00000000000000000000000E7
:1009100000000000000000000000000000000000D7
:1009200000000000000000000000000000000000C7
:10093000000000000000000000000000C0F0F8FC13
:100940003E1E06010000007F4141417F007F414182
:10095000417F000080C0E07E5B4F5BFEC00000C0B6
:1009600000DCD7DEDEDED7DC00C0000000000000C7
:100970000000000000000000000000000000000077
:10098000000000494949FFFFFFFFE0DFBFBF00BF94
:10099000BFDFE0FFFFFFFF49494900000000001FE3
:1009A0003F6060E0BF1F007F7F071E381E077F7F0C
:1009B000007F7F0E1F3B716000000000007F7F0CF6
:1009C0000C0C007E7E007F7E0303007F7E03037E8F
:1009D0007E03037F7E000F3E703C063C703E0F009E
:1009E000327B49493F7E007F7E0303001E3F6969D9
:1009F0006F2600000000000000000000030F1F3FF2
:100A00003C7870600000007F4141417F007F4141A0
:100A1000417F00307B7F7830202030787F3B00039F
:100A2000000F7F0F0F0F7F0F00030000000000007A
:100A300000000000000000000000000000000000B6
:100A4000000000010101070F0F7F0F7F0F0F7E0FC6
:100A50000F7F0F7F0F0F0701010100000000000052
:100A60000000000001010000000000000000000084
:100A70000000000000000000000000000000000076
:100A80000000000000000000000000000000000066
:100A90000000000000000000000000000000000056
:100AA0000000000000000000000000000000000046
:100AB0000000000000000000000000000000000036
:100AC0000000000000000000000000000000000026
:100AD0000000000000000000000000000000000016
:100AE0000000000000000000000000000000000006
:100AF000000000000000000000000000000A0025C7
:100B000030325820006B6579626F6172645F726584
:100B1000706F72743A20005B735D004B6579626F91
:100B20006172642073746172742E0A005B575D00F9
:100B30005B535D005B525D005B445D005B435D00A9
:100B40000C0353006F0066006C00650000001A0380
:100B50004A006F0073006500660041006400610098
:100B60006D00630069006B000000040309040902C2
:100B70005B00030100A0FA09040000010301010069
:100B80000921110100012240000705810308000A24
:100B900009040100010300000009211101000122E4
:100BA00032000705820320000A0904020002030044
:100BB0000000092111010001222200070583032002
:100BC00000010705030320000112010002000000DC
:100BD0000832FC87020100010200010631FF09749E
:100BE000A1010975150026FF0095207508810209ED
:100BF00076150026FF00952075089102C0050109B1
:100C000080A101850319012AB700150126B70095B7
:100C10000175108100C0050C0901A10185041901AD
:100C20002AA002150126A002950175108100C005B9
:100C3000010906A101050719E029E715002501951D
:100C400008750181029501750881010507190029C0
:100C5000FF150026FF00950675088100050819019B
:100C60002905950575019102950175039101C00053
:100C700011241FBECFEFDAE0DEBFCDBF04B603FE06
:100C800027C080914C0590914D05A0914E05B091E3
:100C90004F058730904BA740B04BD1F410924C05D4
:100CA00010924D0510924E0510924F0514BE84B758
:100CB000877F84BF0FB6F894A89580916000886103
:100CC00080936000109260000FBEE0E0F8E30995A9
:100CD00012E0A0E0B1E0E8E3F5E602C005900D9275
:100CE000A030B107D9F725E0A0E0B2E001C01D9225
:100CF000AC34B207E1F70E943D1E0C9459320C94BB
:100D00000000FF93EF93E0910002F0910102309711
:100D100009F00995EF91FF910895FC0185918030CC
:100D200011F0EFDFFBCF0895FF27E0E230E247FF4D
:100D30000CC0419597FF09C0EDE2609570958095D4
:100D40009095611D711D811D911D27FF02C0219588
:100D500030E350E2AA27660F771F881F991FAA1F4A
:100D6000A41710F0A41B63955A95A9F7AA3008F0B0
:100D7000A95FA05DAF93F39561157105810591059C
:100D800041F7ED3211F4EF93F395F21718F43F9316
:100D9000F395FBCF8F91B5DFFA95E1F70895E991CF
:100DA000F9918591803021F0853219F0AADFF9CFD1
:100DB000089520E0E89455915532C1F3503311F471
:100DC000689455915A3348F4505390F3220F022EF1
:100DD000220F220F200D250FF4CF0EF421958991BB
:100DE0009991533619F3533729F1533559F1BC0111
:100DF00088279927E8945C3621F489919991689421
:100E00005591543639F446EF7EF077FF0DC08FEFE1
:100E10009FEF0AC055374AE039F0583540E121F0DC
:100E2000523642E009F00895FF93EF937DDFEF9192
:100E3000FF91B7CFFF93EF93FC0181918030B9F31D
:100E400060DFFBCFFF93EF9368DFF1CFDF93CF93AA
:100E5000CDB7DEB72596A3DFCF91DF9108950E942D
:100E6000661B882329F060E084E291E00C94FE2068
:100E70000C947A22CF93FC01DB01ED368DE5F80767
:100E800088F4E3368DE5F80778F4EC37F10509F4DA
:100E9000BFC0A8F4EA37F10509F4E6C0EB37F10565
:100EA00009F4D1C0C1E01DC0E456FD451296CC91B5
:100EB000E930F10598F4E55AFD4C0C94F231ED3728
:100EC000F10581F71296CC9181E0CC2309F4B5C0ED
:100ED0000E94B4180E942D0B89E1A4C080E0C111CA
:100EE00006C08C2FCF910895CC23D9F381E00E94C6
:100EF000A508C0E0F6CF82E0CC2351F00E94770F26
:100F000044E063E082E00E943D09F3CF83E0F4CF48
:100F10000E94A80F44E063E082E00E943D09E1CF17
:100F200084E0CC2319F00E94770FE3CF0E94A80F32
:100F3000D8CF809117038170CC23A1F0882349F08A
:100F400084E00E94B4180E942D0B80E50E94A20A42
:100F5000C8CF81E00E94B4180E942D0B80E50E944A
:100F6000A20AA0CF882349F084E00E94B4180E940E
:100F7000340B80E50E94E60A95CF81E0F6CF8091A0
:100F800017038170CC2381F0882339F084E00E941C
:100F9000B4180E942D0B8FE4D9CF81E00E94B418C1
:100FA0000E942D0B8FE4DBCF882339F084E00E9470
:100FB000B4180E94340B8FE4DDCF81E0F8CF80912C
:100FC00017038170CC2321F08111C3CF8AE4BECFF7
:100FD0008111D3CF8AE4CECF809117038170CC23C7
:100FE00021F08111DACF8DE4B1CF8111E6CF8DE40C
:100FF000C1CF81E0CC2331F00E94B4180E942D0BA8
:101000008AE2A4CF0E94B4180E94340B8AE2B2CFC5
:101010001296CC9181E0CC2341F00E94B4180E943A
:101020002D0B86E00E94A20A64CF0E94B4180E9491
:10103000340B86E00E94E60A54CF0E94B4180E9446
:10104000340B89E1F7CF1296CC9181E0CC2331F0BB
:101050000E94B4180E942D0B8BE1E4CF0E94B418BB
:101060000E94340B8BE1E6CF1296CC9181E0CC2329
:1010700031F00E94B4180E942D0B8DE1D3CF0E9455
:10108000B4180E94340B8DE1D5CF811108C089EAD4
:10109000611101C08AEA0E94250B81E00895813028
:1010A000E1F78AE7F8CF81E008950C943A070895B4
:1010B0000C9457081F93CF93DF9300D000D00F926A
:1010C000CDB7DEB749835A836B8330910C02898197
:1010D0009A8131111DC06623B9F02223A9F00E9424
:1010E000DE10182F682F89819A810E9487106981EC
:1010F0007A81812F0F900F900F900F900F90DF91BA
:10110000CF911F910C9404180E94B510182FEFCFA7
:101110000E94DE1069817A81EDCFFC01262F40818B
:1011200051816281738184810C945A0881E0089511
:10113000CF93DF93D82FC92F60E00E948D086D2FC9
:101140007C2FDF91CF910C9458080F931F93CF936E
:10115000DF9300D000D0CDB7DEB741E050E060E0D3
:1011600070E08A019B0104C0000F111F221F331F72
:101170008A95D2F709831A832B833C8389810E9445
:10118000481569817A818B819C810F900F900F9017
:101190000F90DF91CF911F910F910C94C30E8F92FE
:1011A0009F92AF92BF92CF92DF92EF92FF920F93F6
:1011B0001F93CF93DF9300D000D0CDB7DEB76B0184
:1011C0007C0181E090E0A0E0B0E04C015D0104C052
:1011D000880C991CAA1CBB1C4A95D2F7B501A40126
:1011E0004C015D0104C0880C991CAA1CBB1C2A95EB
:1011F000D2F7482959296A297B2904C0880F991FE9
:10120000AA1FBB1F0A95D2F78A019B010C211D2141
:101210002E213F210417150726073707F9F49C01F3
:10122000AD012C293D294E295F2929833A834B831F
:101230005C8369817A818B819C810F900F900F90E4
:101240000F90DF91CF911F910F91FF90EF90DF9062
:10125000CF90BF90AF909F908F900895809590957C
:10126000A095B0954C015D018C209D20AE20BF2043
:1012700089829A82AB82BC82DCCF0F93CF93DF93BB
:1012800000D000D0CDB7DEB7262F042F4091370213
:10129000509138026091390270913A0249835A8321
:1012A0006B837C83482F69817A818B819C810E942A
:1012B000CF080F900F900F900F90DF91CF910F916B
:1012C0000C94410F0E94F8180E94FD090C943119EA
:1012D0000C94341908950E94600E0E946A092FEF41
:1012E00084E39CE0215080409040E1F700C0000082
:1012F0000C945B2A0F931F93CF93DF938C0161E0D3
:101300000E948D08EC01B8010E9455088823C9F19C
:10131000B801CE010E948023882399F1B801CE0143
:101320000E94D523882369F1B801CE010E94AD2423
:10133000882339F1F8018281882381F0CB35FDE5DE
:10134000DF07D1F190F4C130ECE5DE0701F1CF3DCC
:10135000FCE5DF0771F1C115DC4589F0C801DF91BB
:10136000CF911F910F910C945308CC35EDE5DE071A
:1013700031F1CD35DD4591F70E947414EFCF0E9415
:101380006B0980E0DF91CF911F910F9108959091AB
:101390009C02892F8E7F90FF816080939C0280FF4A
:1013A00005C08EEC93E00E948D06EBCF8CEB93E0B2
:1013B000FACF0E94DF15E5CF0E947D14CFCF0E94A7
:1013C0008014CCCF829594E0899F900111242C7CCD
:1013D000869586958373282B30E0C901880F991F65
:1013E0008A7A359527952575822B089508950C9452
:1013F000F60981E008950C94F9090895CF93C82F58
:101400000E94F7098C2FCF910C94FB09CF93DF93A7
:10141000EC018881598121E030E0082E01C0220FC3
:101420000A94EAF7A52FB0E0AE5FBD4F4C919A81C8
:101430009923D9F090910E029923D1F090E066E0C3
:10144000569F800D911D1124880F991FFC01E355B3
:10145000FF4FE491E983FC01E455FF4FE491E883F9
:10146000422B4C93DF91CF910895942F9223E4CF98
:1014700020954223F6CFEF92FF920F931F93CF93C5
:10148000DF93CDB7DEB72B970FB6F894DEBF0FBE54
:10149000CDBF042F4F83152F588769877A878B8795
:1014A000EA84FB8461110E94A514EF2819F010232F
:1014B0001F3F79F51E8285E0FE013796DE01119609
:1014C00001900D928A95E1F789819A812C813D8165
:1014D000232BA9F449815A816B817C818D819E8166
:1014E0000E946A132B960FB6F894DEBF0FBECDBFD5
:1014F000DF91CF911F910F91FF90EF900895892375
:101500008F3F41F3CE0101960E9496088111E2CFF0
:10151000E9CFCE0107960E94060ACCCFFC0180815C
:1015200091810E94201192959F70963051F4863FD0
:1015300041F080910E0291E0892780930E029093F2
:101540000D020895CF93C82F8823F1F18CEF8C0FF3
:10155000813AA0F46C2F80910001909101010E94CA
:10156000A928882329F08C2F0E940B140E94C814EC
:101570008C2F0E940414CF910C94C81480E28C0F1D
:10158000883048F4C77081E001C0880FCA95EAF737
:101590000E948614F0CF8BE58C0F833038F42C2F0B
:1015A0002452330BC901CF910C946B28C85AC73110
:1015B00058F4EC2FF0E0EE0FFF1FE65BFE4F80814A
:1015C0009181CF910C948128CF910895882329F19E
:1015D0009CEF980F913A20F40E940B140C94C814BD
:1015E00090E2980F983050F4877091E001C0990F05
:1015F0008A95EAF7892F0E948C14F0CF9BE5980F0B
:10160000933020F490E080E00C946B28885A873166
:1016100020F490E080E00C94812808951F93CF93EC
:10162000DF93182FEB010E94A20A209731F4812F3B
:10163000DF91CF911F910C94E60A8FE99FE001970B
:10164000F1F700C000002197F0CF6AE070E0893325
:1016500011F460E570E00C940E0B882321F00E94D9
:1016600086140C94C8140895882321F00E948C14C9
:101670000C94C81408956F927F928F929F92AF92AC
:10168000BF92CF92DF92EF92FF920F931F93CF936F
:10169000DF9300D000D000D0CDB7DEB76C016D83F2
:1016A0007E83FC011281058102950F700E9448140F
:1016B000E82E8823B9F0112309F18E81807F8034D0
:1016C00049F09D81905E9830C8F0803619F4FD8114
:1016D000F63FA1F082E00E9419150E94481491E0A3
:1016E000E82EE9268E8182958F70A82EB12C8C3041
:1016F000B8F5F501EC59FD4C0C94F231E12CF2CF28
:101700000E810F708E81807F11F00295007F112372
:10171000B1F0002361F08D81805E883018F06D801B
:10172000611009C0802F0E9486140E94C8148D8108
:101730000E94A20A15C0802F0E949714F6CF8D81B7
:101740000E94E60A002361F08D81805E883018F0E7
:101750007D80711043C0802F0E948C140E94C81499
:10176000F8E0AF1AB10824E0A216B10420F40E94F8
:101770000F280E94FE09112349F08E81807F803658
:1017800019F49D81963F11F00E943B14EE2009F45C
:1017900031C20E941E1480FD2DC2F60112820E94E9
:1017A00018140E94770FC6010E94260E0E9418147A
:1017B00026960FB6F894DEBF0FBECDBFDF91CF9156
:1017C0001F910F91FF90EF90DF90CF90BF90AF905F
:1017D0009F908F907F906F900C94A80F802F0E9405
:1017E0009D14BCCF2E812F70F22E8E81807F80328F
:1017F00019F0F29480EFF8226D80662071F0262DAA
:10180000213049F1112391F1002351F1F601858135
:1018100080FF8DCF8F70858323C0112381F001114C
:1018200006C00E94AB148F290E942D0B99CF013066
:10183000C1F70E94AB148F290E94B11491CF0111FE
:1018400006C00E94BE148F2D0E94340B89CF013038
:1018500009F486CFF6CF112329F0063008F080CFA7
:101860008F2DE2CF053008F07BCFEDCF002359F369
:10187000FD81F93369F42FEF87EE93E0215080402A
:101880009040E1F700C000008D810E94E60A68CF19
:10189000EFE3FCE93197F1F7F5CF8E8186958695D8
:1018A000837069F0813009F05BCF8D819E819370E8
:1018B000111102C090E080E00E94812851CF8D81FB
:1018C0009E819370111102C090E080E00E946B280D
:1018D00047CF8E81837009F058C0111141CF2D81FF
:1018E000229526952770220F220F4D814F7050E0D0
:1018F00070E060E0022E04C0440F551F661F771F82
:101900000A94D2F76D8080E090E0DC0164FE0FC0A5
:101910008FE090E0A0E0B0E004C0880F991FAA1FFC
:10192000BB1F2A95D2F780959095A095B0952E81F2
:101930002695269523703C014D01642A752A862A36
:10194000972A69827A828B829C82223081F02330AE
:10195000A9F0213029F0C401B3010E94ED0E00CF9F
:1019600069817A818B819C810E94C50EF9CE698143
:101970007A818B819C810E94150FF2CE69817A81D8
:101980008B819C810E94C30EEBCE112309F444C0CD
:101990007E8070FEE5CE2D81229526952770220F40
:1019A000220F4D814F7050E070E060E0022E04C0C5
:1019B000440F551F661F771F0A94D2F79D8080E061
:1019C00090E0DC0194FE0FC08FE090E0A0E0B0E07A
:1019D00004C0880F991FAA1FBB1F2A95D2F78095B4
:1019E0009095A095B0952E812695269523703C0163
:1019F0004D01642A752A862A972A69827A828B8207
:101A00009C822230A1F02330C9F0213049F0C4017A
:101A1000B3010E943610A4CE8E8081FEA1CEBBCF32
:101A200069817A818B819C810E940E1099CE698197
:101A30007A818B819C810E945E1092CE69817A812D
:101A40008B819C810E94410F8BCE0E810F701123E0
:101A500029F0802F0E94770F8D81E6CE8D810E9424
:101A6000340B802F0E94A80F7BCE2D81223F99F14D
:101A700060F4203FD9F0213F39F1112309F444C02B
:101A8000011155CE8E818F7123C08D81833F41F12D
:101A9000843F99F7112371F10E810F71802F0E94FD
:101AA000770F63E0802F0E94FE145ACE112341F07D
:101AB000053008F055CE8E818F710E94DD0F50CE1B
:101AC000063008F04DCEF7CF8E818F71112351F281
:101AD0000E94770F45CE8E818F711123C9F3C2CF3B
:101AE000112329F08E818F710E94520F39CE0E94EE
:101AF0004D0F36CE81E00E941915023008F430CE29
:101B000082E00E9419152CCE002381F09D8199332B
:101B100041F4EFEFF7EE23E0E150F0402040E1F731
:101B2000B1CE8FE39CE90197F1F7ACCE8E818F7136
:101B300099CFED81E05FE73090F5F0E0E059FD4CA2
:101B40000C94F231112309F40BCE80910E0291E036
:101B5000892780930E0204CE10930E0201CE81E0FD
:101B60008127F7CF1111FCCD81E0F3CF1111F8CD12
:101B700010920E02F5CD112319F00E942214F0CD1F
:101B80000E942E14EDCD112339F080910D0288238F
:101B9000E1F210920D02E4CD0530B8F2E1CD809172
:101BA0000D020023D9F0882341F080910E0291E0CC
:101BB000892780930E0210920D021111B8CDEFE328
:101BC000FCE93197F1F700C000008D810E94E60A20
:101BD00086E0F60111928A95E9F7C2CD882309F4CF
:101BE000BFCD1111BDCD80910E0291E08927809368
:101BF0000E02CFCF26960FB6F894DEBF0FBECDBF34
:101C0000DF91CF911F910F91FF90EF90DF90CF90D8
:101C1000BF90AF909F908F907F906F9008950F939B
:101C20001F93CF93DF93EC01688179818A810E94B1
:101C30002C118C010E9486100E94C20EB801CE01A8
:101C4000DF91CF911F910F910C943B0BCF93DF93BA
:101C5000EC01988189812B813C81232B19F0892308
:101C60008F3F59F4DF91CF910895CE010E940F0E5E
:101C7000CE01DF91CF910C949808CE010E947A0991
:101C80008111F3CF0E944814882361F38A8188234D
:101C900049F382E0DF91CF910C94191590E080E038
:101CA0000E946B2890E080E00E9481280E94A51489
:101CB0000E94A8140C94C8140E9412140C944E0E86
:101CC0000E9494140C945C0E282F892F82958F709B
:101CD000903C80F48A30B0F4843020F4823090F468
:101CE00080E008958630E1F781E0283E88F0213FCA
:101CF000B9F70EC08C3011F08F3091F793FB882725
:101D000080F9089581E0203F39F018F4283E40F72B
:101D10000895243F29F7FCCF0895FC01808191812B
:101D20000E9420110C94640ECF93DF9300D000D05A
:101D30000F92CDB7DEB70F900F900F900F900F90CE
:101D4000DF91CF910895CF93DF9300D000D000D0E2
:101D5000CDB7DEB726960FB6F894DEBF0FBECDBF67
:101D6000DF91CF91089508950C94B30E0E94B40EA4
:101D700060933B0270933C0280933D0290933E023D
:101D80000C944E0E08950C94B60ECF93DF9300D0B2
:101D900000D0CDB7DEB769837A838B839C83809133
:101DA0003B0290913C02A0913D02B0913E022981FC
:101DB0003A814B815C81282B392B4A2B5B2B298361
:101DC0003A834B835C83CA01B9010F900F900F9047
:101DD0000F90DF91CF910C94B60ECF93DF9300D08C
:101DE00000D0CDB7DEB769837A838B839C838091E3
:101DF0003B0290913C02A0913D02B0913E022981AC
:101E00003A814B815C81282339234A235B23298330
:101E10003A834B835C83CA01B9010F900F900F90F6
:101E20000F90DF91CF910C94B60ECF93DF9300D03B
:101E300000D0CDB7DEB769837A838B839C83809192
:101E40003B0290913C02A0913D02B0913E0229815B
:101E50003A814B815C81282739274A275B272983D0
:101E60003A834B835C83CA01B9010F900F900F90A6
:101E70000F90DF91CF910C94B60E0C94B30E0C948E
:101E80003D0F0E943F0F609337027093380280939A
:101E9000390290933A020C944E0E60E070E0CB0150
:101EA0000C94410F0F931F93CF93DF9300D000D07A
:101EB000CDB7DEB741E050E060E070E08A019B0101
:101EC00004C0000F111F221F331F8A95D2F7098308
:101ED0001A832B833C83C901B8010F900F900F9098
:101EE0000F90DF91CF911F910F910C94410F0F93A1
:101EF0001F93CF93DF9300D000D0CDB7DEB741E082
:101F000050E060E070E004C0440F551F661F771F6B
:101F10008A95D2F78091370290913802A0913902C8
:101F2000B0913A028A019B01082B192B2A2B3B2BDB
:101F300009831A832B833C83C901B8010F900F904A
:101F40000F900F90DF91CF911F910F910C94410F43
:101F50000F931F93CF93DF9300D000D0CDB7DEB7A0
:101F600041E050E060E070E004C0440F551F661F80
:101F7000771F8A95D2F7409550956095709580911E
:101F8000370290913802A0913902B0913A028A0149
:101F90009B01082319232A233B2309831A832B83BC
:101FA0003C83C901B8010F900F900F900F90DF9103
:101FB000CF911F910F910C94410F0F931F93CF93CB
:101FC000DF9300D000D0CDB7DEB741E050E060E055
:101FD00070E004C0440F551F661F771F8A95D2F723
:101FE0008091370290913802A0913902B0913A0263
:101FF0008A019B01082719272A273B2709831A836F
:102000002B833C83C901B8010F900F900F900F9064
:10201000DF91CF911F910F910C94410FCF93DF93DC
:1020200000D000D0CDB7DEB769837A838B839C83E1
:102030008091370290913802A0913902B0913A0212
:1020400029813A814B815C81282B392B4A2B5B2BD0
:1020500029833A834B835C83CA01B9010F900F90A7
:102060000F900F90DF91CF910C94410FCF93DF939E
:1020700000D000D0CDB7DEB769837A838B839C8391
:102080008091370290913802A0913902B0913A02C2
:1020900029813A814B815C81282339234A235B23A0
:1020A00029833A834B835C83CA01B9010F900F9057
:1020B0000F900F90DF91CF910C94410FCF93DF934E
:1020C00000D000D0CDB7DEB769837A838B839C8341
:1020D0008091370290913802A0913902B0913A0272
:1020E00029813A814B815C81282739274A275B2740
:1020F00029833A834B835C83CA01B9010F900F9007
:102100000F900F90DF91CF910C94410F0895E92F1C
:10211000EE0FE90FEE0FE80F8E2F877041E001C040
:10212000440F8A95EAF7E695E695E69585E0E89FFF
:10213000F0011124E15FFD4F30E020E070E05191AB
:10214000DF011197CB01022E02C0969587950A9464
:10215000E2F7817081958527842385278C932F5FF3
:102160003F4F2530310559F70895E92FEE0FE90F5C
:10217000EE0FE80F9E2F9770E695E695E69585E0C1
:10218000E89FF0011124E15FFD4F50E040E080E066
:10219000219130E0092E02C0369527950A94E2F786
:1021A00021703327042E01C0220F0A94EAF7822BF4
:1021B0004F5F5F4F4530510559F70895BF92CF9259
:1021C000DF92EF92FF920F931F93CF93DF938C01D7
:1021D000C0903702D0903802E0903902F0903A0275
:1021E00080913B0290913C02A0913D02B0913E0251
:1021F000C82AD92AEA2AFB2ACFE1D0E0BC2ED7018F
:10220000C6010C2E04C0B695A795979587950A949C
:10221000D2F780FD0EC0219788F7B12C8B2DDF916E
:10222000CF911F910F91FF90EF90DF90CF90BF90D3
:102230000895B8018C2F0E941818019761F3EECF12
:10224000CF93DF93D82FC92F0E94DE106D2F7C2FE4
:10225000DF91CF910C9418181F93CF93DF93162F13
:10226000D72F90910C02992339F0862F972FDF9169
:10227000CF911F910C942011882391F0862F972FD6
:102280000E94DE10C82F682F812F9D2F0E9487107B
:10229000612F7D2F8C2FDF91CF911F910C941818F7
:1022A000862F972F0E94B510C82FF2CF1F93CF9380
:1022B000DF93E0913F0216E0809140028E1304C04C
:1022C000DF91CF911F910895CE2FD0E01E9FF00196
:1022D0001124EF5BFD4F40815181628173818481C4
:1022E00095810E94A30E2196EC2FE770E5CF4091D7
:1022F0007102509172026091730270917402809128
:102300007502909176020C94A30E1F93CF93DF93E6
:1023100080917602807FA9F480917302882389F0EE
:1023200080913F02C09140027091710260917202EF
:10233000A0917402B0917502D62FD72316E0C8136E
:1023400004C0DF91CF911F91089590E0109711F094
:10235000DF3F19F401968770F2CF189F9001199F03
:10236000300D1124F901EF5BFD4F41816413F2CF71
:1023700040814713EFCF42814111ECCF438154811B
:102380004A1B5B0B4436510528F7809176028F700B
:10239000806180937602F901EA5BFD4F80818F7046
:1023A0008061808381E792E00E94260EDF91CF91C9
:1023B0001F910C945611AF92BF92CF92DF92EF9281
:1023C000FF920F931F93CF93DF93CDB7DEB72B9779
:1023D0000FB6F894DEBF0FBECDBF8C0185E0F801CB
:1023E000DE01179601900D928A95E1F7F801E280DF
:1023F000C380D48081E7A82E82E0B82E209171029C
:1024000090917202409174025091750241155105EC
:1024100029F0892F82238F3F09F049C1EE2009F46A
:1024200055C1C8010E948D0EF82E882309F44EC1B3
:1024300086E0F801A1E7B2E001900D928A95E1F7FC
:1024400081E792E00E948E0A0E94851100C180916E
:102450007602682F607F4436510508F0A8C0F80165
:1024600031816111E0C0FE2C391325C09081921397
:1024700022C0E11020C08F708061809376020E949C
:10248000771181E792E00E94260E80917602F80192
:1024900085838F2D2B960FB6F894DEBF0FBECDBF70
:1024A000DF91CF911F910F91FF90EF90DF90CF9030
:1024B000BF90AF9008952F81CD2829F0832F8223DC
:1024C0008F3F09F0ADC080E0F82FF170DF2EE09172
:1024D0003F024091400256E080FD1CC0EE20C9F250
:1024E00080917602816080937602F12CD2CF8E2F7C
:1024F00090E05E9FF0011124EF5BFD4F6181361388
:1025000006C06081621303C06281E612E7CF0196C4
:10251000E82FE770E413EBCF8F8198850E9420119C
:10252000292F22952F70903260F0225F2F70223079
:1025300078F49F7051F0F8019581907F31F4D12C9F
:102540000AC09F7011F08823D1F3805E8830B8F301
:10255000C8010E94260EFD2C9CCFC8010E948D0E42
:10256000882309F4B3C0EE2009F4B0C0809176024C
:10257000803270F020917102309172023A83298387
:102580001B82DD82CC828E83CE0101960E94260EB4
:1025900086E0F801A1E7B2E001900D928A95E1F79B
:1025A0000E9485110E947711FF24F39472CF61116C
:1025B00051C04F81588569857A858B850E94940E1C
:1025C00081E792E00E94260E86E0F50111928A953D
:1025D000E9F70E94771189CF86E0F801A1E7B2E020
:1025E00001900D928A95E1F754CFC8010E948D0E9B
:1025F0008111CECF80917602816080937602C801EE
:102600000E94260E46CF4F81588569857A858B8535
:102610000E94940E86E0F50111928A95E9F717C0A1
:1026200081E08E2551CF391398CFF8019081921314
:1026300094CFE11092CF8583C8010E94260E86E0D8
:10264000F801A1E7B2E001900D928A95E1F70E94AE
:1026500077111FCFF801318193137FCFF80190815B
:1026600092137BCFE11079CF8583C8010E94260E9B
:1026700086E0F50111928A95E9F70BCFF801818187
:102680009813B3CFF80180818213AFCF8091760287
:1026900080FDA2CF982F907F09F49ECF8583903F35
:1026A00059F2982F907F905F8F70892BC4CFF09054
:1026B0007302B601641B750BAB01F110C8CE443632
:1026C000510508F0A0CFFE2CE110D8CFC8010E9420
:1026D000260E6ACF1F93CF93DF93CDB7DEB72C972B
:1026E0000FB6F894DEBF0FBECDBF4F835887698702
:1026F0007A878B879C87CE0107960E94DB118823FF
:1027000069F08A859B85892B39F058854F81852F03
:1027100084238F3F09F071C016E05FC086E0FE01A0
:102720003796DE01119601900D928A95E1F78F811F
:1027300098852091400240913F026A857B85672BF6
:1027400059F389238F3F41F330E0C9010196877027
:1027500099274817190671F40E94600E10924002E2
:1027600010923F0286E0E1E7F2E0DF011D928A95D8
:10277000E9F7D2CF96E0929FD001939FB00D11243C
:10278000AF5BBD4FFE01319601900D929A95E1F736
:10279000809340020E945611BFCF819FC001112437
:1027A0008F5B9D4F0E94DB118823E9F0E0913F028F
:1027B0001E9FF0011124EF5BFD4F4081518162812A
:1027C0007381848195810E94A30E80913F0290E0E5
:1027D00001968770992780933F0280913F029091E4
:1027E00040028913DACF2C960FB6F894DEBF0FBEE5
:1027F000CDBFDF91CF911F91089569857A858B8533
:102800009C850E94A30E88CF682F80910001909133
:1028100001010C94E328682F80910001909101013F
:102820000C94E52880910001909101010C94E72817
:102830008091780285958595859508958091780297
:102840008770089582E08093770281E080930E0282
:1028500008951092770210920E02089580917702E7
:10286000823021F481E0809377020895833011F45F
:102870000C942914089580917702823021F483E02A
:10288000809377020895813011F40C9429140895EF
:1028900090917802977081E009F480E00895CF93D9
:1028A000C82F8091170382FB992790F99C17D1F0CC
:1028B000C0FB82F980931703809116039091170350
:1028C0000E945B1580919C0280FF0CC01F92CF93E9
:1028D0008FED93E09F938F930E9426070F900F90A8
:1028E0000F900F90CF9108958091170382FB882756
:1028F00080F991E089270C944F1481E00C944F14D7
:1029000080E00C944F148091840208959091840289
:10291000982B909384020895982F9095809184022B
:1029200089238093840208951092840208959091DF
:102930008302982B909383020895982F909580910D
:10294000830289238093830208951092830208955D
:1029500010928202089580917902089508950C944E
:10296000AE149091170392FD08C0909179029817C8
:1029700021F0809379020C94AF140895809179022C
:10298000882329F01092790280E00C94AF14089506
:10299000E0910001F0910101809184028083E09137
:1029A0000001F0910101808190918302892B808345
:1029B000E0910001F0910101808190918202892BC8
:1029C000808390917902992381F0E0910001F09148
:1029D00001018081892B8083809100019091010108
:1029E0000E94972881110E94BE148091000190914D
:1029F00001010C94222808950C94FB149091170364
:102A000092FD10C098E0899F90011124622B609381
:102A100078020E94770F809178028595859585953B
:102A20000C94FC140C94770F1092780280E00C94B4
:102A3000FC14909178028095892380937802282F46
:102A4000277039F4282F082E000C330B9217130629
:102A500021F49091170392FF07C085958595859580
:102A60000E94A80F0C941415089590E080E00E9435
:102A70001F329C0181E0293E3E4F09F080E008951D
:102A800082E090E00C94173283E090E00C941732CF
:102A9000682F83E090E00C942532CF9384E090E09F
:102AA0000E941732C82F82E290E00E941732982FBE
:102AB0008C2FCF910895CF93682FC92F84E090E099
:102AC0000E9425326C2F82E290E0CF910C94253247
:102AD000AB01BC018FE090E00C943732AB01BC013C
:102AE00083E190E00C94373260E070E0CB010C940D
:102AF0006E1560E070E0CB010E9468150C947415AF
:102B000069EE7EEF90E080E00E94433260E082E078
:102B100090E00E94253260E083E090E00E94253240
:102B200010923B0210923C0210923D0210923E0223
:102B300060E084E090E00E94253260E082E290E074
:102B40000E94253260E085E090E00E94253260E03E
:102B500086E090E00E9425326FEF87E090E00E94CF
:102B6000253240E050E0BA0188E090E00E94373220
:102B700060E08DE090E00E94253240E050E0BA0134
:102B800088E190E00E94373260E087E190E00E94A7
:102B9000253240E050E0BA018CE190E00E943732EB
:102BA00070E060E080E290E00E94433240E050E05C
:102BB000BA0188E190E00E9437320C9479150C94A8
:102BC0008015682F8EE090E00C9425320E94E12958
:102BD000609398027093990280939A0290939B025B
:102BE000609394027093950280939602909397025B
:102BF00008950E94E129609398027093990280934E
:102C00009A0290939B02609390027093910280933A
:102C1000920290939302089585B7806885BF85B727
:102C2000806885BF0895089508950C94131608953B
:102C30000C9417160E940C1682E09CE20E946C2AEB
:102C40000E9414160C9415160C944E1B08950895AA
:102C50000E9426160C9427160E94CC290E94EF2869
:102C60000E942C1A0E945D1F80E00E94BA1F0E94E1
:102C70004A1E0C941816CF93C82F80919C0282FF95
:102C80001EC080FF1CC08BEF93E00E948D068091D8
:102C90009C0280FF14C01F92CF9386EF93E09F9316
:102CA0008F930E94260780919C020F900F900F90A7
:102CB0000F9080FF04C084EF93E00E948D068C2F5C
:102CC000CF910C94FE099F92AF92BF92CF92DF9268
:102CD000EF92FF920F931F93CF93DF9300D000D01A
:102CE0000F92CDB7DEB70E94BB1AD82E81110E9479
:102CF000E61586E8A82E82E0B82E10E000E0902EBF
:102D0000802F0E943619F82EF501E1905F01E81638
:102D100009F459C080919C0281FD0E943C198E2DBE
:102D20008F25C12CEE24E394982F9E2109F446C0F0
:102D30000E942416882399F0C9829A82FE2081E09D
:102D400009F480E08B830E94D5298160782F9D83D0
:102D50008C8349815A816B81892F0E943B0AF8013B
:102D6000EA57FD4F80818E2580830E94AF1E182F69
:102D700081110E94F9150E94C322D11001C01111C6
:102D80000E9410210E940F2890918502891791F1CD
:102D90000E940F28809385020F900F900F900F9044
:102DA0000F90DF91CF911F910F91FF90EF90DF90E7
:102DB000CF90BF90AF909F900C943B16C394EE0CB5
:102DC000F6E0CF12B1CF0F5F1F4F0A30110509F0A7
:102DD00096CF8FEF89838A831B820E94D5298160D9
:102DE000782F9D838C8349815A816B81892F0E9422
:102DF0003B0ABBCF0F900F900F900F900F90DF9179
:102E0000CF911F910F91FF90EF90DF90CF90BF90E7
:102E1000AF909F900895CF93DF930E941C18EC0110
:102E2000811523E5920708F044C0811532E5930728
:102E300008F0C1C0883E9105E8F4803E910570F429
:102E4000883A910578F4853A910508F089C0813077
:102E5000910521F00497813A910548F4CE01DF9164
:102E6000CF910895885A9109479708F47CC0D0E023
:102E7000C0E0F4CFC11581E5D807B0F4C11520E555
:102E8000D20708F07BC0C11530E2D30728F4CF3F4A
:102E9000D10569F360F3E2CFCE01905481159041E2
:102EA00030F7DF70D06ADACFDC2FCC27C16FD06A61
:102EB000D5CF811537E5930768F5C11586E5D807A5
:102EC00008F09FC0C11525E5D207C8F4C11534E547
:102ED000D30708F083C09E012370332781E090E080
:102EE00002C0880F991F2A95E2F7C695C69520E281
:102EF000C29FE0011124C82BD92BDA68AFCF8C2FE9
:102F00000E94B418C82FD0E0DC2FCC27CC27DF716B
:102F1000D062A4CF81153AE5930788F4C11589E5FD
:102F2000D80708F060C0CE0198558F3F910511F089
:102F300008F09DCFDC2FCC27C06FD06A8FCF905682
:102F40008115904208F093CF8D2F8F710E94B41895
:102F500090E0982F882788279F718C2BEC01D8CF81
:102F6000A497D0647BCFC85AD0E0CC0FDD1FC858DF
:102F7000DE4F0990D881C02DD46470CF9E0164E0EB
:102F8000369527956A95E1F723708C2F869586955F
:102F9000837030E2839FC0011124922BC37021E023
:102FA00030E002C0220F331FCA95E2F7822B932B29
:102FB000EC01DC6853CF9C012370332781E090E063
:102FC00002C0880F991F2A95E2F7C695C69520E2A0
:102FD000C29FE0011124C82BD92BEBCFDC2FCC27CB
:102FE000C46FD06A3BCF8C2F8F700E94B41834E02E
:102FF000D695C7953A95E1F7CF709C2FEC01D06933
:103000002DCFDD27D0662ACF972F70E026E0929F44
:10301000600D711D1124FB019CE3899FE00DF11DE2
:103020001124EE0FFF1FEC59FE4F859194910895E6
:103030000E9404180C940B17803E910599F1C8F476
:103040008133910509F476C048F48932910509F479
:103050006AC08A32910509F474C0089589339105D4
:10306000D1F082389105B9F08533910509F454C047
:103070000895843E910599F138F4823E9105F9F066
:10308000833E910509F10895863E910599F1873EA9
:103090009105B9F10895209116032370A1F080EEF7
:1030A00090E008952091160320FD52C0309117033F
:1030B00030FF09C024FF4FC090E080E004C02091A1
:1030C000160322FDF7CF08952091160322FD46C076
:1030D0003091170330FDE3CF24FFF5CFEDCF2091E2
:1030E000170321FFF0CF8091160384FDE5CF87EE13
:1030F00090E008952091160323FFE5CF24FDDCCF57
:10310000F6CF2091160323FD2CC03091170331FF19
:10311000E3CF84EE90E008952091160325FFD3CFEE
:1031200089E290E008952091160325FFCCCF85E336
:1031300090E008952091160326FFC5CF8AE290E023
:1031400008952091160326FFBECF81E390E00895F5
:1031500089E390E0089583EE90E0089582EE90E098
:10316000089586EE90E008959091160392FF06C0B0
:10317000282F28712830F9F4877F846093FF06C0D8
:10318000282F28712831F1F4877E8461209117035C
:1031900020FF06C0382F38713830D9F4877F81601E
:1031A00021FF06C0282F28712831D1F4877E816144
:1031B00094FD877E0895282F24712430F9F68B7FA3
:1031C0008860DCCF282F2471243101F78B7E886141
:1031D000DDCF382F3171313019F78E7F8860E0CF25
:1031E000282F2171213121F78E7E8861E1CF08954A
:1031F000CF93DF9300D000D0CDB7DEB70E94351556
:10320000811102C00E94DF150E94401580939C022C
:103210000E944D1590931703809316030E94F71890
:103220000E944415282F30E050E040E0CA01B90167
:103230000E94C30E8091370290913802A09139020A
:10324000B0913A0289839A83AB83BC83BC01CD01E0
:103250000F900F900F900F90DF91CF910C943F0F34
:1032600008950C94301908950C943319E82FF0E068
:10327000EE5DFC4F80810895CF92DF92EF92FF9236
:103280000F931F93CF93DF938DE194E00E948D06FF
:1032900082E2E82E83E0F82ED0E0C0E098E1C92E6B
:1032A00094E0D92E00E114E0DF93CF93DF92CF9228
:1032B0000E94260785E194E00E948D06F701819126
:1032C0007F010E94E2091F928F931F930F930E9428
:1032D00026078EE094E00E948D0621968DB79EB75A
:1032E00008960FB6F8949EBF0FBE8DBFCA30D105A9
:1032F000D9F6DF91CF911F910F91FF90EF90DF9062
:10330000CF90089580EA8A95F1F7089500C0089556
:103310000C948219F894E82FE295EF70F0E041A147
:103320008F7021E030E0B90102C0660F771F8A95E7
:10333000E2F7CB01962F9095942391A392A1892B2C
:1033400082A37894089508950C94A319CF93DF93E2
:10335000CCEAD1E089918F3F11F00E948A1981E077
:10336000C13BD807B9F7C6EAD1E089918F3F11F088
:103370000E948A1981E0CC3AD807B9F7DF91CF9142
:103380000895CF92DF92EF92FF920F931F93CF9306
:10339000DF93EC01D62E062F10E0C80184559E4F16
:1033A0007C01FC0180818F3F09F44BC0F894E82F29
:1033B000E295EF70F0E091A18F7021E030E001C064
:1033C000220F8A95EAF7892F822B81A382A120956B
:1033D000282322A378940E948619E6EAF1E030E0DF
:1033E00020E0C12C51E041914F3FA1F1A42FA295C3
:1033F000AF70A05EB0E08C9190E04F7002C09595E8
:1034000087954A95E2F780FD25C0952F022E01C0D1
:10341000990F0A94EAF7C92A2F5F3F4F26303105EA
:1034200011F7F70180818F3F11F00E948A1961E046
:10343000C11001C060E08D2D0E948819C00FD11FFE
:10344000C882DF91CF911F910F91FF90EF90DF9095
:10345000CF90089590E0DFCF0E94681B8091020119
:103460008091020195E0811190E090932D0385E019
:10347000891B80932C030E94A6198AE0E8E1F3E0FF
:10348000DF01982F1D929A95E9F7E2E2F3E0DF0160
:103490001D928A95E9F785E00E94171B0E94620938
:1034A0000C94721BFF920F931F93CF93DF9300D066
:1034B00000D00F92CDB7DEB70E944E1BF82E609160
:1034C0002D03882309F44AC01A821982FE0133961B
:1034D00083E0DF011D928A95E9F7862F90E08E0147
:1034E0000F5F1F4FB8018E5D9C4F0E94801BE091C3
:1034F0002C03F0E0882329F1BF016E5D7C4FD801D9
:103500009E012A5F3F4FF12CFB014191BF019D912C
:10351000491731F0AF0141505109FA019083F82E5B
:10352000A217B30789F70E9468098F2D0F900F909B
:103530000F900F900F90DF91CF911F910F91FF90FF
:103540000895EE5DFC4F85E0DF01982F1D929A955E
:10355000E9F7D8011D928A95E9F7E5CF70E06E5D35
:103560007C4F80912C0390E08E5D9C4F0E942C1C20
:103570000E94A419DACFDF92EF92FF920F931F936C
:10358000CF93DF93CDB7DEB72A970FB6F894DEBF9F
:103590000FBECDBF1A821982FE01339688E0DF018B
:1035A0001D928A95E9F7F12C8E010F5F1F4F6F2D49
:1035B000C8010E94C119F394D02EE12EB5E0FB1290
:1035C000F6CF4AE050E0B80188E193E00E94013272
:1035D0008C0121E0892B09F420E00115110549F047
:1035E0008AE0ED2DFE2DA8E1B3E001900D928A95C1
:1035F000E1F760912D0370E06E5D7C4F45E088E15E
:1036000093E00E94181B81E090E0012B11F40E94CE
:10361000521A2A960FB6F894DEBF0FBECDBFDF91C7
:10362000CF911F910F91FF90EF90DF900895089533
:10363000FF920F931F93CF93DF93F82E092F162F2E
:10364000D72FC42F222349F081E080939F020E944C
:10365000D52990939E0280939D0280919F0288239A
:10366000A1F080919D0290919E020E94012A0597EF
:1036700060F0EF2DF02FA12FBD2FCF018C0F911DEA
:10368000E817F90741F410929F02DF91CF911F9143
:103690000F91FF90089521912D93F2CF8091A20276
:1036A000811107C00E94B131882351F081E08093DD
:1036B000A20281E09091A202913009F080E0089589
:1036C00082E08093A2020E94AC31F3CF0C944E1B97
:1036D0000E94661B809302010E944E1B81110C9474
:1036E000CE1B08950E944E1B811102C00C94D01B6A
:1036F000089581E09091A3029A3008F080E0089547
:10370000FF920F931F93CF93DF93EC01162F072F98
:10371000F090A30229E02F15D8F0612F702FCE0171
:103720000E942A1CC82F81112BC08091A3028F3FB9
:1037300001F50E94D5299093A1028093A002809167
:103740009C0280FF0EC08FE394E00E948D060AC0A9
:103750008091A0029091A1020E94012A843F914091
:10376000E0F6C0E08C2FDF91CF911F910F91FF9079
:1037700008958F5F8093A3028A30D8F6C1E0F2CF1C
:1037800089E08F1540F480919C0280FF04C08CE298
:1037900094E00E948D061092A302E4CF0C94482678
:1037A0000C944B26CF92DF92EF92FF920F931F93D0
:1037B000CF93DF93FA0169017801C82F880FDD0BE1
:1037C0003097B9F08AE08C9FD0018D9FB00D112405
:1037D000AD5FBE4F13968D919C9114978C559D4F64
:1037E00012964C9150E0E417F50708F4AF010E94DF
:1037F0000E32CE010E945627892B11F5E114F104F7
:10380000E9F08AE08C9FF0018D9FF00D1124ED5FAF
:10381000FE4F458150E0E416F50608F4A7018AE062
:103820008C9FF0018D9FF00D1124ED5FFE4F66819E
:1038300077816C557D4FC6010E940E3281E001C038
:1038400080E0DF91CF911F910F91FF90EF90DF907B
:10385000CF9008950C94C01D0C94ED1D0F931F93F1
:10386000CF93DF93CDB7DEB728970FB6F894DEBFBE
:103870000FBECDBF8091C1029091C202A091C30240
:10388000B091C402BC01CD010E94102A11E064363F
:1038900071058105910520F10E942129DC01CB01F0
:1038A0000296A11DB11D89839A83AB83BC8310E06E
:1038B00000E030E020E044E050E0BE016F5F7F4F69
:1038C00084E00E94D21B182F882351F00E94E12926
:1038D0006093C1027093C2028093C3029093C402AA
:1038E000812F28960FB6F894DEBF0FBECDBFDF91B3
:1038F000CF911F910F9108957F928F929F92AF92D7
:10390000BF92CF92DF92EF92FF920F931F93CF93CC
:10391000DF93E82E992E862E772E042FF52E69013F
:103920000E94791BAA24A394B12C882319F08AE061
:10393000A82EB12CC1E0D0E0F894682D772D8E2D03
:10394000992DF6010995182F7894811114C02196AC
:10395000AC16BD06FCF480919C0280FF0CC0FF9267
:103960000F9385E794E09F938F930E9426070F9013
:103970000F900F900F90812FDF91CF911F910F919A
:10398000FF90EF90DF90CF90BF90AF909F908F907F
:103990007F900895CC9F9001CD9F300D300D112464
:1039A00090E080E045E34A95F1F700000196281782
:1039B0003907C1F7C1CF6F927F928F929F92AF92DA
:1039C000BF92CF92DF92EF92FF920F931F93CF930C
:1039D000DF9300D000D00F92CDB7DEB7662E5A012C
:1039E000722E832E902EC12E01E010E09E012F5FDB
:1039F0003F4F50E040E070E060E00E94D21BD82EC4
:103A0000882309F449C0D5018D919D910D90BC91F9
:103A1000A02DBC01CD010E94102A643671058105DC
:103A2000910590F18701272D382D50E040E070E09E
:103A300060E0862D0E94D21BD82EB701892D9C2DC7
:103A40000E945E1F91E02981281390E0D92239F06D
:103A50000E94E129F50160837183828393838D2D18
:103A60000F900F900F900F900F90DF91CF911F91BB
:103A70000F91FF90EF90DF90CF90BF90AF909F900D
:103A80008F907F906F900895B701892D9C2D0E9493
:103A90005E1F99818913C6CFA701692D7C2D872DC3
:103AA000982D0E940E32DBCFEF92FF920F931F935F
:103AB000CF93DF930F92CDB7DEB70091B60110918F
:103AC000B701095F1F4FEE24E394F12C9E012F5F95
:103AD0003F4F4DEB52E063E082E00E94DB1C182F69
:103AE000882321F0CE0101960E941E1F812F0F9086
:103AF000DF91CF911F910F91FF90EF900895CF929A
:103B0000DF92EF92FF920F931F93CF93DF9300D03A
:103B100000D00F92CDB7DEB76B010091B6011091C6
:103B2000B7010F5F1F4F85E0E82EF12C9E012F5F3C
:103B30003F4F49EB52E061E080E00E94DB1C8823AC
:103B400049F095E0FE013196A4EBB2E001900D92B0
:103B50009A95E1F795E0E4EBF2E0D60101900D9241
:103B60009A95E1F70F900F900F900F900F90DF91C3
:103B7000CF911F910F91FF90EF90DF90CF9008951C
:103B80000F931F93CF93DF93D82FC92F8B012FE76C
:103B90003DE148EB51E00E947C1C8823C1F024E504
:103BA0003DE145EC51E0B8018D2F9C2F0E947C1C1B
:103BB000882369F02EE23CE14DEC51E0B8018D2FF5
:103BC0009C2FDF91CF911F910F910C947C1C80E072
:103BD000DF91CF911F910F9108950F931F93CF9372
:103BE000DF930F92CDB7DEB7FB01F8940091B601D9
:103BF0001091B701C801019625E0DC0101900D92FA
:103C00002A95E1F765E070E00E945E1FF80180836D
:103C10007894F894CE0101960E94151F8981F801CD
:103C2000878361E070E0CE0101960E945E1FF8017B
:103C300086837894F8946085718582859385009158
:103C4000B0021091B1022091B2023091B30260171C
:103C500071078207930751F06093B0027093B1022D
:103C60008093B2029093B3020E94F82878940F9048
:103C7000DF91CF911F910F9108950E9452290E94C8
:103C8000632C0E947C2C0E94922C0E942816FBCF51
:103C90000C944508CF93DF9380910201811106C0F7
:103CA00084EF8093360185EF809335014091360192
:103CB000A42FA295AF70E1E2EA0FF0E030814F70DF
:103CC00081E090E0BC01042E01C0660F0A94EAF77F
:103CD000262F209523232083E2E2EA0FF0E02081C3
:103CE000262B208330913501E32FE295EF70C1E25E
:103CF000CE0FD0E028813F70032E01C0880F0A94B8
:103D0000EAF7982F909592239883C2E2CE0FD0E0E5
:103D10009881892B8883A05EB0E02C91E05EF0E072
:103D2000808190E002C0959587953A95E2F7817081
:103D3000880F30E002C0359527954A95E2F721704B
:103D4000822B8093CA029091020181E09827909380
:103D5000C602891B8093C502DF91CF910895CF934E
:103D600040913601E42FE295EF70E05EF0E02081B3
:103D700030913501E32FE295EF70E05EF0E0808155
:103D800090E03F7002C0959587953A95E2F7880FCD
:103D9000991F8270992730E04F7002C035952795A2
:103DA0004A95E2F721703327822BE091CA02EE0F89
:103DB000EE0FE82BE093CA02C091C602EF70F0E06C
:103DC000E852FE4F80819091C902890F8093C90209
:103DD00020E0823064F0EC2FF0E0E953FD4F808169
:103DE0008F5F808360E08C2F0E94481E21E08091CD
:103DF000C9028F3F64F4EC2FF0E0E953FD4F80815E
:103E00008150808361E08C2F0E94481E21E08091C8
:103E1000C902082E000C990B62E070E00E94DE31AE
:103E20008093C902822FCF910895E091C602F0E0FD
:103E3000E953FD4F2081FC0120830895FF920F93E9
:103E40001F93CF93DF93D091C5020D2F10E009533C
:103E50001D4FFC01C081F8018081C81BFC2E80E051
:103E60001F147CF09C2FC7FD90E0C91BC11114C02A
:103E70008823E9F0DF91CF911F910F91FF900C946F
:103E8000F915FA94F80180818F5F808360E08D2FAF
:103E90000E94481E81E0E4CFCF5FF801808181500D
:103EA000808361E08D2F0E94481E81E0DFCFDF918B
:103EB000CF911F910F91FF9008950895FC01680F15
:103EC000791F8FEF91E36E177F0709F40895219111
:103ED000822728E030E087FF06C0880F892721501D
:103EE0003109C9F7F0CF880FFACFCF92DF92EF9266
:103EF000FF920F931F93CF93DF936C017B0164E6D6
:103F000070E088E70E94DD24EC018601EC0CFD1CCA
:103F100097FD0EC0F801849164E670E00E9456257A
:103F2000EC01892B29F40F5F1F4FE016F10691F782
:103F30000E94E325CE01DF91CF911F910F91FF9059
:103F4000EF90DF90CF9008950895EFE2F3E080E0E6
:103F500092E0DF019C011D9221503040E1F7F09387
:103F60003605E09335058FEF9FEF9093F90280932C
:103F7000F8020895CF93DF9300D000D0CDB7DEB71D
:103F80000E94A41F90E280FF90E88093F402909337
:103F9000F3020E94D7246DE070E080EB95E00E9470
:103FA000751F892B61F084E995E00E948D0680E001
:103FB0000F900F900F900F90DF91CF910895809107
:103FC000F40263E070E081FD09C081E995E00E94A0
:103FD000751F892B61F08BE695E0E7CF88E695E0C9
:103FE0000E94751F892B19F080E595E0DECF6DE00A
:103FF00070E083E495E00E94751F892B19F08CE234
:1040000095E0D3CF0E94E129DC01CB01805A954194
:10401000AF4FBF4F8093310590933205A093330586
:10402000B09334050E94A51F81E08093F70280932E
:10403000F6021092F502BCCF2091F30236E0839F86
:10404000C0011124629F800D911D1124811522E071
:10405000920714F090E080E0815D9C4F90933605CC
:104060008093350508952091350530913605295204
:1040700033404091F302642F70E0C9010E94CA31BD
:10408000481B463010F4240F311D211582E03807FB
:1040900010F030E020E0215D3C4F30933605209356
:1040A000350508951F93CF93DF93982F162F81E046
:1040B0009A3019F09D3031F480E0DF91CF911F915B
:1040C0000C94CC20C0913505D091360586E0FE01D8
:1040D000ABECB2E001900D928A95E1F7903EC8F00A
:1040E00086E0FE0111928A95E9F711111EC0C09178
:1040F0003505D091360546E050E0BE018BEC92E0EC
:104100000E940132892BF9F4DF91CF911F910C9419
:104110003320F6E09F9FB001112463547A4F46E0AC
:1041200050E0CE010E94F831E0CFE0913505F091EA
:1041300036059F012A5F3F4F2E173F07C1F280814E
:1041400080958193F9CFCF52D340CE0125E096954B
:1041500087952A95E1F721E030E0A90102C0440FDC
:10416000551F8A95E2F7CA014091F8025091F90271
:10417000842B952B259645E0D695C7954A95E1F772
:1041800002C0220F331FCA95E2F7822B932B909324
:10419000F9028093F802B8CFCF93E82F209135052C
:1041A000309136052F5233404091F302642F70E076
:1041B000C9010E94CA31481B842FEE2369F066E0D2
:1041C0000E94BE31C82FC15010F4CF91089560E015
:1041D00080E20E945220F7CFA901480F511D4115DE
:1041E000524018F080E030E020E0280F311D215DC2
:1041F0003C4F3093360520933505E7CF1F93CF937F
:10420000DF93EC01162FFE018491811104C0DF9130
:10421000CF911F910895612F0E9452202196F3CFD4
:10422000CF93DF9300D000D0CDB7DEB78091F702F7
:10423000811109C08091F6020F900F900F900F909E
:10424000DF91CF9108950E94E129DC01CB01805AD2
:104250009541AF4FBF4F8093310590933205A093A6
:104260003305B09334058091F6028111E3CF62E00B
:1042700070E083ED94E00E94751F892B29F08FEB8D
:1042800094E00E948D06D6CF81E08093F602D2CFD3
:104290002F923F925F926F927F928F929F92AF92F6
:1042A000BF92CF92DF92EF92FF920F931F93CF9323
:1042B000DF938091F702882369F02091F802309112
:1042C000F9022115310531F08091F50261E070E0CD
:1042D000882399F0DF91CF911F910F91FF90EF907C
:1042E000DF90CF90BF90AF909F908F907F906F9016
:1042F0005F903F902F9008958F5F082F10E01B0173
:10430000082E02C0220C331C0A94E2F7A9014221B4
:104310005321452B89F32091F402922F917020FDB7
:1043200032C0980136952795369527958295880F46
:1043300080763FE1380F8093390120933C01309320
:104340003A0190933D0124E630E047E050E067E316
:1043500071E088E70E948525892BE9F089E095E0E6
:10436000DF91CF911F910F91FF90EF90DF90CF9051
:10437000BF90AF909F908F907F906F905F903F9095
:104380002F900C948D06880F880F880F37E0380F18
:1043900020E093E0D0CFA80125E0440F551F2A95D7
:1043A000E1F78091F40280FD10C0415D5C4F04E6AE
:1043B00010E020E230E060E488E70E94B225892B1B
:1043C00009F469C080EF94E0CBCFE1EDF2E080E248
:1043D000DF011D928A95E9F7ACEEB1E008EE11E03D
:1043E00080EFC82E81E0D82E97E0592E7724739461
:1043F0009D91E80189918E01BA01680F711D615D7F
:104400007C4FE92FF0E0EF52FD4F90E080E0652C0B
:10441000681A872C082E01C0880C0A94EAF77B01E1
:10442000A12CE701B9907E01B820262D2A1927700A
:10443000922E022E000C330BDB2D01C0DD0F9A945F
:10444000EAF79D2E3195219531092770332701C058
:10445000B6942A95EAF79B282081922A9082A39409
:1044600028E0A212DECF019631968830910579F6C8
:10447000CA16DB0609F0BCCF04E610E020E230E00B
:1044800041ED52E060E488E70E94B225892B19F0E3
:1044900085ED94E065CF0E941021E101C095D09593
:1044A0008091F8029091F9028C239D239093F90258
:1044B0008093F8020FCF8091F6029091F70291114C
:1044C00003C091E089270895882389F062E070E0B5
:1044D0008DEB94E00E94751F892B39F088EA94E0F7
:1044E0000E948D068091F60208951092F602809146
:1044F000F602E7CFCF93DF93CDB7DEB729970FB69C
:10450000F894DEBF0FBECDBF8091F5029091F70207
:10451000992361F12091F8023091F902232B21F5C2
:10452000811122C0198287E28A831B828091F10265
:104530008C838091F2028D8380913E018E831F8255
:104540008FEF88878FE2898724E630E049E050E0EA
:10455000BE016F5F7F4F88E70E948525892B79F028
:104560008BE894E00E948D068091F50229960FB6A3
:10457000F894DEBF0FBECDBFDF91CF91089581E0EB
:104580008093F502F1CFCF93DF9300D000D0CDB769
:10459000DEB78091F702882309F43FC080912F0590
:1045A000909130050E94012AC29760F00E94D5299F
:1045B0009093300580932F0560E080E00E941C20DE
:1045C0000E942F070E9448218091F602882329F13A
:1045D0000E94E12969837A838B839C8380913105D2
:1045E00090913205A0913305B091340529813A812B
:1045F0004B815C81281B390B4A0B5B0BDA01C9012B
:104600008F3F9F4FAF4FBF4740F40F900F900F90D9
:104610000F90DF91CF910C945B220F900F900F9031
:104620000F90DF91CF9108950F931F93CF93DF9356
:10463000C42FD22FFC0182818823C9F04093FC0251
:104640000E94D5299093FB028093FA0280E28C0F9E
:10465000883008F050C0C77081E001C0880FCA954B
:10466000EAF7DF91CF911F910F910C942D0B1091D0
:10467000FC02141335C08091FA029091FB020E9453
:10468000012A8436910560F5C0E2CD0F1D17B9F0FF
:1046900080E2810F883040F4177081E001C0880FFC
:1046A0001A95EAF70E94340BC83048F481E09D2F38
:1046B000977001C0880F9A95EAF70E942D0B802F02
:1046C0000E94250BC830B8F4D77081E001C0880F74
:1046D000DA95EAF7DF91CF911F910F910C94340B8B
:1046E00080E28C0F883038F4C77081E001C0880FF9
:1046F000CA95EAF7EFCFDF91CF911F910F910895FF
:104700000F939C01CB01243F4CE53407A1F190F4B9
:10471000293DFCE53F0749F12A3D4CE53407E9F125
:10472000283D3C45C1F0FC0182818823E1F11092D3
:10473000FC0219C0263FFCE53F0719F1273F4CE575
:10474000340729F1253F3C4571F707E225EE44EE99
:1047500065EF7CE505C006E221EE41EE68ED7CE503
:104760000E94142380E00F91089507E225EE45EEA4
:1047700069ED7CE5F5CF06E221EE40EE64EF7CE5E5
:10478000EFCF06E221EE42EE66EF7CE5E9CF07E2ED
:1047900025EE46EE67EF7CE5E3CF08E221E045EE4B
:1047A0006AED7CE5DDCF81E0DECFCF93DF93EC01D6
:1047B000FB018281882309F4CEC0C631FCE5DF0706
:1047C000E0F4C2309CE5D907F0F00E944D159093BB
:1047D000170380931603C631ECE5DE0720F5C230DF
:1047E000FCE5DF0798F480911603909117030E946F
:1047F0005B150E94600E80E006C09E012B5F3C4569
:104800002930310510F3DF91CF910895FE01E35077
:10481000FC45809116038160E331F105B0F4E9585D
:10482000FD4C0C94F231CE018B5F9C450997D8F674
:10483000FE01EC5FFC45E830F10590F4E657FD4CD5
:104840000C94F23180911603826080931603CBCFD3
:10485000809116038460F9CF809116038860F5CFAC
:1048600080911703816080931703BDCF8091170358
:104870008260F9CF809116038061E7CF80911603A3
:104880008062E3CF809116038064DFCF0E94600EC8
:10489000809116038068D9CF809116038C60D5CFA4
:1048A000809117038360DFCF809116038E7FCDCF79
:1048B000809116038D7FC9CF809116038B7FC5CF62
:1048C00080911603877FC1CF809117038E7FCBCF56
:1048D000809117038D7FC7CF809116038F7EB5CF50
:1048E000809116038F7DB1CF809116038F7BADCF62
:1048F0000E94600E809116038F77A7CF80911603D8
:10490000837FA3CF809117038C7FADCF8091160357
:1049100082FB992790F921E0922790FB82F990FB86
:1049200083F993CF80911703982F909591708E7F84
:10493000892B90FB81F997CF0E94600E909116030E
:10494000892F97FB87F9805880CF81E00E94E1157D
:104950004ACF80E0FBCF81E056CFCF93DF93EB01CE
:1049600086319C4511F50E9483149A81992399F010
:104970008A7A91E009F490E09093FD02811109C0D8
:1049800089E20E9404140E94C81480E0DF91CF9154
:10499000089585E3F6CF8091FD02811104C089E27C
:1049A0000E940B14F0CF85E3FBCF81E0EFCF109294
:1049B000B9008CE08093B80008959F92AF92BF92A7
:1049C000CF92DF92EF92FF920F931F93CF93DF93DB
:1049D000B82EEB010E94D5296C01EE24E394F12C52
:1049E000C431D10560F025E0E22EF12CCF3FDC0789
:1049F00031F0CE0164E170E00E94CA317B0184EAAB
:104A0000A82E94E8992E1092BC00A092BC000E949F
:104A1000D5298C018091BC0087FF0CC08091B90022
:104A2000887F883031F18091B900887F803109F129
:104A30000FEF08C00E94D529801B910B8E159F0592
:104A400048F30EEF1FEFCF3FDC07E9F2C6010E94EB
:104A5000012A8C179D07B8F2C801DF91CF911F91F1
:104A60000F91FF90EF90DF90CF90BF90AF909F900D
:104A70000895B092BB009092BC000E94D5298C0191
:104A80008091BC0087FF0AC02091B900287F28319F
:104A900011F0203469F600E010E0DECF0E94D52945
:104AA000801B910B8E159F0558F3CBCF0F931F934F
:104AB000CF93DF93EB018093BB0084E88093BC002D
:104AC0000E94D5298C018091BC0087FF11C02091E4
:104AD000B900287F81E090E0283211F490E080E076
:104AE000919581959109DF91CF911F910F91089533
:104AF000CF3FDC0741F30E94D529801B910B8C1717
:104B00009D0708F38EEF9FEFEECFCF92DF92EF92EB
:104B1000FF920F931F93CF93DF936B018A01F22EC5
:104B2000E32E622F732F0E94DD24AC01E6010C0DF1
:104B30001D1DC017D10711F057FF0DC084E98093E8
:104B4000BC00CA01DF91CF911F910F91FF90EF90B0
:104B5000DF90CF9008956F2D7E2D89910E9456256C
:104B6000AC01E7CFCF92DF92EF92FF920F931F93AA
:104B7000CF93DF93C62F6A017901B8010E94DD242B
:104B80009C0197FD0DC0B8018C2F0E9456259C01F9
:104B9000E601EC0CFD1CCE15DF0511F037FF0DC052
:104BA00084E98093BC00C901DF91CF911F910F91DF
:104BB000FF90EF90DF90CF900895B80189910E9407
:104BC00056259C01E8CF84E98093BC0008958EE1CE
:104BD0004A9B02C08150E1F74A9BFECF08955A9844
:104BE00080E28A95F1F75A9A0895FC013BE03A95E4
:104BF000F1F798E020E080E031E040E14A95F1F7FC
:104C0000880F4A9B02C08160232742E04A95F1F752
:104C1000000040E14A95F1F7915079F790E19A95BB
:104C2000F1F799B132E03A95F1F7000040E14A9589
:104C3000F1F792FB992790F992272081920F9083A8
:104C40000895EF92FF920F931F93CF93DF930F92EC
:104C5000CDB7DEB719828C017C01E60EF11C0E1572
:104C60001F0561F481E09981911180E00F90DF913F
:104C7000CF911F910F91FF90EF9008950E94E7252B
:104C8000CE0101960E94F525F80181938F01E7CFAF
:104C9000529A5A9A089552985A9AEA9AE9E6F0E096
:104CA00080818F7C808308956150770B91E001C0F3
:104CB000990F6A95EAF720E031E0911108C02223AC
:104CC00091F05A9A80E28A95F1F75A980895492FFF
:104CD000482339F05A9A232740E24A95F1F79695EE
:104CE000ECCF5A98F9CF5A98EDCFFF920F931F93BC
:104CF000CF93DF93EC018C01060F111DC017D10774
:104D000031F4DF91CF911F910F91FF900895F990A9
:104D10000E94EF2568E08F2D0E945426EFCF1F924E
:104D20000F920FB60F921124EF92FF920F931F93E1
:104D30002F933F934F935F936F937F938F939F93A3
:104D4000AF93BF93EF93FF93CF93DF930F92CDB7C2
:104D5000DEB719820E94E725CE0101960E94F52553
:104D6000282FA82FA695A695A695982F9295957071
:104D70008A2F8570980F892F837096959695890F45
:104D8000822787709981892B09F075C0A63008F0B9
:104D900072C080E18A95F1F75A9A529AB2E0BA95B8
:104DA000F1F700C0EA2EF12C5A98EAE0AE9FD0014C
:104DB0001124AD5FBE4F1896ED91FC911997309775
:104DC000B1F06091B6017091B70116962D913C91AA
:104DD0001797260F371F13968D919C911497680F84
:104DE000791F15964C91159712968C9109958AE02A
:104DF0008E9DF0018F9DF00D1124ED5FFE4F6581BA
:104E0000662351F02091B6013091B70186819781D8
:104E1000820F931F0E9475260E94EF25F0E1FA95FC
:104E2000F1F75A9852985A9A80E18A95F1F78AE0F8
:104E30008E9D80018F9D100D11240D5F1E4FD80196
:104E400012966C911297662371F12091B601309100
:104E5000B70113968D919C91820F931F0E9421267A
:104E6000D801ED91FC91882311F088E001C082E027
:104E700080830E94E7250F90DF91CF91FF91EF9102
:104E8000BF91AF919F918F917F916F915F914F9162
:104E90003F912F911F910F91FF90EF900F900FBEB8
:104EA0000F901F901895ED91FC91DFCF0F931F93FA
:104EB000CF93DF93EC0106970CF0A9C08AE08C9F9A
:104EC000F0018D9FF00D1124ED5FFE4F80819181E7
:104ED000892B09F49CC0F894529A5A9885E08A95D7
:104EE000F1F700008C2F869585709C2F9570890FA7
:104EF000982F937086958695890F8E0193E0000F09
:104F0000111F9A95E1F7082B0E94EF2500C068E079
:104F1000802F0E945426A0E1AA95F1F752985A9A40
:104F20004A9B27C087E090E04A9925C08AE08C9F81
:104F300080018D9F100D11240D5F1E4FF8016581BA
:104F40006623A1F12091B6013091B7018681978146
:104F5000820F931F0E942126811128C0529A5A9ACB
:104F6000D801ED91FC9182E08083789482E090E01A
:104F700016C000C0D5CF0197B9F4529A5A9A8AE068
:104F80008C9FF0018D9FF00D1124ED5FFE4F01907D
:104F9000F081E02D81E08083789481E090E0DF91E2
:104FA000CF911F910F91089500C0BECF0E94E725B9
:104FB000B0E2BA95F1F75A98529AE0E1EA95F1F722
:104FC0008AE08C9FF0018D9FF00D1124ED5FFE4F64
:104FD0006281662351F02091B6013091B70183813F
:104FE0009481820F931F0E9475260E94EF258AE00C
:104FF0008C9FF0018D9FF00D1124ED5FFE4F01900D
:10500000F081E02D1082789490E080E0C8CF84E0B9
:1050100090E0C5CF909304038093030308950E940A
:105020004E1B811103C08091FE020895E09103039D
:10503000F0910403309721F00190F081E02D099464
:1050400080E00895EF92FF920F931F93CF93DF9329
:105050008C01E0910303F09104033097A9F10280E1
:10506000F381E02D099580919C0282FF2DC080FF85
:1050700004C085E09BE00E948D06E801C801089607
:105080007C010FEF1AE080919C0280FF0BC08881A9
:105090001F928F931F930F930E9426070F900F90DC
:1050A0000F900F902196CE15DF0569F780919C0235
:1050B00080FF0AC08DEF9AE0DF91CF911F910F9191
:1050C000FF90EF900C948D06DF91CF911F910F917F
:1050D000FF90EF900895209101033091020328176B
:1050E000390771F09093020380930103E091030369
:1050F000F0910403309721F00680F781E02D0994A8
:1051000008952091FF02309100032817390771F0AC
:10511000909300038093FF02E0910303F091040356
:10512000309721F00084F185E02D09940895AC01B9
:105130009C012E5F3F4F485F5F4F80E0241735078B
:1051400009F40895F90191919F019923B9F38F5FB3
:10515000F5CF9C01662351F0FC013296285F3F4F4A
:105160008191861729F0E217F307D1F780E00895BF
:1051700081E008959C01FC0132968FEF90E041910F
:10518000461751F08F3F19F4411101C0892F9F5FDD
:105190009630A9F78F3F09F40895280F311D87FD38
:1051A0003A95F901628308959C01FC013296285FCB
:1051B0003F4F8191861303C0DF0111971C92E217C4
:1051C000F307B9F708950C94BA280C94D428FC017D
:1051D000329686E0DF011D928A95E9F708951092D4
:1051E0003705109238051092390510923A05089546
:1051F000CF92DF92EF92FF92CF93DF9300D000D057
:10520000CDB7DEB76B017C010E944E1B81110EC031
:105210000E94E129C61AD70AE80AF90AC09237059E
:10522000D0923805E0923905F0923A050F900F9030
:105230000F900F90DF91CF91FF90EF90DF90CF9084
:105240000895CF93DF9300D000D0CDB7DEB70E9492
:105250004E1B882341F00F900F900F900F90DF911D
:10526000CF910C94E1290E94E12969837A838B8391
:105270009C838091370590913805A0913905B091B4
:105280003A0529813A814B815C81280F391F4A1FD9
:105290005B1FCA01B9010F900F900F900F90DF9123
:1052A000CF9108950895089508950C9454298091FC
:1052B0004305843049F10E94552980E00E94FE098F
:1052C0001092050388E190E020E40FB6F894A895C9
:1052D000809360000FBE2093600083B7817F84605D
:1052E00083BF83B7816083BF7894889583B78E7FAF
:1052F00083BF0FB6F894A895809160008861809371
:105300006000109260000FBE08950895CF930E9430
:1053100053290E94BB1A0E948529C0E08C2F0E944D
:105320003619811105C0CF5FCA30C1F7CF910895FA
:1053300081E0FCCF08950C949A290E94600E0E948F
:105340000F280E94FE090C949B291F921FB61F92E2
:1053500011248F939F93AF93BF9380910503811185
:1053600013C080913B0590913C05A0913D05B09103
:105370003E054196A11DB11D80933B0590933C05D0
:10538000A0933D05B0933E05BF91AF919F918F9142
:105390001F901FBE1F90189582E084BD93E095BDBD
:1053A0009AEF97BD80936E0008952FB7F89480917F
:1053B0003B0590913C05A0913D05B0913E052FBF66
:1053C0000895CF93DF9300D000D0CDB7DEB78FB76D
:1053D000F89420913B0530913C0540913D0550915A
:1053E0003E0529833A834B835C838FBF69817A8131
:1053F0008B819C810F900F900F900F90DF91CF9138
:1054000008959C014FB7F89480913B0590913C051D
:10541000A0913D05B0913E054FBF821B930B0895AF
:105420000F931F93CF93DF9300D000D0CDB7DEB79B
:10543000462F572FBC012FB7F89480913B059091D0
:105440003C05A0913D05B0913E052FBF8C019D010B
:10545000041B150B260B370BC901B8010F900F90D9
:105460000F900F90DF91CF911F910F910895789435
:105470001F921FB61F9211248F939F93AF93BF93D8
:1054800080913B0590913C05A0913D05B0913E0572
:105490000196A11DB11D80933B0590933C05A093FF
:1054A0003D05B0933E05BF91AF919F918F911F90A5
:1054B0001FBE1F90189587E797E790930108809388
:1054C000000888E19AE00FB6F894A89580936000F0
:1054D0000FBE90936000FFCF909301028093000273
:1054E000089580911403089590914305943031F507
:1054F000809308036093090370930A0382E080930A
:10550000E9008FEF9091E800815095FD06C095ED80
:105510009A95F1F700008111F5CF8091E80085FFA1
:105520000DC050E040E063E070E088E093E00E944E
:10553000222D8091E8008E778093E8000895BC01C9
:1055400084E00C94742ABC0183E00C94742ACF93F9
:10555000DF93D82FC92F81E08093E9008FEF9091DE
:10556000E800815095FD06C095ED9A95F1F7000091
:105570008111F5CF8091E80085FF16C050E040E032
:1055800068E070E08D2F9C2F0E94222D8091E80012
:105590008E778093E80088E0ED2FFC2FACE0B3E03D
:1055A00001900D928A95E1F7DF91CF9108950895CA
:1055B0008CE39BE00E948D0680914205811109C019
:1055C0000E94AA2E0E94072F8091E200846080939F
:1055D000E200089588E39BE00E948D061092420548
:1055E000089584E39BE00C948D0680E39BE00C948B
:1055F0008D068CE29BE00C948D06209107032F5FB3
:10560000822F62E30E94BE31992319F02093070391
:1056100008951092070380910B038823E9F080918D
:1056200043058430B9F49091E9008091EC008795AE
:10563000882787959F70892B93E09093E90090913C
:10564000EB0090FF04C09091EE0097FD08C08F70B2
:105650008093E90010920B0308951092F10090914D
:10566000E80095FDFACF9091E80090FFF0CF90917F
:10567000E8009E779093E800EACF42E061EC81E099
:105680000E94262E42E261EC82E00E94262E42E237
:1056900061EC83E00C94262E80914505893089F1D8
:1056A00048F4823009F49DC0833009F458C0813039
:1056B00041F008958A3009F484C08B3009F46AC03F
:1056C000089580914405813A09F048C08091E8002E
:1056D000877F8093E8008091480590914905892B48
:1056E00061F468E08CE093E070E00E94712D80919D
:1056F000E8008B778093E800089560E090E080E018
:10570000F3CF80914405813249F58091480590910D
:105710004905029718F58091E800877F8093E8009B
:105720008091E80082FF16C09091F3008091F20012
:10573000029729F48091F1008B7F813021F48091D0
:10574000F100809314038091E8008B778093E80048
:105750000C945A2E809143058111E2CF08958091D7
:105760004405813AD9F78091480590914905892BE4
:10577000A9F78091E800877F8093E8008091E80096
:1057800080FFFCCF809149018093F1008091E80077
:105790008E77DCCF80914405813201F780914805F6
:1057A00090914905892BD1F68091E800877F8093FD
:1057B000E8000E945A2E80914605809349010C947E
:1057C000600E80914405813249F68091E800877F20
:1057D0008093E8000E945A2E80914705809315031C
:1057E000089580914405813A09F0B8CF8091E8008E
:1057F000877F8093E8008091E80080FFFCCF809154
:105800001503C2CF9FB7F89410920B039FBF9091DE
:105810004305943009F047C02091E9009091EC00D5
:105820009795992797952F70922B23E02093E90065
:105830002091EB0020FF34C02091EE0027FF30C004
:1058400020910603222321F02091E80025FF28C0A3
:105850001092060326E03091E80035FF14C08093D3
:10586000F1008091E80085FD27C08091E80080FF6D
:10587000FCCF8091E8008E778093E8009F70909332
:10588000E90080E0089530914305343049F43091C7
:10589000EB0035FD05C0215041F481E08093060303
:1058A0009F709093E9008FEF0895EFE9FFE0319743
:1058B000F1F700C00000CFCF8FB7F89421E020931C
:1058C0000B038FBFDBCF84B7877F84BF0FB6F894FD
:1058D000A8958091600088618093600010926000BC
:1058E0000FBE80E890E00FB6F8948093610090932B
:1058F00061000FBE0C941A160E94AA2E0E94072F58
:10590000E2EEF0E080818460808378940E9492319E
:105910000E942C168FE391E00E940A288BE19BE005
:105920000C948D0680914305853051F487E19BE00E
:105930000E948D0680914305853021F00E949D29AB
:105940000C9463160E94572980914105882391F396
:105950000E948629882371F30E940C2D0E94600EFC
:10596000E9CF0C94B32CFC01CB01DA012F2F3327A4
:1059700023303105D1F070F42130310509F447C0EE
:105980002230310569F48BE590E02EE63BE02D9363
:105990003C93089521323105E9F02232310539F185
:1059A00090E080E030E020E0F2CFCF019927E130B5
:1059B00059F08230910559F0EAE6FBE0892B81F736
:1059C000849190E09F01E3CFEEE4FBE0F9CFE0E4C7
:1059D000FBE0F6CF6330710518F7880F991FFC01C3
:1059E000E750FE4F2081318189E090E0D0CF6330D5
:1059F0007105B0F6FB01EE0FFF1FED50FE4F208149
:105A0000318180519E4FFC01808190E0C0CF82E1C6
:105A100090E029EC3BE0BBCF80E189BD82E189BD0C
:105A200009B400FEFDCF8091D8008F7D8093D8000F
:105A30008091E00082608093E0008091E00081FD31
:105A4000FCCF0895AF92BF92CF92DF92FF920F9357
:105A50001F93CF93DF936C01EB018A010E94792E93
:105A6000F82E811123C00115110539F0F80180814C
:105A70009181C81BD90BC80ED91EB12CA12C20971F
:105A8000A9F08091E80085FD22C08091E8008E7722
:105A90008093E80001151105A1F0F8018081918142
:105AA0008A0D9B1D9183808385E0F82E8F2DDF91D9
:105AB000CF911F910F91FF90DF90CF90BF90AF904B
:105AC00008950E94792E8823D1F2F82EEFCFF601A7
:105AD00081916F018093F1002197FFEFAF1ABF0A08
