:100000000C9421020C9468020C9468020C94971DC5
:100010000C9468020C9468020C9468020C946802B8
:100020000C9468020C9468020C94E8240C94BB2590
:100030000C946F200C9468020C9468020C94680273
:100040000C9468020C9468020C9468020C94680288
:100050000C9468020C9401210C9468020C946802C0
:100060000C9468020C9468020C9468020C94680268
:100070000C9468020C9468020C9468020C94680258
:100080000C9468020C9468020C9468020C94680248
:100090000C9468020C9468020C9468020C94680238
:1000A0000C9468020C9468020C9468020005010527
:1000B0000205030504050505000601060206030600
:1000C00004060506000701070207030704070507E2
:1000D00000080108020803080408050800090109CE
:1000E00002090309040905090000010002000300D8
:1000F00004000500000101010201030104010501E2
:1001000000020102020203020402050200030103CD
:1001100002030303040305030004010402040304AF
:100120000404050435001E001F00200021002200E9
:10013000290014001A000800150017002B00040005
:100140001600070009000A00E1001D001B00060060
:1001500019000500E300E200E00001512C00A800B6
:100160002D00270026002500240023002A0013006C
:1001700012000C0018001C00340033000F000E00A9
:100180000D000B00E50038003700360010001100AC
:10019000E700E600E40001512900000035001E00E0
:1001A0001F0020002100220029002B001A00090056
:1001B00013000A002B000400150026022F0207007E
:1001C000E100E1001B00060019000500E300E20069
:1001D000E30001002A00A8003500270026002500C2
:1001E000240023002A0033001C0018000F000D001B
:1001F000340012000C00270230020B00E50038002A
:100200003700360010000E00E700E600E4000100B1
:100210002800000001003A003B003C003D003E0089
:1002200035001E001F0020002100220001001E02D8
:100230001F0220022102220201002E002D002E02A8
:100240002F02300201000100010001000100010045
:10025000440043004200410040003F0045002700A9
:100260002600250024002300310227022602250251
:1002700024022302010031003302330030002F003A
:100280000100010001000451010001000100010012
:100290000100010001000100010049004600650065
:1002A000000000000100E200E000E1000000390071
:1002B00001001D011B0106011901000001000100E0
:1002C00001000451010001000100010001000100D2
:1002D000010001002A002A014F01520050014B0089
:1002E0002A004C004F00510050004E000100000059
:1002F0004D0000004A000000010001000100010063
:1003000001000100000000000000000000000000EB
:10031000005C000000520152015D0000000000007E
:10032000015D00000000000000000000000000006F
:1003300000000000010001000100010001000000B8
:1003400000000000000000000000000000000000AD
:10035000000000000000000000000000A900A8004C
:10036000AA00000000000000AB00AE00AC000000DE
:1003700001000100010001000100000000AE00AF1B
:1003800000DA0281FFD9F1DB20A4A62EAF00A0C0C5
:1003900000A1C800AED580A81FD300408D14200056
:1003A0000C0353006F0066006C00650000001A0328
:1003B0004A006F0073006500660041006400610040
:1003C0006D00630069006B0000000403090409026A
:1003D0002200010100A0FA0904000001030101004C
:1003E0000921110100012240000705810308000ACC
:1003F000120100020000000832FC87020100010225
:10040000000105010906A101050719E029E715000A
:10041000250195087501810295017508810105077F
:10042000190029FF150026FF0095067508810005B3
:10043000081901290595057501910295017503912A
:1004400001C011241FBECFEFDAE0DEBFCDBF04B67E
:1004500003FE27C08091D2049091D304A091D404CC
:10046000B091D5048730904BA740B04BD1F4109297
:10047000D2041092D3041092D4041092D50414BE66
:1004800084B7877F84BF0FB6F894A89580916000E9
:10049000886180936000109260000FBEE0E0F8E396
:1004A000099511E0A0E0B1E0ECE6F0E502C00590AE
:1004B0000D92A439B107D9F724E0A4E9B1E001C055
:1004C0001D92A23DB207E1F70E94A0160C940828E5
:1004D0000C94000081E0089581E008950C946C0272
:1004E00008950C9470021F93CF93DF9300D000D037
:1004F0000F92CDB7DEB749835A836B833091A00149
:1005000089819A8131111DC06623B9F02223A9F097
:100510000E940B0A182F682F89819A810E94B409C2
:1005200069817A81812F0F900F900F900F900F901B
:10053000DF91CF911F910C94DA100E94E209182FDD
:10054000EFCF0E940B0A69817A81EDCFFC01262F43
:10055000408151816281738184810C94730281E0B6
:100560000895CF93DF93D82FC92F60E00E94A60291
:100570006D2F7C2FDF91CF910C9471020E94D011CE
:100580000E942F030C9409120C940C1208950E94DF
:100590008D070E94C6022FEF84E39CE0215080402B
:1005A0009040E1F700C000000C9425210F931F93A9
:1005B000CF93DF938C0161E00E94A602EC01B801A9
:1005C0000E946E028823A9F1B801CE010E94881A08
:1005D000882379F1B801CE010E94DD1A882349F100
:1005E000B801CE010E94B51B882319F1F801828160
:1005F000882361F0CB35FDE5DF0721F170F4C115EB
:10060000ECE5DE07A1F0CF3DDC45C9F0C801DF9184
:10061000CF911F910F910C946A02CC358DE5D807CC
:10062000A1F0CD35DD4591F70E948E0DEFCF0E94F0
:10063000C70280E0DF91CF911F910F9108950E9432
:10064000F40EF7CF0E94970DE1CF0E949A0DDECFF6
:1006500008950C94280381E008950C942B030895C9
:10066000CF93C82F0E9429038C2FCF910C942D0378
:10067000CF93DF93EC018881598121E030E0082E8F
:1006800001C0220F0A94EAF7A52FB0E0AA56BE4F88
:100690004C919A819923D9F09091A2019923D1F09C
:1006A00090E066E0569F800D911D1124880F991FE0
:1006B000FC01E355FF4FE491E983FC01E455FF4F52
:1006C000E491E883422B4C93DF91CF910895942FCE
:1006D0009223E4CF20954223F6CFEF92FF920F931F
:1006E0001F93CF93DF93CDB7DEB72B970FB6F89458
:1006F000DEBF0FBECDBF042F4F83152F58876987EC
:100700007A878B87EA84FB8461110E94BF0DEF28F2
:1007100019F010231F3F79F51E8285E0FE01379600
:10072000DE01119601900D928A95E1F789819A81F7
:100730002C813D81232BA9F449815A816B817C81D5
:100740008D819E810E94970C2B960FB6F894DEBF88
:100750000FBECDBFDF91CF911F910F91FF90EF9012
:10076000089589238F3F41F3CE0101960E94AF0285
:100770008111E2CFE9CFCE0107960E943803CCCF9A
:10078000FC01808191810E944D0A92959F70963064
:1007900051F4863F41F08091A20191E08927809336
:1007A000A2019093A1010895CF93C82F882329F126
:1007B0008CEF8C0F813AA0F46C2F80910001909106
:1007C00001010E94731F882329F08C2F0E94380D8D
:1007D0000E94E20D8C2F0E94310DCF910C94E20DFE
:1007E00080E28C0F883048F4C77081E001C0880F28
:1007F000CA95EAF70E94A00DF0CFCF910895882303
:1008000029F19CEF980F913A20F40E94380D0C9436
:10081000E20D90E2980F983050F4877091E001C09B
:10082000990F8A95EAF7892F0E94A60DF0CF9BE5D4
:10083000980F933020F490E080E00C94351F885A94
:10084000873120F490E080E00C944B1F08951F93B3
:10085000CF93DF93182FEB010E94D403209731F43C
:10086000812FDF91CF911F910C94FF038FE99FE0BF
:100870000197F1F700C000002197F0CF6AE070E027
:10088000893311F460E570E00C942704882321F08B
:100890000E94A00D0C94E20D0895882321F00E947F
:1008A000A60D0C94E20D08956F927F928F929F9205
:1008B000BF92CF92DF92EF92FF920F931F93CF934D
:1008C000DF9300D000D000D0CDB7DEB77C016D83C0
:1008D000072FFC01F281FE83FC01D580D2944FE00A
:1008E000D4220E94750DC82E8823C9F06E80662020
:1008F00009F445C0802F807F803449F09D81905E4F
:100900009830E8F1803619F42D81263FC1F182E05C
:100910000E94330E0E94750D91E0C82EC926B02E9C
:10092000B2943FE0B32238E0B31609F4F7C03B15A8
:1009300008F467C083E08B1520F1802F807F102F93
:100940001F7091E09B1508F071C0803211F0129574
:10095000107F9D80992009F49DC0292D213009F434
:10096000BCC06E80662009F4C6C0DD2009F4BCC09E
:10097000F701858180FF6FC08F708583B5C0C12C62
:10098000CECFE6E0BE1609F4FFC12B2D2850330B65
:100990002430310520F40E94171F0E9430036E801E
:1009A000662041F0007F003619F42D81263F11F0BA
:1009B0000E94680DCC2009F453C20E944B0D80FDAB
:1009C0004FC2F70112820E94450D0E94A408C70180
:1009D0000E945B070E94450D26960FB6F894DEBF75
:1009E0000FBECDBFDF91CF911F910F91FF90EF9080
:1009F000DF90CF90BF909F908F907F906F900C94DE
:100A0000D508F9E0BF1609F445C186E08B0D8F705B
:100A1000823008F0BACF2D81223F09F04CC1802FDF
:100A20008F716E80662009F480C142C1882311F065
:100A30001295107F6E806620B1F0112361F08D81D8
:100A4000805E883018F07D80711009C0812F0E946F
:100A5000A00D0E94E20D8D810E94D40396CF812FBC
:100A60000E94B10DF6CF8D810E94FF03112309F47E
:100A70008CCF8D81805E883018F08D80811006C00B
:100A8000812F0E94A60D0E94E20D7FCF812F0E9430
:100A9000B70DF9CF6E80662091F0D11006C00E948C
:100AA000C50D812B0E94460470CF77247394D71014
:100AB000F6CF0E94C50D812B0E94CB0D66CFD110C1
:100AC00006C00E94D80D812F0E944D045ECF88245D
:100AD0008394D81409F459CFF4CF9E80992031F033
:100AE00025E02D1508F451CF812FDCCF34E03D15E2
:100AF00008F44BCFE8CFDD2031F3FD81F93309F065
:100B00003BC12FEF37EE83E0215030408040E1F7CA
:100B100000C000008D810E94FF0337CF802F8370BB
:100B200009F059C06E80611030CF2D812295269535
:100B30002770220F220F4D814F7050E070E060E06F
:100B4000022E04C0440F551F661F771F0A94D2F768
:100B50007D8080E090E0DC0174FE0FC08FE090E0CB
:100B6000A0E0B0E004C0880F991FAA1FBB1F2A9500
:100B7000D2F780959095A095B095202F2695269533
:100B800023703C014D01642A752A862A972A6982BE
:100B90007A828B829C82223081F02330A9F021302E
:100BA00029F0C401B3010E941A08EFCE69817A814D
:100BB0008B819C810E94F207E8CE69817A818B81CA
:100BC0009C810E944208E1CE69817A818B819C815F
:100BD0000E94F007DACE7E80772009F443C000FF40
:100BE000D4CE2D81229526952770220F220F4D817C
:100BF0004F7050E070E060E0022E04C0440F551FBB
:100C0000661F771F0A94D2F78D8080E090E0DC01A8
:100C100084FE0FC08FE090E0A0E0B0E004C0880F39
:100C2000991FAA1FBB1F2A95D2F780959095A09572
:100C3000B095202F2695269523703C014D01642AFE
:100C4000752A862A972A69827A828B829C82223030
:100C500099F02330C1F0213041F0C401B3010E946A
:100C6000630993CE01FF91CEBCCF69817A818B81DC
:100C70009C810E943B0989CE69817A818B819C810C
:100C80000E948B0982CE69817A818B819C810E942E
:100C90006E087BCE102F1F707E80772029F0812F69
:100CA0000E94A4088D81FECE8D810E944D04812F6B
:100CB0000E94D5086ACE2D81233F68F4203FE9F0D9
:100CC000213F71F16E80662009F449C0D110C3CE76
:100CD000802F8F712AC03D81333F51F1343F91F70E
:100CE0008E80882081F1102F1F71812F0E94A4080F
:100CF00063E0812F0E94180E48CE6E80662051F06E
:100D000024E0722E7D1408F440CE802F8F710E9453
:100D10000A093BCE95E0892E8D1408F436CEF5CF26
:100D2000802F8F719E80992019F20E94A4082DCEE9
:100D30007E80772029F0802F8F710E947F0825CE3A
:100D40000E947A0822CE81E00E94330E9924939467
:100D50009D1408F01ACE82E00E94330E16CEDD20DC
:100D600081F02D81293341F43FEF87EE93E031503C
:100D700080409040E1F7CCCEEFE3FCE93197F1F70A
:100D8000C7CE802F8F7194CFED81E05FE730D8F52B
:100D9000F0E0E65FF74D0C94AA276E80662009F418
:100DA000F4CD8091A20191E089278093A201EDCD3D
:100DB0007E807092A201E9CD81E08E808825F5CFFA
:100DC0009E809110E2CD81E0F0CF6E806110DDCD8C
:100DD0001092A201DACD7E80772019F00E944F0D8B
:100DE000D4CD0E945B0DD1CD8E80882039F08091CA
:100DF000A1018823B1F21092A101C7CD84E0982E01
:100E00009D1478F6C2CD8091A101DD20E1F0882308
:100E100041F08091A20191E089278093A201109274
:100E2000A1016E80611017CE8FE39CE90197F1F765
:100E300000C000008D810E94FF0386E0F70111923F
:100E40008A95E9F7A2CD882309F49FCD6E806110C1
:100E50009CCD8091A20191E089278093A201CBCF04
:100E600026960FB6F894DEBF0FBECDBFDF91CF91AF
:100E70001F910F91FF90EF90DF90CF90BF909F90C8
:100E80008F907F906F9008950F931F93CF93DF9370
:100E9000EC01688179818A810E94590A8C010E9443
:100EA000B3090E94EF07B801CE01DF91CF911F91E6
:100EB0000F910C945404CF93DF93EC0198818981B6
:100EC0002B813C81232B19F089238F3F59F4DF912B
:100ED000CF910895CE010E944407CE01DF91CF91BA
:100EE0000C94B102CE010E94D6028111F3CF0E9470
:100EF000750D882361F38A81882349F382E0DF91AD
:100F0000CF910C94330E0E94BF0D0E94C20D0C9421
:100F1000E20D0E943F0D0C9483070E94AE0D0C94CD
:100F20008907282F892F82958F70903C80F48A3012
:100F3000B0F4843020F4823090F480E0089586305C
:100F4000E1F781E0283E88F0213FB9F70EC08C30F0
:100F500011F08F3091F793FB882780F9089581E095
:100F6000203F39F018F4283E40F70895243F29F730
:100F7000FCCF0895FC01808191810E944D0A0C9460
:100F80009107CF93DF9300D000D00F92CDB7DEB79B
:100F90000F900F900F900F900F90DF91CF910895C9
:100FA000CF93DF9300D000D000D0CDB7DEB7269628
:100FB0000FB6F894DEBF0FBECDBFDF91CF9108957D
:100FC00008950C94E0070E94E1076093CF017093AD
:100FD000D0018093D1019093D2010C94830708959E
:100FE0000C94E307CF93DF9300D000D0CDB7DEB7EA
:100FF00069837A838B839C838091CF019091D00108
:10100000A091D101B091D20129813A814B815C81BB
:10101000282B392B4A2B5B2B29833A834B835C8308
:10102000CA01B9010F900F900F900F90DF91CF91EF
:101030000C94E307CF93DF9300D000D0CDB7DEB799
:1010400069837A838B839C838091CF019091D001B7
:10105000A091D101B091D20129813A814B815C816B
:10106000282339234A235B2329833A834B835C83D8
:10107000CA01B9010F900F900F900F90DF91CF919F
:101080000C94E307CF93DF9300D000D0CDB7DEB749
:1010900069837A838B839C838091CF019091D00167
:1010A000A091D101B091D20129813A814B815C811B
:1010B000282739274A275B2729833A834B835C8378
:1010C000CA01B9010F900F900F900F90DF91CF914F
:1010D0000C94E3070C94E0070C946A080E946C08D7
:1010E0006093CB017093CC018093CD019093CE019E
:1010F0000C94830760E070E0CB010C946E080F93B2
:101100001F93CF93DF9300D000D0CDB7DEB741E07F
:1011100050E060E070E08A019B0104C0000F111FE5
:10112000221F331F8A95D2F709831A832B833C83AE
:10113000C901B8010F900F900F900F90DF91CF91E0
:101140001F910F910C946E080F931F93CF93DF9311
:1011500000D000D0CDB7DEB741E050E060E070E0F5
:1011600004C0440F551F661F771F8A95D2F78091E0
:10117000CB019091CC01A091CD01B091CE018A011B
:101180009B01082B192B2A2B3B2B09831A832B83BA
:101190003C83C901B8010F900F900F900F90DF9121
:1011A000CF911F910F910C946E080F931F93CF93C3
:1011B000DF9300D000D0CDB7DEB741E050E060E073
:1011C00070E004C0440F551F661F771F8A95D2F741
:1011D00040955095609570958091CB019091CC0190
:1011E000A091CD01B091CE018A019B010823192362
:1011F0002A233B2309831A832B833C83C901B8012B
:101200000F900F900F900F90DF91CF911F910F9142
:101210000C946E080F931F93CF93DF9300D000D0F0
:10122000CDB7DEB741E050E060E070E004C0440FAD
:10123000551F661F771F8A95D2F78091CB01909139
:10124000CC01A091CD01B091CE018A019B0108276C
:1012500019272A273B2709831A832B833C83C9013B
:10126000B8010F900F900F900F90DF91CF911F91C9
:101270000F910C946E08CF93DF9300D000D0CDB7C0
:10128000DEB769837A838B839C838091CB019091B5
:10129000CC01A091CD01B091CE0129813A814B8141
:1012A0005C81282B392B4A2B5B2B29833A834B8378
:1012B0005C83CA01B9010F900F900F900F90DF91DE
:1012C000CF910C946E08CF93DF9300D000D0CDB7B0
:1012D000DEB769837A838B839C838091CB01909165
:1012E000CC01A091CD01B091CE0129813A814B81F1
:1012F0005C81282339234A235B2329833A834B8348
:101300005C83CA01B9010F900F900F900F90DF918D
:10131000CF910C946E08CF93DF9300D000D0CDB75F
:10132000DEB769837A838B839C838091CB01909114
:10133000CC01A091CD01B091CE0129813A814B81A0
:101340005C81282739274A275B2729833A834B83E7
:101350005C83CA01B9010F900F900F900F90DF913D
:10136000CF910C946E080895E92FEE0FE90FEE0F60
:10137000E80F8E2F877041E001C0440F8A95EAF78D
:10138000E695E695E69585E0E89FF0011124ED5598
:10139000FE4F30E020E070E05191DF011197CB016A
:1013A000022E02C0969587950A94E2F78170819586
:1013B0008527842385278C932F5F3F4F2530310568
:1013C00059F70895E92FEE0FE90FEE0FE80F9E2F62
:1013D0009770E695E695E69585E0E89FF001112483
:1013E000ED55FE4F50E040E080E0219130E0092EC5
:1013F00002C0369527950A94E2F721703327042E10
:1014000001C0220F0A94EAF7822B4F5F5F4F4530ED
:10141000510559F70895BF92CF92DF92EF92FF9254
:101420000F931F93CF93DF938C01C090CB01D0908B
:10143000CC01E090CD01F090CE018091CF01909150
:10144000D001A091D101B091D201C82AD92AEA2AAB
:10145000FB2ACFE1D0E0BC2ED701C6010C2E04C080
:10146000B695A795979587950A94D2F780FD0EC0FB
:10147000219788F7B12C8B2DDF91CF911F910F9180
:10148000FF90EF90DF90CF90BF900895B8018C2F20
:101490000E94EE10019761F3EECFCF93DF93D82F28
:1014A000C92F0E940B0A6D2F7C2FDF91CF910C94D6
:1014B000EE101F93CF93DF93162FD72F9091A0019B
:1014C000992339F0862F972FDF91CF911F910C949C
:1014D0004D0A882391F0862F972F0E940B0AC82F60
:1014E000682F812F9D2F0E94B409612F7D2F8C2F93
:1014F000DF91CF911F910C94EE10862F972F0E94B1
:10150000E209C82FF2CF1F93CF93DF93E091D3016D
:1015100016E08091D4018E1304C0DF91CF911F910A
:101520000895CE2FD0E01E9FF0011124EB52FE4F04
:101530004081518162817381848195810E94D007AD
:101540002196EC2FE770E5CF4091050250910602FD
:1015500060910702709108028091090290910A023D
:101560000C94D0071F93CF93DF9380910A02807F62
:10157000A9F480910702882389F08091D301C0915A
:10158000D4017091050260910602A0910802B09109
:101590000902D62FD72316E0C81304C0DF91CF91DC
:1015A0001F91089590E0109711F0DF3F19F4019614
:1015B0008770F2CF189F9001199F300D1124F90107
:1015C000EB52FE4F41816413F2CF40814713EFCFBE
:1015D00042814111ECCF438154814A1B5B0B44365D
:1015E000510528F780910A028F70806180930A026A
:1015F000F901E652FE4F80818F708061808385E023
:1016000092E00E945B07DF91CF911F910C94830AB7
:10161000AF92BF92CF92DF92EF92FF920F931F9300
:10162000CF93DF93CDB7DEB72B970FB6F894DEBF1D
:101630000FBECDBF8C0185E0F801DE011796019049
:101640000D928A95E1F7F801E280C380D48085E0AD
:10165000A82E82E0B82E20910502909106024091BA
:101660000802509109024115510529F0892F822362
:101670008F3F09F049C1EE2009F455C1C8010E940D
:10168000BA07F82E882309F44EC186E0F801A5E0D8
:10169000B2E001900D928A95E1F785E092E00E9418
:1016A000C0030E94B20A00C180910A02682F607FC5
:1016B0004436510508F0A8C0F80131816111E0C03D
:1016C000FE2C391325C09081921322C0E11020C056
:1016D0008F70806180930A020E94A40A85E092E0E4
:1016E0000E945B0780910A02F80185838F2D2B965B
:1016F0000FB6F894DEBF0FBECDBFDF91CF911F9123
:101700000F91FF90EF90DF90CF90BF90AF90089532
:101710002F81CD2829F0832F82238F3F09F0ADC080
:1017200080E0F82FF170DF2EE091D3014091D401D9
:1017300056E080FD1CC0EE20C9F280910A02816053
:1017400080930A02F12CD2CF8E2F90E05E9FF001A1
:101750001124EB52FE4F6181361306C06081621383
:1017600003C06281E612E7CF0196E82FE770E41329
:10177000EBCF8F8198850E944D0A292F22952F70DB
:10178000903260F0225F2F70223078F49F7051F019
:10179000F8019581907F31F4D12C0AC09F7011F02F
:1017A0008823D1F3805E8830B8F3C8010E945B07BC
:1017B000FD2C9CCFC8010E94BA07882309F4B3C04E
:1017C000EE2009F4B0C080910A02803270F02091BE
:1017D0000502309106023A8329831B82DD82CC8286
:1017E0008E83CE0101960E945B0786E0F801A5E09A
:1017F000B2E001900D928A95E1F70E94B20A0E9430
:10180000A40AFF24F39472CF611151C04F8158850F
:1018100069857A858B850E94C10785E092E00E94E8
:101820005B0786E0F50111928A95E9F70E94A40A08
:1018300089CF86E0F801A5E0B2E001900D928A958B
:10184000E1F754CFC8010E94BA078111CECF809131
:101850000A02816080930A02C8010E945B0746CF9A
:101860004F81588569857A858B850E94C10786E0FE
:10187000F50111928A95E9F717C081E08E2551CFC5
:10188000391398CFF8019081921394CFE11092CF41
:101890008583C8010E945B0786E0F801A5E0B2E0FD
:1018A00001900D928A95E1F70E94A40A1FCFF801DA
:1018B000318193137FCFF801908192137BCFE11098
:1018C00079CF8583C8010E945B0786E0F5011192FC
:1018D0008A95E9F70BCFF80181819813B3CFF8010E
:1018E00080818213AFCF80910A0280FDA2CF982F12
:1018F000907F09F49ECF8583903F59F2982F907F77
:10190000905F8F70892BC4CFF0900702B601641BE3
:10191000750BAB01F110C8CE4436510508F0A0CFCD
:10192000FE2CE110D8CFC8010E945B076ACF1F933D
:10193000CF93DF93CDB7DEB72C970FB6F894DEBF09
:101940000FBECDBF4F83588769877A878B879C8767
:10195000CE0107960E94080B882369F08A859B8533
:10196000892B39F058854F81852F84238F3F09F0CB
:1019700071C016E05FC086E0FE013796DE01119669
:1019800001900D928A95E1F78F8198852091D4017D
:101990004091D3016A857B85672B59F389238F3F5B
:1019A00041F330E0C901019687709927481719065D
:1019B00071F40E948D071092D4011092D30186E039
:1019C000E5E0F2E0DF011D928A95E9F7D2CF96E0DB
:1019D000929FD001939FB00D1124AB52BE4FFE01D8
:1019E000319601900D929A95E1F78093D4010E946F
:1019F000830ABFCF819FC00111248B529E4F0E944A
:101A0000080B8823E9F0E091D3011E9FF001112417
:101A1000EB52FE4F408151816281738184819581B7
:101A20000E94D0078091D30190E00196877099279A
:101A30008093D3018091D3019091D4018913DACF9F
:101A40002C960FB6F894DEBF0FBECDBFDF91CF91BD
:101A50001F91089569857A858B859C850E94D007A2
:101A600088CF682F80910001909101010C94AD1FE7
:101A7000682F80910001909101010C94AF1F80911B
:101A80000001909101010C94B11F80910C02859589
:101A900085958595089580910C028770089582E060
:101AA00080930B0281E08093A201089510920B02B3
:101AB0001092A201089580910B02823021F481E0FE
:101AC00080930B020895833011F40C94560D089501
:101AD00080910B02823021F483E080930B02089501
:101AE000813011F40C94560D089590910C0297706A
:101AF00081E009F480E0089590919D0292FB2227F5
:101B000020F9281751F080FB92F990939D02809163
:101B10009C0290919D020C94700E089580919D02FC
:101B200082FB882780F991E089270C947C0D81E065
:101B30000C947C0D80E00C947C0D8091180208952B
:101B400090911802982B909318020895982F9095D1
:101B50008091180289238093180208951092180228
:101B6000089590911702982B909317020895982F3B
:101B700090958091170289238093170208951092FF
:101B80001702089510921602089580910D0208958B
:101B900008950C94C80D90919D0292FD08C09091FB
:101BA0000D02981721F080930D020C94C90D089531
:101BB00080910D02882329F010920D0280E00C9490
:101BC000C90D0895E0910001F09101018091180282
:101BD0008083E0910001F0910101808190911702D2
:101BE000892B8083E0910001F09101018081909127
:101BF0001602892B808390910D02992381F0E09148
:101C00000001F09101018081892B80838091000186
:101C1000909101010E94611F81110E94D80D809155
:101C20000001909101010C942A1F08950C94150E47
:101C300090919D0292FD10C098E0899F900111241F
:101C4000622B60930C020E94A40880910C0285957F
:101C5000859585950C94160E0C94A40810920C0290
:101C600080E00C94160E90910C028095892380934D
:101C70000C02282F277039F4282F082E000C330B64
:101C80009217130621F490919D0292FF07C085954B
:101C9000859585950E94D5080C942E0E089590E0A8
:101CA00080E00E94CE279C0181E0293E3E4F09F052
:101CB00080E0089582E090E00C94C62783E090E0F5
:101CC0000C94C627CF9384E090E00E94C627C82FCB
:101CD00082E290E00E94C627982F8C2FCF91089522
:101CE000CF93682FC92F84E090E00E94D4276C2FF7
:101CF00082E290E0CF910C94D427AB01BC018FE03D
:101D000090E00C94E627AB01BC0183E190E00C94D9
:101D1000E62760E070E0CB010C94830E60E070E099
:101D2000CB010E947D0E0C94890E69EE7EEF90E04F
:101D300080E00E94F22760E082E090E00E94D427D9
:101D400060E083E090E00E94D4271092CF011092CF
:101D5000D0011092D1011092D20160E084E090E0B5
:101D60000E94D42760E082E290E00E94D42760E0E5
:101D700085E090E00E94D42760E086E090E00E9439
:101D8000D4276FEF87E090E00E94D42740E050E036
:101D9000BA0188E090E00E94E62760E08DE090E0E4
:101DA0000E94D42740E050E0BA0188E190E00E9410
:101DB000E62760E087E190E00E94D42740E050E011
:101DC000BA018CE190E00E94E62770E060E080E2DA
:101DD00090E00E94F22740E050E0BA0188E190E0F4
:101DE0000E94E6270C948E0E0C94950E682F8EE0C0
:101DF00090E00C94D4270E94AB2060932C02709347
:101E00002D0280932E0290932F02609328027093EC
:101E1000290280932A0290932B0208950E94AB20FE
:101E200060932C0270932D0280932E0290932F02C8
:101E300060932402709325028093260290932702D8
:101E4000089585B7806885BF85B7806885BF089588
:101E5000089508950C94280F08950C942C0F0E9457
:101E6000210F8DEC91E10E9436210E94290F0C94E4
:101E70002A0F0C94E113089508950E943B0F0C94CF
:101E80003C0F0E9496200E94B91F0E94BF120E9420
:101E9000C21780E00E941F180E94AF160C942D0FED
:101EA0009F92AF92BF92CF92DF92EF92FF920F93E9
:101EB0001F93CF93DF9300D000D00F92CDB7DEB742
:101EC0000E944E13D82E81110E94FB0E8AE1A82E8B
:101ED00082E0B82E10E000E0902E802F0E940E12BB
:101EE000F82EF501E1905F01E81609F459C08091E0
:101EF000300281FD0E9414128E2D8F25C12CEE24FC
:101F0000E394982F9E2109F446C00E94390F88233C
:101F100099F0C9829A82FE2081E009F480E08B83E7
:101F20000E949F208160782F9D838C8349815A81F4
:101F30006B81892F0E946D03F801E65EFD4F808161
:101F40008E2580830E941417182F81110E940E0F76
:101F50000E94CB19D11001C011110E9488180E9453
:101F6000171F90911902891791F10E94171F8093F2
:101F700019020F900F900F900F900F90DF91CF915B
:101F80001F910F91FF90EF90DF90CF90BF90AF9097
:101F90009F900C943003C394EE0CF6E0CF12B1CFB7
:101FA0000F5F1F4F0A30110509F096CF8FEF89831D
:101FB0008A831B820E949F208160782F9D838C835F
:101FC00049815A816B81892F0E946D03BBCF0F908D
:101FD0000F900F900F900F90DF91CF911F910F9165
:101FE000FF90EF90DF90CF90BF90AF909F900895BB
:101FF000CF93DF930E94F210EC01811523E5920745
:10200000E0F5811532E5930708F0ABC0C11580E219
:10201000D807E8F4CF3FD10509F068F4C53AD105F7
:1020200070F4C430D10538F481E0219709F080E0E4
:10203000C82F20E0D22FCE01DF91CF910895CE019D
:10204000805E91090897B8F3D0E0C0E0F4CFC115E5
:1020500031E5D30768F4C11580E5D80708F064C0FE
:10206000CE0190548115904178F7DF70D06AE3CFAC
:10207000DC2FCC27C16FD06ADECF811537E59307FF
:1020800068F5C11586E5D80708F091C0C11525E5AA
:10209000D207C8F4C11534E5D30708F075C09E0116
:1020A0002370332781E090E002C0880F991F2A95A2
:1020B000E2F7C695C69520E2C29FE0011124C82B25
:1020C000D92BDA68B8CF8C2F0E948A11C82FD0E0A4
:1020D000DC2FCC27CC27DF71D062ADCF81153AE55C
:1020E000930788F4C11589E5D80708F052C0CE01DE
:1020F00098558F3F910511F008F0A6CFDC2FCC2723
:10210000C06FD06A98CF90568115904208F09CCF4E
:102110008D2F8F710E948A1190E0982F8827882731
:102120009F718C2BEC01D8CF9E0164E036952795EA
:102130006A95E1F723708C2F86958695837030E23F
:10214000839FC0011124922BC37021E030E002C0B4
:10215000220F331FCA95E2F7822B932BEC01DC6828
:102160006ACF9C012370332781E090E002C0880F82
:10217000991F2A95E2F7C695C69520E2C29FE00115
:102180001124C82BD92BEBCFDC2FCC27C46FD06AFE
:1021900052CF8C2F8F700E948A1134E0D695C7954C
:1021A0003A95E1F7CF709C2FEC01D06944CFDD2741
:1021B000D06641CF972F70E026E0929F600D711D91
:1021C0001124FB019CE3899FE00DF11D1124EE0F0A
:1021D000FF1FEC5DFE4F8591949108950E94DA10E7
:1021E0000C94F80F803E910599F1C8F48133910564
:1021F00009F476C048F48932910509F46AC08A323C
:10220000910509F474C0089589339105D1F082389D
:102210009105B9F08533910509F454C00895843EC1
:10222000910599F138F4823E9105F9F0833E9105CC
:1022300009F10895863E910599F1873E9105B9F11E
:10224000089520919C022370A1F080EE90E0089503
:1022500020919C0220FD52C030919D0230FF09C0A8
:1022600024FF4FC090E080E004C020919C0222FD3A
:10227000F7CF089520919C0222FD46C030919D0227
:1022800030FDE3CF24FFF5CFEDCF20919D0221FF5C
:10229000F0CF80919C0284FDE5CF87EE90E0089519
:1022A00020919C0223FFE5CF24FDDCCFF6CF2091C7
:1022B0009C0223FD2CC030919D0231FFE3CF84EEC0
:1022C00090E0089520919C0225FFD3CF89E290E011
:1022D000089520919C0225FFCCCF85E390E00895DE
:1022E00020919C0226FFC5CF8AE290E008952091BC
:1022F0009C0226FFBECF81E390E0089589E390E041
:10230000089583EE90E0089582EE90E0089586EEC1
:1023100090E0089590919C0292FF06C0282F2871AA
:102320002830F9F4877F846093FF06C0282F287136
:102330002831F1F4877E846120919D0220FF06C040
:10234000382F38713830D9F4877F816021FF06C07B
:10235000282F28712831D1F4877E816194FD877EF2
:102360000895282F24712430F9F68B7F8860DCCF04
:10237000282F2471243101F78B7E8861DDCF382F1F
:102380003171313019F78E7F8860E0CF282F2171AD
:10239000213121F78E7E8861E1CF80E00895089594
:1023A000CF93DF9300D000D0CDB7DEB70E944F0EA1
:1023B000811102C00E94F40E0E945A0E80933002D6
:1023C0000E94620E90939D0280939C020E94CF1106
:1023D0000E945E0E282F30E050E040E0CA01B901B3
:1023E0000E94F0078091CB019091CC01A091CD018A
:1023F000B091CE0189839A83AB83BC83BC01CD01AC
:102400000F900F900F900F90DF91CF910C946C086C
:1024100008950C94081208950C940B12E82FF0E024
:10242000E855FD4F80810895089580EA8A95F1F777
:10243000089500C008950C941512F894E82FE295C1
:10244000EF70F0E041A18F7021E030E0B90102C0EF
:10245000660F771F8A95E2F7CB01962F909594230C
:1024600091A392A1892B82A37894089508950C9446
:102470003612CF93DF93CFE4D1E089918F3F11F0F3
:102480000E941D1281E0C435D807B9F7C9E4D1E034
:1024900089918F3F11F00E941D1281E0CF34D8073F
:1024A000B9F7DF91CF910895CF92DF92EF92FF922B
:1024B0000F931F93CF93DF93EC01D62E062F10E0DE
:1024C000C801815B9E4F7C01FC0180818F3F09F434
:1024D0004BC0F894E82FE295EF70F0E091A18F7077
:1024E00021E030E001C0220F8A95EAF7892F822B84
:1024F00081A382A12095282322A378940E941912F7
:10250000E9E4F1E030E020E0C12C51E041914F3F9F
:10251000A1F1A42FA295AF70A05EB0E08C9190E0E5
:102520004F7002C0959587954A95E2F780FD25C0CA
:10253000952F022E01C0990F0A94EAF7C92A2F5F3E
:102540003F4F2630310511F7F70180818F3F11F0A1
:102550000E941D1261E0C11001C060E08D2D0E943B
:102560001B12C00FD11FC882DF91CF911F910F9115
:10257000FF90EF90DF90CF90089590E0DFCF0E9422
:10258000FB13809102018091020195E0811190E09E
:102590009093B30285E0891B8093B2020E943912A6
:1025A0008AE0EEE9F2E0DF01982F1D929A95E9F7B3
:1025B000E8EAF2E0DF011D928A95E9F785E00E94E2
:1025C000AA130E94BE020C940514FF920F931F934E
:1025D000CF93DF9300D000D00F92CDB7DEB70E942B
:1025E000E113F82E6091B302882309F44AC01A82DD
:1025F0001982FE01339683E0DF011D928A95E9F787
:10260000862F90E08E010F5F1F4FB80188559D4FB8
:102610000E941314E091B202F0E0882329F1BF0177
:1026200068557D4FD8019E012A5F3F4FF12CFB0179
:102630004191BF019D91491731F0AF0141505109BE
:10264000FA019083F82EA217B30789F70E94C402FB
:102650008F2D0F900F900F900F900F90DF91CF91D3
:102660001F910F91FF900895E855FD4F85E0DF0120
:10267000982F1D929A95E9F7D8011D928A95E9F74E
:10268000E5CF70E068557D4F8091B20290E08855AB
:102690009D4F0E94A9140E943712DACFDF92EF9269
:1026A000FF920F931F93CF93DF93CDB7DEB72A9797
:1026B0000FB6F894DEBF0FBECDBF1A821982FE019D
:1026C000339688E0DF011D928A95E9F7F12C8E019F
:1026D0000F5F1F4F6F2DC8010E945412F394D02E2C
:1026E000E12EB5E0FB12F6CF4AE050E0B8018EE9EA
:1026F00092E00E94B0278C0121E0892B09F420E0B0
:102700000115110549F08AE0ED2DFE2DAEE9B2E08C
:1027100001900D928A95E1F76091B30270E06855DF
:102720007D4F45E08EE992E00E94AB1381E090E09E
:10273000012B11F40E94E5122A960FB6F894DEBF21
:102740000FBECDBFDF91CF911F910F91FF90EF9002
:10275000DF9008950895FF920F931F93CF93DF9317
:10276000F82E092F162FD72FC42F222349F081E0EE
:10277000809333020E949F20909332028093310213
:10278000809133028823A1F080913102909132022E
:102790000E94CB20059760F0EF2DF02FA12FBD2FC9
:1027A000CF018C0F911DE817F90741F41092330205
:1027B000DF91CF911F910F91FF90089521912D935B
:1027C000F2CF80913602811107C00E9475278823BD
:1027D00051F081E08093360281E090913602913091
:1027E00009F080E0089582E0809336020E9470270D
:1027F000F3CF0C94E1130E94F913809302010E941D
:10280000E11381110C944B1408950E94E11381117E
:1028100002C00C944D14089581E0909137029A30D3
:1028200008F080E008950F931F93CF93DF93EC019E
:10283000162F072F809137028A30C0F4612F702F36
:10284000CE010E94A714C82F811122C080913702A7
:102850008F3FB9F40E949F209093350280933402F9
:102860008C2FDF91CF911F910F91089580913402A9
:10287000909135020E94CB20843F9140F8F6C0E051
:10288000EFCF8F5F809337028A3020F7C1E0E8CF27
:1028900010923702E5CF0C94501D0C94531DCF922B
:1028A000DF92EF92FF920F931F93CF93DF93FA0182
:1028B00069017801C82F880FDD0B3097B9F08AE0E5
:1028C0008C9FD0018D9FB00D1124AD5FBE4F13962C
:1028D0008D919C911497885C9D4F12964C9150E07D
:1028E000E417F50708F4AF010E94BD27CE010E944E
:1028F0005E1E892B11F5E114F104E9F08AE08C9F4A
:10290000F0018D9FF00D1124ED5FFE4F458150E0E9
:10291000E416F50608F4A7018AE08C9FF0018D9F6C
:10292000F00D1124ED5FFE4F66817781685C7D4F6D
:10293000C6010E94BD2781E001C080E0DF91CF91F8
:102940001F910F91FF90EF90DF90CF9008950C941E
:1029500023160C9450160F931F93CF93DF93CDB78C
:10296000DEB728970FB6F894DEBF0FBECDBF8091BB
:10297000550290915602A0915702B0915802BC01A5
:10298000CD010E94DA2011E06436710581059105C0
:1029900020F10E94EB1FDC01CB010296A11DB11DAD
:1029A00089839A83AB83BC8310E000E030E020E0B1
:1029B00044E050E0BE016F5F7F4F84E00E944F14FF
:1029C000182F882351F00E94AB206093550270931A
:1029D00056028093570290935802812F28960FB683
:1029E000F894DEBF0FBECDBFDF91CF911F910F9145
:1029F0000895AF92BF92CF92DF92EF92FF920F9322
:102A00001F93CF93DF93F82EE92ED62EC72E890180
:102A10000E940C14AA24A394B12C882319F08AE0F4
:102A2000A82EB12CC1E0D0E0F8946D2D7C2D8F2D17
:102A30009E2DF80109957894811104C02196AC1659
:102A4000BD065CF4DF91CF911F910F91FF90EF9045
:102A5000DF90CF90BF90AF900895CC9F9001CD9F15
:102A6000300D300D112490E080E045E34A95F1F7F8
:102A70000000019628173907C1F7D6CF6F927F92D1
:102A80008F929F92AF92BF92CF92DF92EF92FF927E
:102A90000F931F93CF93DF9300D000D00F92CDB749
:102AA000DEB7662E5A01722E832E902EC12E01E0C3
:102AB00010E09E012F5F3F4F50E040E070E060E08B
:102AC0000E944F14D82E882309F449C0D5018D9156
:102AD0009D910D90BC91A02DBC01CD010E94DA20EA
:102AE000643671058105910590F18701272D382DF8
:102AF00050E040E070E060E0862D0E944F14D82E38
:102B0000B701892D9C2D0E94C31791E029812813BC
:102B100090E0D92239F00E94AB20F50160837183E7
:102B2000828393838D2D0F900F900F900F900F90B5
:102B3000DF91CF911F910F91FF90EF90DF90CF9099
:102B4000BF90AF909F908F907F906F900895B70146
:102B5000892D9C2D0E94C31799818913C6CFA70187
:102B6000692D7C2D872D982D0E94BD27DBCFEF92FC
:102B7000FF920F931F93CF93DF930F92CDB7DEB7E2
:102B80000091590110915A01095F1F4FEE24E394FF
:102B9000F12C9E012F5F3F4F41E552E063E082E060
:102BA0000E943E15182F882321F0CE0101960E9425
:102BB0008317812F0F90DF91CF911F910F91FF907D
:102BC000EF900895CF92DF92EF92FF920F931F93B1
:102BD000CF93DF9300D000D00F92CDB7DEB76B015B
:102BE0000091590110915A010F5F1F4F85E0E82EA7
:102BF000F12C9E012F5F3F4F4DE452E061E080E0F9
:102C00000E943E15882349F095E0FE013196A8E424
:102C1000B2E001900D929A95E1F795E0E8E4F2E0D8
:102C2000D60101900D929A95E1F70F900F900F90B9
:102C30000F900F90DF91CF911F910F91FF90EF9028
:102C4000DF90CF9008950F931F93CF93DF93D82FEA
:102C5000C92F8B0122EE35E14BE551E00E94F914BA
:102C60008823C1F027EB35E148E651E0B8018D2F0C
:102C70009C2F0E94F914882369F02BEA34E140E785
:102C800051E0B8018D2F9C2FDF91CF911F910F91B3
:102C90000C94F91480E0DF91CF911F910F9108956A
:102CA0000F931F93CF93DF930F92CDB7DEB7FB0146
:102CB000F8940091590110915A01C801019625E03C
:102CC000DC0101900D922A95E1F765E070E00E9429
:102CD000C317F80180837894F894CE0101960E947E
:102CE0007A178981F801878361E070E0CE0101964F
:102CF0000E94C317F80186837894F89460857185E3
:102D000082859385009144021091450220914602EC
:102D100030914702601771078207930751F0609363
:102D200044027093450280934602909347020E94AA
:102D3000C21F78940F90DF91CF911F910F9108954A
:102D40000E941C200E9440220E9459220E946B2255
:102D50000E943D0FFBCF81E008950C94AB16CF93FA
:102D6000DF9380910201811106C084EF80933601C8
:102D700085EF8093350140913601A42FA295AF7065
:102D8000E1E2EA0FF0E030814F7081E090E0BC01B9
:102D9000042E01C0660F0A94EAF7262F20952323FC
:102DA0002083E2E2EA0FF0E02081262B208330919D
:102DB0003501E32FE295EF70C1E2CE0FD0E028811C
:102DC0003F70032E01C0880F0A94EAF7982F909560
:102DD00092239883C2E2CE0FD0E09881892B88831A
:102DE000A05EB0E02C91E05EF0E0808190E002C057
:102DF000959587953A95E2F78170880F30E002C08B
:102E0000359527954A95E2F72170822B80935E02D3
:102E10009091020181E0982790935A02891B809338
:102E20005902DF91CF910895CF9340913601E42F5D
:102E3000E295EF70E05EF0E0208130913501E32F04
:102E4000E295EF70E05EF0E0808190E03F7002C0BC
:102E5000959587953A95E2F7880F991F8270992783
:102E600030E04F7002C0359527954A95E2F7217002
:102E70003327822BE0915E02EE0FEE0FE82BE093FA
:102E80005E02C0915A02EF70F0E0E558FE4F80817B
:102E900090915D02890F80935D0220E0823064F0A2
:102EA000EC2FF0E0E55AFD4F80818F5F808360E07A
:102EB0008C2F0E94AD1621E080915D028F3F64F45B
:102EC000EC2FF0E0E55AFD4F80818150808361E076
:102ED0008C2F0E94AD1621E080915D02082E000C1F
:102EE000990B62E070E00E94962780935D02822F2A
:102EF000CF910895E0915A02F0E0E55AFD4F20810C
:102F0000FC0120830895FF920F931F93CF93DF93CB
:102F1000D09159020D2F10E0055A1D4FFC01C081C0
:102F2000F8018081C81BFC2E80E01F147CF09C2FD0
:102F3000C7FD90E0C91BC11114C08823E9F0DF91DF
:102F4000CF911F910F91FF900C940E0FFA94F801FE
:102F500080818F5F808360E08D2F0E94AD1681E0BD
:102F6000E4CFCF5FF80180818150808361E08D2FB5
:102F70000E94AD1681E0DFCFDF91CF911F910F91BD
:102F8000FF9008950895FC01680F791F8FEF91E37A
:102F90006E177F0709F408952191822728E030E019
:102FA00087FF06C0880F892721503109C9F7F0CF64
:102FB000880FFACFCF92DF92EF92FF920F931F9379
:102FC000CF93DF936C017B0164E670E088E70E9499
:102FD000E51BEC018601EC0CFD1C97FD0EC0F80111
:102FE000849164E670E00E945E1CEC01892B29F458
:102FF0000F5F1F4FE016F10691F70E94EB1CCE0108
:10300000DF91CF911F910F91FF90EF90DF90CF90C4
:1030100008950895E5EBF2E080E092E0DF019C0185
:103020001D9221503040E1F7F093BC04E093BB04C3
:103030008FEF9FEF90938502809384020895CF9342
:10304000DF9300D000D0CDB7DEB70E94091890E220
:1030500080FF90E88093800290937F020E94DF1BA4
:103060006DE070E083E993E00E94DA17892B41F06C
:1030700080E00F900F900F900F90DF91CF91089507
:103080008091800263E070E081FD28C080E993E0D8
:103090000E94DA17892B61F76DE070E080E893E019
:1030A0000E94DA17892B21F70E94AB20DC01CB01AB
:1030B000805A9541AF4FBF4F8093B7049093B804A7
:1030C000A093B904B093BA040E940A1881E08093D7
:1030D00083028093820210928102CBCF8DE893E02D
:1030E000D7CF20917F0236E0839FC0011124629FD9
:1030F000800D911D1124811522E0920714F090E0BB
:1031000080E08B549D4F9093BC048093BB04089542
:10311000CF93DF9300D000D0CDB7DEB7809183028C
:10312000811109C0809182020F900F900F900F9033
:10313000DF91CF9108950E94AB20DC01CB01805A32
:103140009541AF4FBF4F8093B7049093B804A093BD
:10315000B904B093BA04809182028111E3CF62E096
:1031600070E08EE793E00E94DA17892BD9F681E0B0
:1031700080938202D7CF2F923F925F926F927F927D
:103180008F929F92AF92BF92CF92DF92EF92FF9277
:103190000F931F93CF93DF9380918302882369F06D
:1031A00020918402309185022115310531F0809102
:1031B000810261E070E0882399F0DF91CF911F9147
:1031C0000F91FF90EF90DF90CF90BF90AF909F90C6
:1031D0008F907F906F905F903F902F9008958F5FBA
:1031E000082F10E01B01082E02C0220C331C0A9489
:1031F000E2F7A90142215321452B89F32091800256
:10320000922F917020FD45C09801369527953695EF
:1032100027958295880F80763FE1380F809339019A
:1032200020933C0130933A0190933D0124E630E035
:1032300047E050E067E371E088E70E948D1C892B2E
:1032400009F0BBCFA80125E0440F551F2A95E1F7EF
:103250008091800280FD25C04B545D4F04E610E054
:1032600020E230E060E488E70E94BA1C892B09F074
:10327000A4CF0E948818E101C095D0958091840266
:1032800090918502C823D923D0938502C0938402EC
:1032900094CF880F880F880F37E0380F20E093E035
:1032A000BDCFEFE5F2E080E2DF011D928A95E9F7FC
:1032B000AFE8B1E00BE811E083E9C82E81E0D82E39
:1032C00097E0592E772473949D91E80189918E019E
:1032D000BA01680F711D6B547D4FE92FF0E0E15A80
:1032E000FD4F90E080E0652C681A872C082E01C005
:1032F000880C0A94EAF77B01A12CE701B9907E01C2
:10330000B820262D2A192770922E022E000C330B7E
:10331000DB2D01C0DD0F9A94EAF79D2E31952195A2
:1033200031092770332701C0B6942A95EAF79B2804
:103330002081922A9082A39428E0A212DECF0196E7
:1033400031968830910579F6CA16DB0609F0BCCFB4
:1033500004E610E020E230E04FE552E083CF8091B8
:10336000820290918302911103C091E08927089510
:10337000882369F062E070E08CE793E00E94DA173E
:10338000892B19F080918202089510928202809117
:103390008202EBCF0895CF93DF9300D000D0CDB75A
:1033A000DEB780918302882309F43FC08091B50481
:1033B0009091B6040E94CB20C29760F00E949F209B
:1033C0009093B6048093B50460E080E00E94711889
:1033D0000E94CA190E94BB1880918202882329F199
:1033E0000E94AB2069837A838B839C838091B7048E
:1033F0009091B804A091B904B091BA0429813A819E
:103400004B815C81281B390B4A0B5B0BDA01C9012C
:103410008F3F9F4FAF4FBF4740F40F900F900F90DB
:103420000F90DF91CF910C94AF190F900F900F90E8
:103430000F90DF91CF9108950F931F93CF93DF9358
:10344000C42FD22FFC0182818823C9F040938802C7
:103450000E949F20909387028093860280E28C0FC7
:10346000883008F050C0C77081E001C0880FCA954D
:10347000EAF7DF91CF911F910F910C9446041091C0
:103480008802141335C080918602909187020E94B1
:10349000CB208436910560F5C0E2CD0F1D17B9F041
:1034A00080E2810F883040F4177081E001C0880FFE
:1034B0001A95EAF70E944D04C83048F481E09D2F28
:1034C000977001C0880F9A95EAF70E944604802FF2
:1034D0000E943E04C830B8F4D77081E001C0880F64
:1034E000DA95EAF7DF91CF911F910F910C944D047B
:1034F00080E28C0F883038F4C77081E001C0880FFB
:10350000CA95EAF7EFCFDF91CF911F910F91089500
:103510000F939C01CB01243F4CE53407A1F190F4BB
:10352000293DFCE53F0749F12A3D4CE53407E9F127
:10353000283D3C45C1F0FC0182818823E1F11092D5
:10354000880219C0263FFCE53F0719F1273F4CE5EB
:10355000340729F1253F3C4571F707E225EE44EE9B
:1035600065EF7CE505C006E221EE41EE68ED7CE505
:103570000E941C1A80E00F91089507E225EE45EEA7
:1035800069ED7CE5F5CF06E221EE40EE64EF7CE5E7
:10359000EFCF06E221EE42EE66EF7CE5E9CF07E2EF
:1035A00025EE46EE67EF7CE5E3CF08E221E045EE4D
:1035B0006AED7CE5DDCF81E0DECFCF93DF93EC01D8
:1035C000FB018281882309F4CEC0C631FCE5DF0708
:1035D000E0F4C2309CE5D907F0F00E94620E9093AF
:1035E0009D0280939C02C631ECE5DE0720F5C230D7
:1035F000FCE5DF0798F480919C0290919D020E9467
:10360000700E0E948D0780E006C09E012B5F3C4536
:103610002930310510F3DF91CF910895FE01E35079
:10362000FC4580919C028160E331F105B0F4EF5ECE
:10363000F74D0C94AA27CE018B5F9C450997D8F6CD
:10364000FE01EC5FFC45E830F10590F4EC5DF74DD0
:103650000C94AA2780919C02826080939C02CBCF1D
:1036600080919C028460F9CF80919C028860F5CFA4
:1036700080919D02816080939D02BDCF80919D02CB
:103680008260F9CF80919C028061E7CF80919C029B
:103690008062E3CF80919C028064DFCF0E948D071F
:1036A00080919C028068D9CF80919C028C60D5CF9C
:1036B00080919D028360DFCF80919C028E7FCDCF71
:1036C00080919C028D7FC9CF80919C028B7FC5CF5A
:1036D00080919C02877FC1CF80919D028E7FCBCF4E
:1036E00080919D028D7FC7CF80919C028F7EB5CF48
:1036F00080919C028F7DB1CF80919C028F7BADCF5A
:103700000E948D0780919C028F77A7CF80919C02A9
:10371000837FA3CF80919D028C7FADCF80919C024F
:1037200082FB992790F921E0922790FB82F990FB88
:1037300083F993CF80919D02982F909591708E7F01
:10374000892B90FB81F997CF0E948D0790919C0265
:10375000892F97FB87F9805880CF81E00E94F60E71
:103760004ACF80E0FBCF81E056CFCF93DF93EB01D0
:1037700086319C4511F50E949D0D9A81992399F0FF
:103780008A7A91E009F490E090938902811109C04E
:1037900089E20E94310D0E94E20D80E0DF91CF911D
:1037A000089585E3F6CF80918902811104C089E2F2
:1037B0000E94380DF0CF85E3FBCF81E0EFCF109270
:1037C000B9008CE08093B80008959F92AF92BF92A9
:1037D000CF92DF92EF92FF920F931F93CF93DF93DD
:1037E000B82EEB010E949F206C01EE24E394F12C93
:1037F000C431D10560F025E0E22EF12CCF3FDC078B
:1038000031F0CE0164E170E00E9482277B0184EAFE
:10381000A82E94E8992E1092BC00A092BC000E94A1
:103820009F208C018091BC0087FF0CC08091B90063
:10383000887F883031F18091B900887F803109F12B
:103840000FEF08C00E949F20801B910B8E159F05D3
:1038500048F30EEF1FEFCF3FDC07E9F2C6010E94ED
:10386000CB208C179D07B8F2C801DF91CF911F9133
:103870000F91FF90EF90DF90CF90BF90AF909F900F
:103880000895B092BB009092BC000E949F208C01D2
:103890008091BC0087FF0AC02091B900287F2831A1
:1038A00011F0203469F600E010E0DECF0E949F2086
:1038B000801B910B8E159F0558F3CBCF0F931F9351
:1038C000CF93DF93EB018093BB0084E88093BC002F
:1038D0000E949F208C018091BC0087FF11C0209125
:1038E000B900287F81E090E0283211F490E080E078
:1038F000919581959109DF91CF911F910F91089535
:10390000CF3FDC0741F30E949F20801B910B8C1757
:103910009D0708F38EEF9FEFEECFCF92DF92EF92ED
:10392000FF920F931F93CF93DF936B018A01F22EC7
:10393000E32E622F732F0E94E51BAC01E6010C0DF4
:103940001D1DC017D10711F057FF0DC084E98093EA
:10395000BC00CA01DF91CF911F910F91FF90EF90B2
:10396000DF90CF9008956F2D7E2D89910E945E1C6F
:10397000AC01E7CFCF92DF92EF92FF920F931F93AC
:10398000CF93DF93C62F6A017901B8010E94E51B2E
:103990009C0197FD0DC0B8018C2F0E945E1C9C01FC
:1039A000E601EC0CFD1CCE15DF0511F037FF0DC054
:1039B00084E98093BC00C901DF91CF911F910F91E1
:1039C000FF90EF90DF90CF900895B80189910E9409
:1039D0005E1C9C01E8CF84E98093BC0008958EE1D1
:1039E0004A9B02C08150E1F74A9BFECF08955A9846
:1039F00080E28A95F1F75A9A0895FC013BE03A95E6
:103A0000F1F798E020E080E031E040E14A95F1F7FD
:103A1000880F4A9B02C08160232742E04A95F1F754
:103A2000000040E14A95F1F7915079F790E19A95BD
:103A3000F1F799B132E03A95F1F7000040E14A958B
:103A4000F1F792FB992790F992272081920F9083AA
:103A50000895EF92FF920F931F93CF93DF930F92EE
:103A6000CDB7DEB719828C017C01E60EF11C0E1574
:103A70001F0561F481E09981911180E00F90DF9141
:103A8000CF911F910F91FF90EF9008950E94EF1C2E
:103A9000CE0101960E94FD1CF80181938F01E7CFB2
:103AA000529A5A9A089552985A9AEA9AE9E6F0E098
:103AB00080818F7C808308956150770B91E001C0F5
:103AC000990F6A95EAF720E031E0911108C02223AE
:103AD00091F05A9A80E28A95F1F75A980895492F01
:103AE000482339F05A9A232740E24A95F1F79695F0
:103AF000ECCF5A98F9CF5A98EDCFFF920F931F93BE
:103B0000CF93DF93EC018C01060F111DC017D10775
:103B100031F4DF91CF911F910F91FF900895F990AB
:103B20000E94F71C68E08F2D0E945C1DEFCF1F9252
:103B30000F920FB60F921124EF92FF920F931F93E3
:103B40002F933F934F935F936F937F938F939F93A5
:103B5000AF93BF93EF93FF93CF93DF930F92CDB7C4
:103B6000DEB719820E94EF1CCE0101960E94FD1C57
:103B7000282FA82FA695A695A695982F9295957073
:103B80008A2F8570980F892F837096959695890F47
:103B9000822787709981892B09F075C0A63008F0BB
:103BA00072C080E18A95F1F75A9A529AB2E0BA95BA
:103BB000F1F700C0EA2EF12C5A98EAE0AE9FD0014E
:103BC0001124AD5FBE4F1896ED91FC911997309777
:103BD000B1F06091590170915A0116962D913C9166
:103BE0001797260F371F13968D919C911497680F86
:103BF000791F15964C91159712968C9109958AE02C
:103C00008E9DF0018F9DF00D1124ED5FFE4F6581BB
:103C1000662351F02091590130915A018681978194
:103C2000820F931F0E947D1D0E94F71CF0E1FA9500
:103C3000F1F75A9852985A9A80E18A95F1F78AE0FA
:103C40008E9D80018F9D100D11240D5F1E4FD80198
:103C500012966C911297662371F12091590130915F
:103C60005A0113968D919C91820F931F0E94291DDA
:103C7000D801ED91FC91882311F088E001C082E029
:103C800080830E94EF1C0F90DF91CF91FF91EF9105
:103C9000BF91AF919F918F917F916F915F914F9164
:103CA0003F912F911F910F91FF90EF900F900FBEBA
:103CB0000F901F901895ED91FC91DFCF0F931F93FC
:103CC000CF93DF93EC0106970CF0A9C08AE08C9F9C
:103CD000F0018D9FF00D1124ED5FFE4F80819181E9
:103CE000892B09F49CC0F894529A5A9885E08A95D9
:103CF000F1F700008C2F869585709C2F9570890FA9
:103D0000982F937086958695890F8E0193E0000F0A
:103D1000111F9A95E1F7082B0E94F71C00C068E07C
:103D2000802F0E945C1DA0E1AA95F1F752985A9A43
:103D30004A9B27C087E090E04A9925C08AE08C9F83
:103D400080018D9F100D11240D5F1E4FF8016581BC
:103D50006623A1F12091590130915A018681978102
:103D6000820F931F0E94291D811128C0529A5A9ACE
:103D7000D801ED91FC9182E08083789482E090E01C
:103D800016C000C0D5CF0197B9F4529A5A9A8AE06A
:103D90008C9FF0018D9FF00D1124ED5FFE4F01907F
:103DA000F081E02D81E08083789481E090E0DF91E4
:103DB000CF911F910F91089500C0BECF0E94EF1CBC
:103DC000B0E2BA95F1F75A98529AE0E1EA95F1F724
:103DD0008AE08C9FF0018D9FF00D1124ED5FFE4F66
:103DE0006281662351F02091590130915A018381FB
:103DF0009481820F931F0E947D1D0E94F71C8AE010
:103E00008C9FF0018D9FF00D1124ED5FFE4F01900E
:103E1000F081E02D1082789490E080E0C8CF84E0BB
:103E200090E0C5CF9093900280938F0208950E94F6
:103E3000E113811103C080918A020895E0918F02FD
:103E4000F0919002309721F00190F081E02D0994DB
:103E500080E00895E0918F02F0919002309721F078
:103E60000280F381E02D0994089520918D02309114
:103E70008E022817390771F090938E0280938D027D
:103E8000E0918F02F0919002309721F00680F78147
:103E9000E02D0994089520918B0230918C0228170F
:103EA000390771F090938C0280938B02E0918F021E
:103EB000F0919002309721F00084F185E02D099473
:103EC0000895AC019C012E5F3F4F485F5F4F80E03B
:103ED0002417350709F40895F90191919F01992359
:103EE000B9F38F5FF5CF9C01662351F0FC01329648
:103EF000285F3F4F8191861729F0E217F307D1F72A
:103F000080E0089581E008959C01FC0132968FEFD6
:103F100090E04191461751F08F3F19F4411101C0D3
:103F2000892F9F5F9630A9F78F3F09F40895280FD6
:103F3000311D87FD3A95F901628308959C01FC01CA
:103F40003296285F3F4F8191861303C0DF0111979E
:103F50001C92E217F307B9F708950C94841F0C9490
:103F60009E1FFC01329686E0DF011D928A95E9F7DB
:103F700008951092BD041092BE041092BF041092D6
:103F8000C0040895CF92DF92EF92FF92CF93DF9318
:103F900000D000D0CDB7DEB76B017C010E94E113E9
:103FA00081110EC00E94AB20C61AD70AE80AF90A8E
:103FB000C092BD04D092BE04E092BF04F092C0044F
:103FC0000F900F900F900F90DF91CF91FF90EF9097
:103FD000DF90CF900895CF93DF9300D000D0CDB77E
:103FE000DEB70E94E113882341F00F900F900F90ED
:103FF0000F90DF91CF910C94AB200E94AB2069838E
:104000007A838B839C838091BD049091BE04A091A0
:10401000BF04B091C00429813A814B815C81280F93
:10402000391F4A1F5B1FCA01B9010F900F900F90F3
:104030000F90DF91CF9108950895089508950C94FD
:104040001E208091C904843049F10E941F2080E025
:104050000E9430031092910288E190E020E40FB6B4
:10406000F894A895809360000FBE2093600083B7FA
:10407000817F846083BF83B7816083BF7894889594
:1040800083B78E7F83BF0FB6F894A89580916000A8
:10409000886180936000109260000FBE08950895BB
:1040A000CF930E941D200E944E130E944F20C0E01B
:1040B0008C2F0E940E12811105C0CF5FCA30C1F74C
:1040C000CF91089581E0FCCF08950C9464200E9464
:1040D0008D070E94171F0E9430030C9465201F92C9
:1040E0001FB61F9211248F939F93AF93BF9380911C
:1040F0009102811113C08091C1049091C204A091DA
:10410000C304B091C4044196A11DB11D8093C104A4
:104110009093C204A093C304B093C404BF91AF9121
:104120009F918F911F901FBE1F90189582E084BDB4
:1041300093E095BD9AEF97BD80936E0008952FB7D9
:10414000F8948091C1049091C204A091C304B091ED
:10415000C4042FBF0895CF93DF9300D000D0CDB714
:10416000DEB78FB7F8942091C1043091C20440911A
:10417000C3045091C40429833A834B835C838FBF6B
:1041800069817A818B819C810F900F900F900F90A5
:10419000DF91CF9108959C014FB7F8948091C104AD
:1041A0009091C204A091C304B091C4044FBF821B7C
:1041B000930B08950F931F93CF93DF9300D000D0FC
:1041C000CDB7DEB7462F572FBC012FB7F89480919B
:1041D000C1049091C204A091C304B091C4042FBF44
:1041E0008C019D01041B150B260B370BC901B8016F
:1041F0000F900F900F900F90DF91CF911F910F9123
:10420000089578941F921FB61F9211248F939F9345
:10421000AF93BF938091C1049091C204A091C30455
:10422000B091C4040196A11DB11D8093C104909367
:10423000C204A093C304B093C404BF91AF919F91F3
:104240008F911F901FBE1F90189587E797E7909357
:1042500001088093000888E19AE00FB6F894A895C9
:10426000809360000FBE90936000FFCF9093950104
:1042700080939401089580919A0208950895CF93B0
:10428000DF93D82FC92F81E08093E9008FEF9091C1
:10429000E800815095FD06C095ED9A95F1F7000074
:1042A0008111F5CF8091E80085FF16C050E040E015
:1042B00068E070E08D2F9C2F0E94E5228091E8003D
:1042C0008E778093E80088E0ED2FFC2FA2E9B2E022
:1042D00001900D928A95E1F7DF91CF9108950895AD
:1042E00008958091C804811109C00E946D240E9424
:1042F000CA248091E20084608093E20008951092C5
:10430000C804089508950895089542E061EC81E09D
:104310000C94E9238091CB04893089F148F48230F0
:1043200009F49DC0833009F458C0813041F00895EC
:104330008A3009F484C08B3009F46AC008958091F2
:10434000CA04813A09F048C08091E800877F8093D1
:10435000E8008091CE049091CF04892B61F468E04D
:1043600082E992E070E00E9434238091E8008B772C
:104370008093E800089560E090E080E0F3CF8091C2
:10438000CA04813249F58091CE049091CF04892BE3
:1043900019F58091E800877F8093E8008091E8001C
:1043A00082FF16C09091F3008091F200029729F4E9
:1043B0008091F1008B7F813021F48091F100809316
:1043C0009A028091E8008B778093E8000C941D247A
:1043D0008091C9048111E2CF08958091CA04813A85
:1043E000D9F78091CE049091CF04892BA9F78091C1
:1043F000E800877F8093E8008091E80080FFFCCF91
:10440000809148018093F1008091E8008E77DCCFA5
:104410008091CA04813201F78091CE049091CF043B
:10442000892BD1F68091E800877F8093E8000E9475
:104430001D248091CC04809348010C948D078091B9
:10444000CA04813249F68091E800877F8093E800B2
:104450000E941D248091CD0480939B020895809139
:10446000CA04813A09F0B8CF8091E800877F809331
:10447000E8008091E80080FFFCCF80919B02C2CFD2
:1044800084B7877F84BF0FB6F894A89580916000A9
:10449000886180936000109260000FBE80E890E019
:1044A0000FB6F89480936100909361000FBE0C9456
:1044B0002F0F0E946D240E94CA24E2EEF0E080815A
:1044C0008460808378940E9456270E94410F8EE377
:1044D00091E00C94121F8091C904853031F48091D1
:1044E000C904853021F00E9467200C94500F0E946F
:1044F00021208091C704882391F30E9450208823B3
:1045000071F30E94CF220E948D07E9CF0C9488227C
:104510009C01FB01DA01832F992783309105B9F0C3
:1045200060F481309105B1F1029761F482E290E08C
:104530002EEC33E02D933C93089581329105E1F008
:10454000829709F190E080E030E020E0F3CFC901EC
:104550009927213059F08230910559F0EAECF3E0C7
:10456000892B81F7849190E09F01E4CFEEEAF3E09C
:10457000F9CFE0EAF3E0F6CF89E090E020EE33E017
:10458000EF2B01F7D7CF80E490E022E034E0EF2B6F
:10459000C9F6D0CF82E190E020EF33E0CBCF80E1CD
:1045A00089BD82E189BD09B400FEFDCF8091D800AC
:1045B0008F7D8093D8008091E00082608093E0003E
:1045C0008091E00081FDFCCF0895AF92BF92CF9221
:1045D000DF92FF920F931F93CF93DF936C01EB0158
:1045E0008A010E943C24F82E811123C00115110577
:1045F00039F0F80180819181C81BD90BC80ED91EF2
:10460000B12CA12C2097A9F08091E80085FD22C053
:104610008091E8008E778093E80001151105A1F0E4
:10462000F801808191818A0D9B1D9183808385E0B3
:10463000F82E8F2DDF91CF911F910F91FF90DF907A
:10464000CF90BF90AF9008950E943C248823D1F270
:10465000F82EEFCFF60181916F018093F100219741
:10466000FFEFAF1ABF0ACECFFC01CB012091D004DF
:104670003091D1042617370790F0009729F4209144
:10468000E8002E772093E80040E0009751F44111B4
:1046900008C08091E80082FF31C080E00895C90120
:1046A000F3CF2091C9042223A9F12530A9F120914B
:1046B000E80023FD2DC02091E80022FDEACF2091E3
:1046C000E80020FFE2CF3091F3002091F200009744
:1046D00019F02830310558F041E02830310509F053
:1046E00040E02091E8002E772093E800CECF419162
:1046F0004093F10001972F5F3F4FE9CF8091C904AC
:10470000882341F0853041F08091E80083FFC1CFDC
:1047100081E0089582E0089583E00895FC01CB01D3
:104720002091D0043091D1042617370790F00097DC
:1047300029F42091E8002E772093E80040E00097CC
:1047400051F4411108C08091E80082FF32C080E03E
:104750000895C901F3CF2091C9042223B1F1253076
:10476000B1F12091E80023FD2EC02091E80022FD48
:10477000EACF2091E80020FFE2CF3091F3002091B2
:10478000F200009719F02830310558F041E0283048
:10479000310509F040E02091E8002E772093E800F1
:1047A000CECF44914093F100319601972F5F3F4F58
:1047B000E8CF8091C904882341F0853041F0809191
:1047C000E80083FFC0CF81E0089582E0089583E090
:1047D0000895982F973028F08F708093E90081E03A
:1047E00008959093E900242F762F50E0981731F028
:1047F0007091EC002091ED005091F00021FD02C07D
:104800009F5FE8CF3091EB003E7F3093EB0030911B
:10481000ED003D7F3093ED003091EB00316030933F
:10482000EB007093EC002093ED005093F00020918A
:10483000EE0027FDE5CF80E008958091CA0487FF50
:1048400013C08091E80082FF06C08091E8008B775A
:104850008093E80004C08091C9048111F2CF0895CB
:104860008091C9048823D9F38091E80080FFF8CFB4
:104870008091E8008E77ECCF2091E4003091E50044
:1048800095E6A9012091EC00822F817020FF06C0DF
:104890008091E80080FF06C080E008952091E80044
:1048A00022FD1AC08091C904882389F0853089F0DF
:1048B0008091EB0085FD0FC02091E4003091E50070
:1048C00042175307F9F29150E1F684E0089582E02F
:1048D000089583E0089581E008950E94DB240E94FA
:1048E000E324E0EEF0E0808181608083E8EDF0E099
:1048F00080818F77808319BCA7EDB0E08C918E7F8B
:104900008C9380818F7E80831092C80408950F93CA
:104910001F93CF93DF930E94DB240E94E324C8ED12
:10492000D0E088818F7788838881806888838881B8
:104930008F7D888319BC1092C9041092C50410920F
:10494000C7041092C60400EE10E0F80180818B7F4E
:10495000808388818160888342E060E080E00E94FB
:10496000E923E1EEF0E080818E7F8083E2EEF0E0EB
:10497000808181608083808188608083F80180816C
:104980008E7F8083888180618883DF91CF911F91A2
:104990000F910895E8EDF0E080818F7E8083E7ED50
:1049A000F0E080818160808384E082BF81E0809339
:1049B000C8040C948724E8EDF0E080818E7F80832A
:1049C0001092E20008951092DA001092E10008952A
:1049D0001F920F920FB60F9211242F933F934F9374
:1049E0005F936F937F938F939F93AF93BF93EF9357
:1049F000FF938091E10082FF0BC08091E20082FF73
:104A000007C08091E1008B7F8093E1000E945527D1
:104A10008091DA0080FF19C08091D80080FF15C016
:104A20008091DA008E7F8093DA008091D90080FF38
:104A300094C080E189BD82E189BD09B400FEFDCF4B
:104A400081E08093C9040E9471218091E10080FF80
:104A500019C08091E20080FF15C08091E2008E7F36
:104A60008093E2008091E20080618093E200809177
:104A7000D80080628093D80019BC85E08093C90477
:104A80000E9483218091E10084FF29C08091E2008F
:104A900084FF25C080E189BD82E189BD09B400FEA3
:104AA000FDCF8091D8008F7D8093D8008091E10068
:104AB0008F7E8093E1008091E2008F7E8093E20000
:104AC0008091E20081608093E2008091C504882398
:104AD00009F449C084E08093C9040E948421809134
:104AE000E10083FF29C08091E20083FF25C080910F
:104AF000E100877F8093E10082E08093C9041092F7
:104B0000C5048091E1008E7F8093E1008091E200F6
:104B10008E7F8093E2008091E20080618093E200CA
:104B200042E060E080E00E94E9238091F00088602C
:104B30008093F0000E948221FF91EF91BF91AF918D
:104B40009F918F917F916F915F914F913F912F91A5
:104B50000F900FBE0F901F90189519BC1092C904AA
:104B60000E947F2172CF8091E30087FD02C081E027
:104B7000B2CF83E0B0CF1F920F920FB60F921124E5
:104B8000FF920F931F932F933F934F935F936F93D6
:104B90007F938F939F93AF93BF93CF93DF93EF93C5
:104BA000FF9309EE10E0F8018081C091EC00C795F9
:104BB000CC27C7958F70FC2EF82A1082C0EFD0E06A
:104BC0008881877F888378940E940426F801108268
:104BD000888188608883CF2DCF70C083FF91EF914B
:104BE000DF91CF91BF91AF919F918F917F916F9105
:104BF0005F914F913F912F911F910F91FF900F90D7
:104C00000FBE0F901F9018951F93CF93DF93CDB7D2
:104C1000DEB7AA970FB6F894DEBF0FBECDBF8AEC01
:104C200094E0FC0101962091F100208324E0823D74
:104C30009207B9F70E948A218091E80083FF1DC185
:104C40008091CA049091CB049A3008F016C1E92FE4
:104C5000F0E0E45DF74D0C94AA27803899F0823893
:104C600009F00BC18091CE048F70873008F005C128
:104C70008093E9008091EB0085FB882780F91092F2
:104C8000E90006C08091C6049091C704911182602A
:104C90009091E800977F9093E8008093F100109244
:104CA000F1008091E8008E77E4C0882309F4D2C037
:104CB000823009F0E2C08091CC048111D5C080918E
:104CC000CE048F702FEF280F263008F0D6C08093C7
:104CD000E9002091EB0020FFC7C0933031F48091B0
:104CE000EB0080628093EB00BFC09091EB0090617D
:104CF0009093EB0021E030E001C0220F8A95EAF7A3
:104D00002093EA001092EA008091EB008860EACFDD
:104D10008111B3C01091CC041F778091E30080789B
:104D2000812B8093E3008091E800877F8093E800E7
:104D30000E941D248091E80080FFFCCF8091E30059
:104D400080688093E30082E0111183E08093C904BE
:104D500094C08058823008F090C08091CC0490912B
:104D6000CD048C3D23E0920799F583E08A838AE2A3
:104D700089834FB7F894DE01139620E03EE051E2BC
:104D8000E32FF0E050935700849120FF03C08295F9
:104D90008F703F5F8F708A30C8F0895C90E08D9390
:104DA0009D932F5F243161F74FBF8091E800877F8B
:104DB0008093E8006AE270E0CE0101960E943423FD
:104DC0008091E8008B778093E80057C0805DE6CF44
:104DD0006091CE047091CF04AE014F5F5F4F0E948F
:104DE0008622BC01892B09F448C08091E800877FA6
:104DF0008093E80089819A810E948E23E1CF8038D8
:104E0000E1F58091E800877F8093E8008091C504F8
:104E10008093F10046CF811130C09091CC04923044
:104E200060F58091E800877F8093E8009093C50447
:104E30000E941D248091C504882311F084E005C0E0
:104E40008091E30087FDFACF81E08093C9040E943E
:104E5000852113C08091CC04813079F481E09330B6
:104E600009F080E08093C7041092E9008091E80087
:104E7000877F8093E8000E941D248091E80083FFD3
:104E80000AC08091E800877F8093E8008091EB0062
:104E900080628093EB00AA960FB6F894DEBF0FBE37
:104EA000CDBFDF91CF911F9108950895CF93809149
:104EB000C904882399F08091E900C091EC00C7955E
:104EC000CC27C7958F70C82B1092E9008091E8001D
:104ED00083FD0E940426CF70C093E900CF9108950E
:104EE0000E946D241092C9040895E8EDF0E08081DD
:104EF000806180838AE18A95F1F700C08091D900B2
:104F000081700895AA1BBB1B51E107C0AA1FBB1FDC
:104F1000A617B70710F0A61BB70B881F991F5A9545
:104F2000A9F780959095BC01CD01089597FB072EB8
:104F300016F4009407D077FD09D00E94822707FC61
:104F400005D03EF4909581959F4F08957095619599
:104F50007F4F0895EE0FFF1F0590F491E02D099407
:104F6000FB01DC0104C08D910190801921F44150B6
:104F70005040C8F7881B990B0895FB01DC0102C063
:104F800001900D9241505040D8F70895F999FECF05
:104F900092BD81BDF89A992780B50895A8E1B0E047
:104FA00042E050E00C94FA27262FF999FECF92BDEB
:104FB00081BDF89A019700B4021639F01FBA20BDDE
:104FC0000FB6F894FA9AF99A0FBE08950396272F10
:104FD0000E94D5270E94D427252F0E94D527242F51
:104FE0000C94D5270196272F0E94D5270C94D427FF
:104FF000DC01CB01FC01F999FECF06C0F2BDE1BD99
:10500000F89A319600B40D9241505040B8F7089587
:10501000F894FFCFCD06F406D806DC06E506E006D8
:10502000EB062A1B301B341B421B461B4A1B4E1B24
:10503000541B5C1B601B641B681B741B781B7C1B54
:10504000801B861BA41B8E1B3E1B6C1B701B581BDE
:105050008A1B9A1BAD1BB11B2D2655263D275526B5
:0C5060003D278826A9263D27FF260B27A8
:10506C000E0201B4020000000100000000B40200B6
:10507C0000000501000000B4020000000106000061
:10508C0000B4020000000107000000B40204080094
:10509C000000000000F4F50021007F2200033B21FA
:1050AC003F216F213E21702101F6F73133323666F4
:1050BC0097C6343500000000003802736C617665C9
:1050CC005F6D617472697800656E636F6465720000
:1050DC0073796E635F74696D65720000FF01000186
:1050EC000000FFFF0000010001FF0000081018186D
:0450FC001008000098
:00000001FF
