:100000000C9485050C94CC050C94CC050C947324AD
:100010000C94CC050C94CC050C94CC050C94CC051C
:100020000C94CC050C94CC050C94092D0C94DC2D6F
:100030000C9489270C94CC050C94CC050C94CC051D
:100040000C94CC050C94CC050C94CC050C94CC05EC
:100050000C94CC050C941B280C94CC050C94CC056A
:100060000C94CC050C94CC050C94CC050C94CC05CC
:100070000C94CC050C94CC050C94CC050C94CC05BC
:100080000C94CC050C94CC050C94CC050C94CC05AC
:100090000C94CC050C94CC050C94CC050C94CC059C
:1000A0000C94CC050C94CC050C94CC0500050105F2
:1000B0000205030504050505000601060206030600
:1000C00004060506000701070207030704070507E2
:1000D00000080108020803080408050800090109CE
:1000E00002090309040905090000010002000300D8
:1000F00004000500000101010201030104010501E2
:1001000000020102020203020402050200030103CD
:1001100002030303040305030004010402040304AF
:100120000404050435001E001F00200021002200E9
:10013000000014001A000800150017000000040059
:100140001600070009000A0000001D001B00060041
:10015000190005000000E200E30001512C00A80096
:100160002D00270026002500240023000000130096
:1001700012000C0018001C00340033000F000E00A9
:100180000D000B00E50038003700360010001100AC
:10019000E700E600E4000151290039001850000092
:1001A000000003510451055308532B00035821024A
:1001B00025022E0200002302240226022F0236020C
:1001C0000000E10038006C006D002F000000E2002C
:1001D000E00002512A0001000000000000000000C1
:1001E00000000000000033000000200222022D0069
:1001F00031022E002D02270230023702E5003802BC
:100200003100710070003000E70000000000025172
:10021000280042183A003B003C003D003E003F00F1
:100220003A003B003C003D003E003F0001001E0044
:100230001F0020002100220001000000000000003B
:1002400000000000010001000100010001000000A9
:100250004500440043004200410040004500440086
:100260004300420041004000000027002600250016
:100270002400230000000000000000000000000037
:100280000100010001000100010000000100010067
:1002900001000100010001000100490001006500AA
:1002A000000000000100E200E000E1000000390071
:1002B000010016001B010601010000000100010001
:1002C0000100010001000100010001000100010026
:1002D000010016002A002A014F01520050014B0074
:1002E0002A004C004F00510050004E000100000059
:1002F00018010000070100000100010001000100D9
:1003000001000100010000000000000001000000E9
:10031000005C000001000152015D000000000000CF
:10032000015D00000000000000000000000000006F
:1003300000000000010001000100010001000100B7
:1003400000000000000000000000000000000000AD
:10035000A700A600A500000000000000A900A8005A
:10036000AA00000000000000AB00AE00AC000000DE
:100370000100010001000000010010500100000018
:10038000000000000000010000000000000000006C
:10039000000000000000000000000000000000005D
:1003A000000000000000000000000000000000004D
:1003B000000001002A0001002A000000560055003C
:1003C000540067002B002602570026002500240059
:1003D0000000270236002300220021000000280030
:1003E000370020001F001E00000000000000270052
:1003F0002A00105001000000000000000000000072
:1004000000000000000000000000000000000000EC
:1004100000000000000000000000000000000000DC
:1004200000000000000000000000010001000100C9
:1004300000000000000000000000000000000000BC
:1004400000000000000000000000000000000000AC
:10045000000000000000000000000000000000009C
:10046000000000000000000000000000010000008B
:10047000000000000000000000000000000000007C
:10048000000000000000000000000000000000006C
:10049000000000000000000000000000000000005C
:1004A0000000010001000100000000000000000049
:1004B000000000000000000000000000000000003C
:1004C000000000000000000000000000000000002C
:1004D000000000000000000000000000000000001C
:1004E0000000000035001E001F0020002100220037
:1004F0000000E00014001A000800150000000900C8
:100500000400160007000A000000E1001B000600BE
:100510001900050000002B00E2002C0009511050CA
:1005200000000000000000000000000000000000CB
:100530000000520000000000000000004F005100C9
:10054000500000000000000000000000000000005B
:1005500000000000000000000000A80001002300CF
:10056000240025002600270000001C0018000C00B5
:100570001300380000000B000D000E000F003400C7
:1005800000001100100000000000280000002800FA
:1005900029002A00010010060000000000000000F1
:1005A000000000000000000000000000000000004B
:1005B000000000000000000000000000000000003B
:1005C000000000000000000000000000000000002B
:1005D000000000000100000000000000000000001A
:1005E000000000000000000000000000000000000B
:1005F00000000000000000000000000000000000FB
:1006000000000000000000000000000000000100E9
:1006100000000000000000000000000000000000DA
:1006200000000000000000000000000000000000CA
:1006300000000000000000000000000000000000BA
:1006400000000000000000000000000000000000AA
:10065000000000000000000000000000000000009A
:10066000000000000000000000000000000000008A
:10067000000000000000000000000000000000007A
:100680000000000000000100000000000000000069
:10069000000000000000000000000000000000005A
:1006A000000000000000000000000000000000004A
:1006B000000000000000000000000000000000003A
:1006C000000000000000000000000000000000002A
:1006D000000000000000000000000000000000001A
:1006E000000000000000000000000000000000000A
:1006F00000000000000000000000000000000100F9
:1007000000000000000000000000000000000000E9
:1007100000000000000000000000000000000000D9
:1007200000000000000000000000000000000000C9
:1007300000000000000000000000000000000000B9
:1007400000000000000000000000000000000000A9
:100750000000000000000000000000000000000099
:100760000000000000000000000000000000000089
:100770000000000000000100000000000000000078
:100780000000000000000000000000000000000069
:100790000000000000000000000000000000000059
:1007A0000000000000000000000000000000000049
:1007B0000000000044454255473A20646973616275
:1007C0006C65642E0A0044454255473A20656E61C7
:1007D000626C65642E0A004F6E6573686F743A2010
:1007E0006163746976653A2025640A000A00253041
:1007F0003258006B6579626F6172645F7365745F14
:100800006C65643A20000A0025303862003A200006
:1008100025303258000A722F63203031323334359C
:1008200036370A0054617267657420636F6E6E65B7
:10083000637465640D0A00546172676574206469AD
:1008400073636F6E6E65637465642C207468726F79
:1008500074746C696E6720636F6E6E656374696F24
:100860006E20617474656D7074730D0A0046616961
:100870006C656420746F20657865637574652025E8
:10088000730A006F6C65645F6F666620636D642039
:100890006661696C65640A0000AE6F6C65645F6FC9
:1008A0006E20636D64206661696C65640A0000AF48
:1008B0006F6C65645F72656E646572393020646167
:1008C0007461206661696C65640A006F6C65645FC1
:1008D00072656E6465722064617461206661696C22
:1008E00065640A006F6C65645F72656E6465722092
:1008F0006F666673657420636F6D6D616E642066EC
:1009000061696C65640A00646973706C61795F7316
:100910006574757032206661696C65640A0000DA7E
:100920000281FFD9F1DB20A4A62EAF646973706C3D
:1009300061795F666C6970706564206661696C6579
:10094000640A0000A0C06F6C65645F696E69742002
:10095000636D64206E6F726D616C20726F74617470
:10096000696F6E206661696C65640A0000A1C86FDA
:100970006C65645F696E697420636D64207365746F
:100980002031206661696C65640A0000AED580A8DC
:100990001FD300408D1420000A002530325820005B
:1009A0006B6579626F6172645F7265706F72743AC1
:1009B00020005B735D004B6579626F617264207328
:1009C000746172742E0A005B575D005B535D005BBF
:1009D000525D005B445D005B435D000C0353006FA0
:1009E0000066006C00650000001A034A006F007387
:1009F00000650066004100640061006D00630069ED
:100A0000006B0000000403090409025B00030100FD
:100A1000A0FA0904000001030101000921110100ED
:100A2000012240000705810308000A0904010001B2
:100A30000300000009211101000122320007058294
:100A40000320000A0904020002030000000921112A
:100A5000010001222200070583032000010705038E
:100A600003200001120100020000000832FC87028E
:100A70000100010200010631FF0974A10109751589
:100A80000026FF009520750881020976150026FFD3
:100A900000952075089102C005010980A101850318
:100AA00019012AB700150126B700950175108100BC
:100AB000C0050C0901A101850419012AA002150134
:100AC00026A002950175108100C005010906A1014B
:100AD000050719E029E71500250195087501810230
:100AE0009501750881010507190029FF150026FFEA
:100AF00000950675088100050819012905950575F9
:100B0000019102950175039101C011241FBECFEF21
:100B1000DAE0DEBFCDBF04B603FE27C080918705B3
:100B200090918805A0918905B0918A058730904BF6
:100B3000A740B04BD1F4109287051092880510920F
:100B4000890510928A0514BE84B7877F84BF0FB6CB
:100B5000F894A8958091600088618093600010925D
:100B600060000FBEE0E0F8E3099512E0A0E0B1E01C
:100B7000EEECF0E602C005900D92AE32B107D9F767
:100B800025E0AEE2B2E001C01D92A738B207E1F75E
:100B90000E94431D0C942D300C940000FF93EF93A2
:100BA000E0912E02F0912F02309709F00995EF9114
:100BB000FF910895FC018591803011F0EFDFFBCFAC
:100BC0000895FF27E0E230E247FF0CC0419597FF10
:100BD00009C0EDE26095709580959095611D711D3D
:100BE000811D911D27FF02C0219530E350E2AA2705
:100BF000660F771F881F991FAA1FA41710F0A41B48
:100C000063955A95A9F7AA3008F0A95FA05DAF9344
:100C1000F395611571058105910541F7ED3211F4E8
:100C2000EF93F395F21718F43F93F395FBCF8F9161
:100C3000B5DFFA95E1F70895E991F9918591803052
:100C400021F0853219F0AADFF9CF089520E0E89469
:100C500055915532C1F3503311F4689455915A337C
:100C600048F4505390F3220F022E220F220F200D32
:100C7000250FF4CF0EF4219589919991533619F3EC
:100C8000533729F1533559F1BC0188279927E89446
:100C90005C3621F48991999168945591543639F4D0
:100CA00046EF7EF077FF0DC08FEF9FEF0AC05537FC
:100CB0004AE039F0583540E121F0523642E009F07F
:100CC0000895FF93EF937DDFEF91FF91B7CFFF93EF
:100CD000EF93FC0181918030B9F360DFFBCFFF938C
:100CE000EF9368DFF1CFDF93CF93CDB7DEB72596D3
:100CF000A3DFCF91DF910895811107C089EA6111C7
:100D000001C08AEA0E94170908C0813031F46623C5
:100D100031F085E191E00E94EE0681E008958AE7D6
:100D2000F1CF9C019A9581159F4118F5F901EE27A5
:100D3000F270832F8170B90166277470A90144276E
:100D4000587034FF0CC08295807FEF2B09F08062D1
:100D5000672B09F08064452B69F080680895EF2BBC
:100D600009F08260672B09F08460452B19F08860D8
:100D7000089580E00895CF93DF93EB010E949106E0
:100D8000FE01DF91CF910994CF93DF93EC01805E58
:100D90009109089720F060E47CE0209711F46FE15E
:100DA00079E0CE010E94BB068C2FDF91CF910C948D
:100DB0009408CF93DF93EC010E94D808CE01805EA7
:100DC0009109089720F067E47CE0209711F466E22F
:100DD00079E0CE01DF91CF910C94BB06CF93DF93E6
:100DE000D82FC92F0E94C4068FE39CE90197F1F721
:100DF00000C000008D2F9C2FDF91CF910C94D9065D
:100E000081E0089581E008950C94020708950C9400
:100E100006071F93CF93DF9300D000D00F92CDB77A
:100E2000DEB749835A836B8330913A0289819A8174
:100E300031111DC06623B9F02223A9F00E94DE0EF5
:100E4000182F682F89819A810E94870E69817A8183
:100E5000812F0F900F900F900F900F90DF91CF91F7
:100E60001F910C94FF150E94B50E182FEFCF0E9412
:100E7000DE0E69817A81EDCFFC01262F4081518100
:100E80006281738184810C94090781E00895CF9376
:100E9000DF93D82FC92F60E00E943C076D2F7C2F75
:100EA000DF91CF910C9407070E94F3160E94EF0781
:100EB0000C942C170C942F1708950E94600C0E941C
:100EC0005C072FEF84E39CE0215080409040E1F7E5
:100ED00000C000000C943F280F931F93CF93DF9323
:100EE0008C0161E00E943C07EC01B8010E940407FC
:100EF0008823C9F1B801CE010E946421882399F1A9
:100F0000B801CE010E94B921882369F1B801CE0150
:100F10000E949122882339F1F8018281882381F08F
:100F2000CB35FDE5DF07D1F190F4C130ECE5DE070C
:100F300001F1CF3DFCE5DF0771F1C115DC4589F01A
:100F4000C801DF91CF911F910F910C940007CC3510
:100F5000EDE5DE0731F1CD35DD4591F70E947412E4
:100F6000EFCF0E945D0780E0DF91CF911F910F913D
:100F700008959091CA02892F8E7F90FF816080939F
:100F8000CA0280FF05C086EC97E00E94DA05EBCF2D
:100F900084EB97E0FACF0E94DA13E5CF0E947D122E
:100FA000CFCF0E948012CCCF829594E0899F900190
:100FB00011242C7C869586958373282B30E0C901FB
:100FC000880F991F8A7A359527952575822B089564
:100FD00008950C94E80781E008950C94EB070895B8
:100FE000CF93C82F0E94E9078C2FCF910C94ED0767
:100FF000CF93DF93EC018881598121E030E0082E06
:1010000001C0220F0A94EAF7A52FB0E0A05DBD4F02
:101010004C919A819923D9F090913C029923D1F077
:1010200090E066E0569F800D911D1124880F991F56
:10103000FC01E355FF4FE491E983FC01E455FF4FC8
:10104000E491E883422B4C93DF91CF910895942F44
:101050009223E4CF20954223F6CFEF92FF920F9395
:101060001F93CF93DF93CDB7DEB72B970FB6F894CE
:10107000DEBF0FBECDBF042F4F83152F5887698762
:101080007A878B87EA84FB8461110E94A512EF287E
:1010900019F010231F3F79F51E8285E0FE01379677
:1010A000DE01119601900D928A95E1F789819A816E
:1010B0002C813D81232BA9F449815A816B817C814C
:1010C0008D819E810E946A112B960FB6F894DEBF27
:1010D0000FBECDBFDF91CF911F910F91FF90EF9089
:1010E000089589238F3F41F3CE0101960E94450761
:1010F0008111E2CFE9CFCE0107960E94F807CCCF4D
:10110000FC01808191810E94200F92959F70963002
:1011100051F4863F41F080913C0291E08927809311
:101120003C0290933B020895CF93C82F8823F1F19E
:101130008CEF8C0F813AA0F46C2F8091000190917C
:1011400001010E948D26882329F08C2F0E940B120A
:101150000E94C8128C2F0E940412CF910C94C812C6
:1011600080E28C0F883048F4C77081E001C0880F9E
:10117000CA95EAF70E948612F0CF8BE58C0F833078
:1011800038F42C2F2452330BC901CF910C944F26E5
:10119000C85AC73158F4EC2FF0E0EE0FFF1FE959A1
:1011A000FE4F80819181CF910C946526CF91089557
:1011B000882329F19CEF980F913A20F40E940B129A
:1011C0000C94C81290E2980F983050F4877091E018
:1011D00001C0990F8A95EAF7892F0E948C12F0CFEF
:1011E0009BE5980F933020F490E080E00C944F261C
:1011F000885A873120F490E080E00C9465260895A9
:101200001F93CF93DF93182FEB010E949408209730
:1012100031F4812FDF91CF911F910C94D8088FE981
:101220009FE00197F1F700C000002197F0CF6AE03E
:1012300070E0893311F460E570E00C9400098823B4
:1012400021F00E9486120C94C8120895882321F080
:101250000E948C120C94C81208956F927F928F9204
:101260009F92AF92BF92CF92DF92EF92FF920F9335
:101270001F93CF93DF9300D000D000D0CDB7DEB75F
:101280006C016D837E83FC011281058102950F70D4
:101290000E944812E82E8823B9F0112309F18E81AB
:1012A000807F803449F09D81905E9830C8F0803610
:1012B00019F4FD81F63FA1F082E00E9419130E940B
:1012C000481291E0E82EE9268E8182958F70A82E33
:1012D000B12C8C30B8F5F501E15DFF4C0C94CF2FAB
:1012E000E12CF2CF0E810F708E81807F11F002957C
:1012F000007F1123B1F0002361F08D81805E883082
:1013000018F06D80611009C0802F0E9486120E9423
:10131000C8128D810E94940815C0802F0E949712D8
:10132000F6CF8D810E94D808002361F08D81805E08
:10133000883018F07D80711043C0802F0E948C127D
:101340000E94C812F8E0AF1AB10824E0A216B10456
:1013500020F40E94F3250E94F007112349F08E81AA
:10136000807F803619F49D81963F11F00E943B12D8
:10137000EE2009F431C20E941E1280FD2DC2F6013A
:1013800012820E9418120E94770DC6010E94180C4A
:101390000E94181226960FB6F894DEBF0FBECDBF7E
:1013A000DF91CF911F910F91FF90EF90DF90CF9041
:1013B000BF90AF909F908F907F906F900C94A80DEE
:1013C000802F0E949D12BCCF2E812F70F22E8E8115
:1013D000807F803219F0F29480EFF8226D806620D1
:1013E00071F0262D213049F1112391F1002351F1A3
:1013F000F601858180FF8DCF8F70858323C01123F7
:1014000081F0011106C00E94AB128F290E941F09B2
:1014100099CF0130C1F70E94AB128F290E94B112FF
:1014200091CF011106C00E94BE128F2D0E94260985
:1014300089CF013009F486CFF6CF112329F0063089
:1014400008F080CF8F2DE2CF053008F07BCFEDCFB5
:10145000002359F3FD81F93369F42FEF87EE93E010
:10146000215080409040E1F700C000008D810E9433
:10147000D80868CFEFE3FCE93197F1F7F5CF8E811B
:1014800086958695837069F0813009F05BCF8D81F8
:101490009E819370111102C090E080E00E94652649
:1014A00051CF8D819E819370111102C090E080E038
:1014B0000E944F2647CF8E81837009F058C01111CA
:1014C00041CF2D81229526952770220F220F4D8125
:1014D0004F7050E070E060E0022E04C0440F551FD2
:1014E000661F771F0A94D2F76D8080E090E0DC01E0
:1014F00064FE0FC08FE090E0A0E0B0E004C0880F71
:10150000991FAA1FBB1F2A95D2F780959095A09589
:10151000B0952E812695269523703C014D01642AB5
:10152000752A862A972A69827A828B829C82223047
:1015300081F02330A9F0213029F0C401B3010E94C9
:10154000ED0C00CF69817A818B819C810E94C50C52
:10155000F9CE69817A818B819C810E94150DF2CE32
:1015600069817A818B819C810E94C30CEBCE11230F
:1015700009F444C07E8070FEE5CE2D81229526952B
:101580002770220F220F4D814F7050E070E060E015
:10159000022E04C0440F551F661F771F0A94D2F70E
:1015A0009D8080E090E0DC0194FE0FC08FE090E031
:1015B000A0E0B0E004C0880F991FAA1FBB1F2A95A6
:1015C000D2F780959095A095B0952E812695269579
:1015D00023703C014D01642A752A862A972A698264
:1015E0007A828B829C822230A1F02330C9F0213094
:1015F00049F0C401B3010E94360EA4CE8E8081FE54
:10160000A1CEBBCF69817A818B819C810E940E0E15
:1016100099CE69817A818B819C810E945E0E92CEE7
:1016200069817A818B819C810E94410D8BCE0E81D4
:101630000F70112329F0802F0E94770D8D81E6CE47
:101640008D810E942609802F0E94A80D7BCE2D81BE
:10165000223F99F160F4203FD9F0213F39F1112365
:1016600009F444C0011155CE8E818F7123C08D8144
:10167000833F41F1843F99F7112371F10E810F717E
:10168000802F0E94770D63E0802F0E94FE125ACEB9
:10169000112341F0053008F055CE8E818F710E94E4
:1016A000DD0D50CE063008F04DCEF7CF8E818F7114
:1016B000112351F20E94770D45CE8E818F71112337
:1016C000C9F3C2CF112329F08E818F710E94520D70
:1016D00039CE0E944D0D36CE81E00E9419130230A2
:1016E00008F430CE82E00E9419132CCE002381F042
:1016F0009D81993341F4EFEFF7EE23E0E150F040A4
:101700002040E1F7B1CE8FE39CE90197F1F7ACCE31
:101710008E818F7199CFED81E05FE73090F5F0E039
:10172000E55CFF4C0C94CF2F112309F40BCE809174
:101730003C0291E0892780933C0204CE10933C0246
:1017400001CE81E08127F7CF1111FCCD81E0F3CFED
:101750001111F8CD10923C02F5CD112319F00E9421
:101760002212F0CD0E942E12EDCD112339F080917E
:101770003B028823E1F210923B02E4CD0530B8F23F
:10178000E1CD80913B020023D9F0882341F0809184
:101790003C0291E0892780933C0210923B02111198
:1017A000B8CDEFE3FCE93197F1F700C000008D817F
:1017B0000E94D80886E0F60111928A95E9F7C2CD19
:1017C000882309F4BFCD1111BDCD80913C0291E079
:1017D000892780933C02CFCF26960FB6F894DEBFC0
:1017E0000FBECDBFDF91CF911F910F91FF90EF9072
:1017F000DF90CF90BF90AF909F908F907F906F9031
:1018000008950F931F93CF93DF93EC016881798143
:101810008A810E942C0F8C010E94860E0E94C20CAD
:10182000B801CE01DF91CF911F910F910C942D093A
:10183000CF93DF93EC01988189812B813C81232B0D
:1018400019F089238F3F59F4DF91CF910895CE018C
:101850000E94010CCE01DF91CF910C944707CE017D
:101860000E946C078111F3CF0E944812882361F314
:101870008A81882349F382E0DF91CF910C94191378
:10188000882321F00E9497120C94C812089588238F
:1018900021F00E949D120C94C812089590E080E0FF
:1018A0000E944F2690E080E00E9465260E94A512CB
:1018B0000E94A8120C94C8120E9412120C944E0C92
:1018C0000E9494120C945C0C282F892F82958F70A3
:1018D000903C80F48A30B0F4843020F4823090F46C
:1018E00080E008958630E1F781E0283E88F0213FCE
:1018F000B9F70EC08C3011F08F3091F793FB882729
:1019000080F9089581E0203F39F018F4283E40F72F
:101910000895243F29F7FCCF0895FC01808191812F
:101920000E94200F0C94640CCF93DF9300D000D062
:101930000F92CDB7DEB70F900F900F900F900F90D2
:10194000DF91CF910895CF93DF9300D000D000D0E6
:10195000CDB7DEB726960FB6F894DEBF0FBECDBF6B
:10196000DF91CF91089508950C94B30C0E94B40CAC
:101970006093690270936A0280936B0290936C0289
:101980000C944E0C08950C94B60CCF93DF9300D0BA
:1019900000D0CDB7DEB769837A838B839C83809137
:1019A000690290916A02A0916B02B0916C02298148
:1019B0003A814B815C81282B392B4A2B5B2B298365
:1019C0003A834B835C83CA01B9010F900F900F904B
:1019D0000F90DF91CF910C94B60CCF93DF9300D092
:1019E00000D0CDB7DEB769837A838B839C838091E7
:1019F000690290916A02A0916B02B0916C022981F8
:101A00003A814B815C81282339234A235B23298334
:101A10003A834B835C83CA01B9010F900F900F90FA
:101A20000F90DF91CF910C94B60CCF93DF9300D041
:101A300000D0CDB7DEB769837A838B839C83809196
:101A4000690290916A02A0916B02B0916C022981A7
:101A50003A814B815C81282739274A275B272983D4
:101A60003A834B835C83CA01B9010F900F900F90AA
:101A70000F90DF91CF910C94B60C0C94B30C0C9496
:101A80003D0D0E943F0D6093650270936602809346
:101A90006702909368020C944E0C60E070E0CB01FA
:101AA0000C94410D0F931F93CF93DF9300D000D080
:101AB000CDB7DEB741E050E060E070E08A019B0105
:101AC00004C0000F111F221F331F8A95D2F709830C
:101AD0001A832B833C83C901B8010F900F900F909C
:101AE0000F90DF91CF911F910F910C94410D0F93A7
:101AF0001F93CF93DF9300D000D0CDB7DEB741E086
:101B000050E060E070E004C0440F551F661F771F6F
:101B10008A95D2F78091650290916602A091670242
:101B2000B09168028A019B01082B192B2A2B3B2BB1
:101B300009831A832B833C83C901B8010F900F904E
:101B40000F900F90DF91CF911F910F910C94410D49
:101B50000F931F93CF93DF9300D000D0CDB7DEB7A4
:101B600041E050E060E070E004C0440F551F661F84
:101B7000771F8A95D2F74095509560957095809122
:101B8000650290916602A0916702B09168028A0195
:101B90009B01082319232A233B2309831A832B83C0
:101BA0003C83C901B8010F900F900F900F90DF9107
:101BB000CF911F910F910C94410D0F931F93CF93D1
:101BC000DF9300D000D0CDB7DEB741E050E060E059
:101BD00070E004C0440F551F661F771F8A95D2F727
:101BE0008091650290916602A0916702B0916802AF
:101BF0008A019B01082719272A273B2709831A8373
:101C00002B833C83C901B8010F900F900F900F9068
:101C1000DF91CF911F910F910C94410DCF93DF93E2
:101C200000D000D0CDB7DEB769837A838B839C83E5
:101C30008091650290916602A0916702B09168025E
:101C400029813A814B815C81282B392B4A2B5B2BD4
:101C500029833A834B835C83CA01B9010F900F90AB
:101C60000F900F90DF91CF910C94410DCF93DF93A4
:101C700000D000D0CDB7DEB769837A838B839C8395
:101C80008091650290916602A0916702B09168020E
:101C900029813A814B815C81282339234A235B23A4
:101CA00029833A834B835C83CA01B9010F900F905B
:101CB0000F900F90DF91CF910C94410DCF93DF9354
:101CC00000D000D0CDB7DEB769837A838B839C8345
:101CD0008091650290916602A0916702B0916802BE
:101CE00029813A814B815C81282739274A275B2744
:101CF00029833A834B835C83CA01B9010F900F900B
:101D00000F900F90DF91CF910C94410D0895E92F22
:101D1000EE0FE90FEE0FE80F8E2F877041E001C044
:101D2000440F8A95EAF7E695E695E69585E0E89F03
:101D3000F0011124E35CFD4F30E020E070E05191B0
:101D4000DF011197CB01022E02C0969587950A9468
:101D5000E2F7817081958527842385278C932F5FF7
:101D60003F4F2530310559F70895E92FEE0FE90F60
:101D7000EE0FE80F9E2F9770E695E695E69585E0C5
:101D8000E89FF0011124E35CFD4F50E040E080E06B
:101D9000219130E0092E02C0369527950A94E2F78A
:101DA00021703327042E01C0220F0A94EAF7822BF8
:101DB0004F5F5F4F4530510559F70895BF92CF925D
:101DC000DF92EF92FF920F931F93CF93DF938C01DB
:101DD000C0906502D0906602E0906702F0906802C1
:101DE0008091690290916A02A0916B02B0916C029D
:101DF000C82AD92AEA2AFB2ACFE1D0E0BC2ED70193
:101E0000C6010C2E04C0B695A795979587950A94A0
:101E1000D2F780FD0EC0219788F7B12C8B2DDF9172
:101E2000CF911F910F91FF90EF90DF90CF90BF90D7
:101E30000895B8018C2F0E941316019761F3EECF1D
:101E4000CF93DF93D82FC92F0E94DE0E6D2F7C2FEA
:101E5000DF91CF910C9413161F93CF93DF93162F1E
:101E6000D72F90913A02992339F0862F972FDF913F
:101E7000CF911F910C94200F882391F0862F972FDC
:101E80000E94DE0EC82F682F812F9D2F0E94870E83
:101E9000612F7D2F8C2FDF91CF911F910C94131602
:101EA000862F972F0E94B50EC82FF2CF1F93CF9386
:101EB000DF93E0916D0216E080916E028E1304C0F4
:101EC000DF91CF911F910895CE2FD0E01E9FF0019A
:101ED0001124E159FD4F40815181628173818481D8
:101EE00095810E94A30C2196EC2FE770E5CF4091DD
:101EF0009F025091A0026091A1027091A202809174
:101F0000A3029091A4020C94A30C1F93CF93DF9390
:101F10008091A402807FA9F48091A102882389F096
:101F200080916D02C0916E0270919F026091A0023B
:101F3000A091A202B091A302D62FD72316E0C81316
:101F400004C0DF91CF911F91089590E0109711F098
:101F5000DF3F19F401968770F2CF189F9001199F07
:101F6000300D1124F901E159FD4F41816413F2CF85
:101F700040814713EFCF42814111ECCF438154811F
:101F80004A1B5B0B4436510528F78091A4028F70E1
:101F900080618093A402F901EC58FD4F80818F701D
:101FA000806180838FE992E00E94180CDF91CF91CD
:101FB0001F910C94560FAF92BF92CF92DF92EF9287
:101FC000FF920F931F93CF93DF93CDB7DEB72B977D
:101FD0000FB6F894DEBF0FBECDBF8C0185E0F801CF
:101FE000DE01179601900D928A95E1F7F801E280E3
:101FF000C380D4808FE9A82E82E0B82E20919F0262
:102000009091A0024091A2025091A3024115510566
:1020100029F0892F82238F3F09F049C1EE2009F46E
:1020200055C1C8010E948D0CF82E882309F44EC1B9
:1020300086E0F801AFE9B2E001900D928A95E1F7F0
:102040008FE992E00E9480080E94850F00C1809174
:10205000A402682F607F4436510508F0A8C0F8013B
:1020600031816111E0C0FE2C391325C0908192139B
:1020700022C0E11020C08F7080618093A4020E9472
:10208000770F8FE992E00E94180C8091A402F8016A
:1020900085838F2D2B960FB6F894DEBF0FBECDBF74
:1020A000DF91CF911F910F91FF90EF90DF90CF9034
:1020B000BF90AF9008952F81CD2829F0832F8223E0
:1020C0008F3F09F0ADC080E0F82FF170DF2EE09176
:1020D0006D0240916E0256E080FD1CC0EE20C9F2F8
:1020E0008091A40281608093A402F12CD2CF8E2F24
:1020F00090E05E9FF0011124E159FD4F618136139C
:1021000006C06081621303C06281E612E7CF0196C8
:10211000E82FE770E413EBCF8F8198850E94200FA2
:10212000292F22952F70903260F0225F2F7022307D
:1021300078F49F7051F0F8019581907F31F4D12CA3
:102140000AC09F7011F08823D1F3805E8830B8F305
:10215000C8010E94180CFD2C9CCFC8010E948D0C58
:10216000882309F4B3C0EE2009F4B0C08091A40222
:10217000803270F020919F023091A0023A8329832F
:102180001B82DD82CC828E83CE0101960E94180CC8
:1021900086E0F801AFE9B2E001900D928A95E1F78F
:1021A0000E94850F0E94770FFF24F39472CF611174
:1021B00051C04F81588569857A858B850E94940C22
:1021C0008FE992E00E94180C86E0F50111928A9541
:1021D000E9F70E94770F89CF86E0F801AFE9B2E016
:1021E00001900D928A95E1F754CFC8010E948D0CA1
:1021F0008111CECF8091A40281608093A402C80196
:102200000E94180C46CF4F81588569857A858B8549
:102210000E94940C86E0F50111928A95E9F717C0A7
:1022200081E08E2551CF391398CFF8019081921318
:1022300094CFE11092CF8583C8010E94180C86E0EC
:10224000F801AFE9B2E001900D928A95E1F70E94A2
:10225000770F1FCFF801318193137FCFF801908161
:1022600092137BCFE11079CF8583C8010E94180CAF
:1022700086E0F50111928A95E9F70BCFF80181818B
:102280009813B3CFF80180818213AFCF8091A4025D
:1022900080FDA2CF982F907F09F49ECF8583903F39
:1022A00059F2982F907F905F8F70892BC4CFF09058
:1022B000A102B601641B750BAB01F110C8CE443608
:1022C000510508F0A0CFFE2CE110D8CFC8010E9424
:1022D000180C6ACF1F93CF93DF93CDB7DEB72C973F
:1022E0000FB6F894DEBF0FBECDBF4F835887698706
:1022F0007A878B879C87CE0107960E94DB0F882305
:1023000069F08A859B85892B39F058854F81852F07
:1023100084238F3F09F071C016E05FC086E0FE01A4
:102320003796DE01119601900D928A95E1F78F8123
:10233000988520916E0240916D026A857B85672B9E
:1023400059F389238F3F41F330E0C901019687702B
:1023500099274817190671F40E94600C10926E02BA
:1023600010926D0286E0EFE9F2E0DF011D928A959E
:10237000E9F7D2CF96E0929FD001939FB00D112440
:10238000A159BD4FFE01319601900D929A95E1F74A
:1023900080936E020E94560FBFCF819FC00111240F
:1023A00081599D4F0E94DB0F8823E9F0E0916D0277
:1023B0001E9FF0011124E159FD4F4081518162813E
:1023C0007381848195810E94A30C80916D0290E0BD
:1023D00001968770992780936D0280916D0290918C
:1023E0006E028913DACF2C960FB6F894DEBF0FBEBB
:1023F000CDBFDF91CF911F91089569857A858B8537
:102400009C850E94A30C88CF682F80910001909139
:1024100001010C94C726682F809100019091010161
:102420000C94C92680910001909101010C94CB2657
:102430008091A60285958595859508958091A6023F
:102440008770089582E08093A50281E080933C022A
:1024500008951092A50210923C0208958091A50261
:10246000823021F481E08093A5020895833011F435
:102470000C94291208958091A502823021F483E002
:102480008093A5020895813011F40C9429120895C7
:102490009091A602977081E009F480E00895CF93AF
:1024A000C82F8091520382FB992790F99C17D1F095
:1024B000C0FB82F9809352038091510390915203A3
:1024C0000E9456138091CA0280FF0CC01F92CF93C6
:1024D00087ED97E09F938F930E9473060F900F9064
:1024E0000F900F90CF9108958091520382FB88271F
:1024F00080F991E089270C944F1281E00C944F12DF
:1025000080E00C944F128091B20208959091B20233
:10251000982B9093B2020895982F90958091B202D3
:1025200089238093B20208951092B2020895909187
:10253000B102982B9093B1020895982F90958091B5
:10254000B10289238093B10208951092B1020895D7
:102550001092B00208958091A702089508950C94F6
:10256000AE129091520392FD08C09091A702981765
:1025700021F08093A7020C94AF1208958091A702D6
:10258000882329F01092A70280E00C94AF120895DE
:10259000E0910001F09101018091B2028083E0910D
:1025A0000001F091010180819091B102892B80831B
:1025B000E0910001F091010180819091B002892B9E
:1025C00080839091A702992381F0E0910001F0911E
:1025D00001018081892B808380910001909101010C
:1025E0000E947B2681110E94BE1280910001909171
:1025F00001010C94062608950C94FB12909152034D
:1026000092FD10C098E0899F90011124622B609385
:10261000A6020E94770D8091A602859585958595E5
:102620000C94FC120C94770D1092A60280E00C948E
:10263000FC129091A602809589238093A602282FF0
:10264000277039F4282F082E000C330B921713062D
:1026500021F49091520392FF07C085958595859549
:102660000E94A80D0C941413089590E080E00E943D
:10267000F32F9C0181E0293E3E4F09F080E0089550
:1026800082E090E00C94EB2F83E090E00C94EB2F31
:10269000CF9384E090E00E94EB2FC82F82E290E07D
:1026A0000E94EB2F982F8C2FCF910895CF93682FF6
:1026B000C92F84E090E00E94F92F6C2F82E290E015
:1026C000CF910C94F92FAB01BC018FE090E00C94FA
:1026D0000B30AB01BC0183E190E00C940B3060E067
:1026E00070E0CB010C94691360E070E0CB010E94B4
:1026F00063130C946F1369EE7EEF90E080E00E940C
:10270000173060E082E090E00E94F92F60E083E003
:1027100090E00E94F92F1092690210926A021092C2
:102720006B0210926C0260E084E090E00E94F92F4E
:1027300060E082E290E00E94F92F60E085E090E0A6
:102740000E94F92F60E086E090E00E94F92F6FEF81
:1027500087E090E00E94F92F40E050E0BA0188E065
:1027600090E00E940B3060E08DE090E00E94F92F35
:1027700040E050E0BA0188E190E00E940B3060E058
:1027800087E190E00E94F92F40E050E0BA018CE12F
:1027900090E00E940B3070E060E080E290E00E94E8
:1027A000173040E050E0BA0188E190E00E940B3021
:1027B0000C9474130C947B13682F8EE090E00C94AF
:1027C000F92F0E94C5276093C6027093C7028093B9
:1027D000C8029093C9026093C2027093C3028093AF
:1027E000C4029093C50208950E94C5276093C60253
:1027F0007093C7028093C8029093C9026093BE028F
:102800007093BF028093C0029093C102089585B770
:10281000806885BF85B7806885BF0895089508954D
:102820000C940E1408950C9412140E94071486EE52
:1028300099E20E9450280E940F140C9410140C94DA
:102840004919089508950E9421140C9422140E949D
:10285000B0270E94D3260E9427180E94631E80E0A2
:102860000E94C01E0E94501D0C941314CF93C82FB9
:102870008091CA0282FF1EC080FF1CC083EF97E0D8
:102880000E94DA058091CA0280FF14C01F92CF9384
:102890008EEE97E09F938F930E9473068091CA02F9
:1028A0000F900F900F900F9080FF04C08CEE97E078
:1028B0000E94DA058C2FCF910C94F0079F92AF9273
:1028C000BF92CF92DF92EF92FF920F931F93CF931D
:1028D000DF9300D000D00F92CDB7DEB70E94B618BC
:1028E000D82E81110E94E11384EBA82E82E0B82E2D
:1028F00010E000E0902E802F0E943117F82EF50195
:10290000E1905F01E81609F459C08091CA0281FD87
:102910000E9437178E2D8F25C12CEE24E394982F1B
:102920009E2109F446C00E941F14882399F0C98291
:102930009A82FE2081E009F480E08B830E94B9270F
:102940008160782F9D838C8349815A816B81892F87
:102950000E942D08F801EC54FD4F80818E25808364
:102960000E94B51D182F81110E94F4130E94A72008
:10297000D11001C011110E94391F0E94F3259091BE
:10298000B302891791F10E94F3258093B3020F904F
:102990000F900F900F900F90DF91CF911F910F919B
:1029A000FF90EF90DF90CF90BF90AF909F900C94EE
:1029B0003614C394EE0CF6E0CF12B1CF0F5F1F4F69
:1029C0000A30110509F096CF8FEF89838A831B8225
:1029D0000E94B9278160782F9D838C8349815A8119
:1029E0006B81892F0E942D08BBCF0F900F900F9005
:1029F0000F900F90DF91CF911F910F91FF90EF906B
:102A0000DF90CF90BF90AF909F900895CF93DF93CA
:102A10000E941716EC01811523E5920708F044C0C7
:102A2000811532E5930708F0C1C0883E9105E8F4AE
:102A3000803E910570F4883A910578F4853A9105C5
:102A400008F089C08130910521F00497813A910501
:102A500048F4CE01DF91CF910895885A91094797A4
:102A600008F47CC0D0E0C0E0F4CFC11581E5D80700
:102A7000B0F4C11520E5D20708F07BC0C11530E2E3
:102A8000D30728F4CF3FD10569F360F3E2CFCE013D
:102A900090548115904130F7DF70D06ADACFDC2F87
:102AA000CC27C16FD06AD5CF811537E5930768F57C
:102AB000C11586E5D80708F09FC0C11525E5D207E6
:102AC000C8F4C11534E5D30708F083C09E01237014
:102AD000332781E090E002C0880F991F2A95E2F722
:102AE000C695C69520E2C29FE0011124C82BD92BC0
:102AF000DA68AFCF8C2F0E94AF16C82FD0E0DC2F42
:102B0000CC27CC27DF71D062A4CF81153AE593079B
:102B100088F4C11589E5D80708F060C0CE01985542
:102B20008F3F910511F008F09DCFDC2FCC27C06FAF
:102B3000D06A8FCF90568115904208F093CF8D2F99
:102B40008F710E94AF1690E0982F882788279F7179
:102B50008C2BEC01D8CFA497D0647BCFC85AD0E09F
:102B6000CC0FDD1FCB56DE4F0990D881C02DD46429
:102B700070CF9E0164E0369527956A95E1F7237042
:102B80008C2F86958695837030E2839FC001112437
:102B9000922BC37021E030E002C0220F331FCA9590
:102BA000E2F7822B932BEC01DC6853CF9C0123705E
:102BB000332781E090E002C0880F991F2A95E2F741
:102BC000C695C69520E2C29FE0011124C82BD92BDF
:102BD000EBCFDC2FCC27C46FD06A3BCF8C2F8F700C
:102BE0000E94AF1634E0D695C7953A95E1F7CF70BD
:102BF0009C2FEC01D0692DCFDD27D0662ACF972FEF
:102C000070E026E0929F600D711D1124FB019CE392
:102C1000899FE00DF11D1124EE0FFF1FEC5DFE4FAB
:102C20008591949108950E94FF150C940615803E9D
:102C3000910599F1C8F48133910509F476C048F4FF
:102C40008932910509F46AC08A32910509F474C089
:102C5000089589339105D1F082389105B9F0853313
:102C6000910509F454C00895843E910599F138F412
:102C7000823E9105F9F0833E910509F10895863E63
:102C8000910599F1873E9105B9F10895209151037D
:102C90002370A1F080EE90E008952091510320FD73
:102CA00052C03091520330FF09C024FF4FC090E062
:102CB00080E004C02091510322FDF7CF08952091B8
:102CC000510322FD46C03091520330FDE3CF24FF73
:102CD000F5CFEDCF2091520321FFF0CF809151032A
:102CE00084FDE5CF87EE90E008952091510323FF06
:102CF000E5CF24FDDCCFF6CF2091510323FD2CC07E
:102D00003091520331FFE3CF84EE90E0089520919B
:102D1000510325FFD3CF89E290E00895209151031C
:102D200025FFCCCF85E390E008952091510326FF45
:102D3000C5CF8AE290E008952091510326FFBECFCF
:102D400081E390E0089589E390E0089583EE90E0B8
:102D5000089582EE90E0089586EE90E008959091B7
:102D6000510392FF06C0282F28712830F9F4877F7D
:102D7000846093FF06C0282F28712831F1F4877EE4
:102D800084612091520320FF06C0382F38713830FB
:102D9000D9F4877F816021FF06C0282F2871283150
:102DA000D1F4877E816194FD877E0895282F247158
:102DB0002430F9F68B7F8860DCCF282F24712431F2
:102DC00001F78B7E8861DDCF382F3171313019F7F3
:102DD0008E7F8860E0CF282F2171213121F78E7EF0
:102DE0008861E1CF0895CF93DF9300D000D0CDB7B5
:102DF000DEB70E943513811102C00E94DA130E94CF
:102E000040138093CA020E94481390935203809308
:102E100051030E94F2160E944413282F30E050E024
:102E200040E0CA01B9010E94C30C809165029091F3
:102E30006602A0916702B091680289839A83AB838E
:102E4000BC83BC01CD010F900F900F900F90DF91CC
:102E5000CF910C943F0D08950C942B1708950C946A
:102E60002E17E82FF0E0E35AFC4F80810895CF92AF
:102E7000DF92EF92FF920F931F93CF93DF9385E141
:102E800098E00E94DA058DE5E82E83E0F82ED0E088
:102E9000C0E090E1C92E98E0D92E08E018E0DF9359
:102EA000CF93DF92CF920E9473068DE098E00E944C
:102EB000DA05F70181917F010E94D4071F928F9359
:102EC0001F930F930E94730686E098E00E94DA0534
:102ED00021968DB79EB708960FB6F8949EBF0FBE89
:102EE0008DBFCA30D105D9F6DF91CF911F910F91D7
:102EF000FF90EF90DF90CF90089580EA8A95F1F7E8
:102F0000089500C008950C947D17F894E82FE29579
:102F1000EF70F0E041A18F7021E030E0B90102C014
:102F2000660F771F8A95E2F7CB01962F9095942331
:102F300091A392A1892B82A37894089508950C946B
:102F40009E17CF93DF93C9ECD1E089918F3F11F0A9
:102F50000E94851781E0CE3CD807B9F7C3ECD1E0D9
:102F600089918F3F11F00E94851781E0C93CD807F5
:102F7000B9F7DF91CF910895CF92DF92EF92FF9250
:102F80000F931F93CF93DF93EC01D62E062F10E003
:102F9000C80187539E4F7C01FC0180818F3F09F45B
:102FA0004BC0F894E82FE295EF70F0E091A18F709C
:102FB00021E030E001C0220F8A95EAF7892F822BA9
:102FC00081A382A12095282322A378940E948117AF
:102FD000E3ECF1E030E020E0C12C51E041914F3FC3
:102FE000A1F1A42FA295AF70A05EB0E08C9190E00B
:102FF0004F7002C0959587954A95E2F780FD25C0F0
:10300000952F022E01C0990F0A94EAF7C92A2F5F63
:103010003F4F2630310511F7F70180818F3F11F0C6
:103020000E94851761E0C11001C060E08D2D0E94F3
:103030008317C00FD11FC882DF91CF911F910F91CD
:10304000FF90EF90DF90CF90089590E0DFCF0E9447
:103050006E19809102018091020195E0811190E04A
:103060009093680385E0891B809367030E94A117F2
:103070008AE0E3E5F3E0DF01982F1D929A95E9F7E6
:10308000EDE5F3E0DF011D928A95E9F785E00E9406
:1030900012190E9454070C947819FF920F931F93F2
:1030A000CF93DF9300D000D00F92CDB7DEB70E9450
:1030B0004919F82E60916803882309F44AC01A82DE
:1030C0001982FE01339683E0DF011D928A95E9F7AC
:1030D000862F90E08E010F5F1F4FB801835A9C4FDF
:1030E0000E948619E0916703F0E0882329F1BF016F
:1030F000635A7C4FD8019E012A5F3F4FF12CFB01A0
:103100004191BF019D91491731F0AF0141505109E3
:10311000FA019083F82EA217B30789F70E945A0785
:103120008F2D0F900F900F900F900F90DF91CF91F8
:103130001F910F91FF900895E35AFC4F85E0DF0146
:10314000982F1D929A95E9F7D8011D928A95E9F773
:10315000E5CF70E0635A7C4F8091670390E0835A1B
:103160009C4F0E94321A0E949F17DACFDF92EF9293
:10317000FF920F931F93CF93DF93CDB7DEB72A97BC
:103180000FB6F894DEBF0FBECDBF1A821982FE01C2
:10319000339688E0DF011D928A95E9F7F12C8E01C4
:1031A0000F5F1F4F6F2DC8010E94BC17F394D02EE4
:1031B000E12EB5E0FB12F6CF4AE050E0B80183E51E
:1031C00093E00E94D52F8C0121E0892B09F420E0A7
:1031D0000115110549F08AE0ED2DFE2DA3E5B3E0C0
:1031E00001900D928A95E1F76091680370E0635A4F
:1031F0007C4F45E083E593E00E94131981E090E065
:10320000012B11F40E944D182A960FB6F894DEBFD8
:103210000FBECDBFDF91CF911F910F91FF90EF9027
:10322000DF9008950895FF920F931F93CF93DF933C
:10323000F82E092F162FD72FC42F222349F081E013
:103240008093CD020E94B9279093CC028093CB0249
:103250008091CD028823A1F08091CB029091CC0285
:103260000E94E527059760F0EF2DF02FA12FBD2FCD
:10327000CF018C0F911DE817F90741F41092CD0290
:10328000DF91CF911F910F91FF90089521912D9380
:10329000F2CFCF938091D002811116C0C8EC0E946A
:1032A000952F81110EC08FE39CE90197F1F700C0C3
:1032B0000000C150A1F782E08093D0020E94902FBD
:1032C00003C081E08093D00281E09091D0029130E0
:1032D00009F080E0CF9108950C9449190E946C196F
:1032E000809302010E94491981110C94D419089508
:1032F0000E944919811102C00C94D619089581E0E9
:103300009091D1029A3008F080E00895FF920F93D7
:103310001F93CF93DF93EC01162F072FF090D1026C
:1033200029E02F15D8F0612F702FCE010E94301A9E
:10333000C82F81112BC08091D1028F3F01F50E94CF
:10334000B9279093CF028093CE028091CA0280FF6A
:103350000EC087E398E00E94DA050AC08091CE0291
:103360009091CF020E94E527843F9140E0F6C0E0B3
:103370008C2FDF91CF911F910F91FF9008958F5F58
:103380008093D1028A30D8F6C1E0F2CF89E08F1560
:1033900040F48091CA0280FF04C084E298E00E9459
:1033A000DA051092D102E4CF0C942C240C942F2433
:1033B000CF92DF92EF92FF920F931F93CF93DF9301
:1033C000FA0169017801C82F880FDD0B3097B9F039
:1033D0008AE08C9FD0018D9FB00D1124AD5FBE4F50
:1033E00013968D919C9114978E529D4F12964C91ED
:1033F00050E0E417F50708F4AF010E94E22FCE0178
:103400000E943A25892B11F5E114F104E9F08AE0D4
:103410008C9FF0018D9FF00D1124ED5FFE4F4581D3
:1034200050E0E416F50608F4A7018AE08C9FF0014D
:103430008D9FF00D1124ED5FFE4F668177816E52F6
:103440007D4FC6010E94E22F81E001C080E0DF9144
:10345000CF911F910F91FF90EF90DF90CF90089543
:103460000C94831C0C94C61C0F931F93CF93DF9373
:10347000CDB7DEB728970FB6F894DEBF0FBECDBF2D
:103480008091F8029091F902A091FA02B091FB02AA
:10349000BC01CD010E94F42711E06436710581055D
:1034A000910520F10E940527DC01CB010296A11DA8
:1034B000B11D89839A83AB83BC8310E000E030E0C8
:1034C00020E044E050E0BE016F5F7F4F84E00E9447
:1034D000D819182F882351F00E94C5276093F8024D
:1034E0007093F9028093FA029093FB02812F289641
:1034F0000FB6F894DEBF0FBECDBFDF91CF911F9105
:103500000F9108957F928F929F92AF92BF92CF9228
:10351000DF92EF92FF920F931F93CF93DF93E82EEA
:10352000992E862E772E042FF52E69010E947F1981
:10353000AA24A394B12C882319F08AE0A82EB12CD8
:10354000C1E0D0E0F894682D772D8E2D992DF601ED
:103550000995182F7894811114C02196AC16BD06D8
:10356000FCF48091CA0280FF0CC0FF920F938DE69D
:1035700098E09F938F930E9473060F900F900F9087
:103580000F90812FDF91CF911F910F91FF90EF90BE
:10359000DF90CF90BF90AF909F908F907F900895D5
:1035A000CC9F9001CD9F300D300D112490E080E034
:1035B00045E34A95F1F70000019628173907C1F74E
:1035C000C1CFAF92BF92CF92DF92EF92FF920F9353
:1035D0001F93CF93DF9300D000D000D0CDB7DEB7DC
:1035E0008D837B01A42ED22E3E83B02EC12EDB0113
:1035F0008D919D910D90BC91A02DBC01CD010E949B
:10360000F427643671058105910510F4AA2039F17B
:1036100010E000E030E020E04B2D5C2D6D2D7E8130
:103620008D810E94D8198983882339F00E94C5278B
:10363000F7016083718382839383898126960FB615
:10364000F894DEBF0FBECDBFDF91CF911F910F91D8
:10365000FF90EF90DF90CF90BF90AF900895F1E092
:10366000F983EBCF0F931F93CF93DF930F92CDB7D7
:10367000DEB70E94A3208983E091D301F091D401A9
:10368000248990E041E02817190609F440E001E0A0
:1036900010E09E012F5F3F4F64E073E087E00E94DF
:1036A000E11A0F90DF91CF911F910F9108950F9321
:1036B0001F93CF93DF93C091D301D091D40141E008
:1036C0000C851D852E853F8580916502909166024F
:1036D000A0916702B0916802081719072A073B07F3
:1036E00009F440E004E010E025E632E060E073E039
:1036F00085E00E94E11A8823E1F041E008891989F8
:103700002A893B898091690290916A02A0916B029B
:10371000B0916C02081719072A073B0709F440E02B
:1037200004E010E029E632E06CEF72E086E00E94EF
:10373000E11ADF91CF911F910F9108956F927F92BF
:103740008F929F92AF92BF92CF92DF92EF92FF92B1
:103750000F931F93CF93DF9300D000D00F92CDB77C
:10376000DEB7662E5A01722E832E902EC12E01E0F6
:1037700010E09E012F5F3F4F50E040E070E060E0BE
:103780000E94D819D82E882309F449C0D5018D91FB
:103790009D910D90BC91A02DBC01CD010E94F427FC
:1037A000643671058105910590F18701272D382D2B
:1037B00050E040E070E060E0862D0E94D819D82EDD
:1037C000B701892D9C2D0E94641E91E02981281348
:1037D00090E0D92239F00E94C527F50160837183FA
:1037E000828393838D2D0F900F900F900F900F90E9
:1037F000DF91CF911F910F91FF90EF90DF90CF90CD
:10380000BF90AF909F908F907F906F900895B70179
:10381000892D9C2D0E94641E99818913C6CFA70112
:10382000692D7C2D872D982D0E94E22FDBCFEF9202
:10383000FF920F931F93CF93DF930F92CDB7DEB715
:103840000091D3011091D401095F1F4FEE24E3943E
:10385000F12C9E012F5F3F4F44EF52E063E082E086
:103860000E949E1B182F882321F0CE0101960E94F2
:10387000241E812F0F90DF91CF911F910F91FF9008
:10388000EF900895CF92DF92EF92FF920F931F93E4
:10389000CF93DF9300D000D00F92CDB7DEB76B018E
:1038A0000091D3011091D4010F5F1F4F85E0E82EE6
:1038B000F12C9E012F5F3F4F40EF52E061E080E02E
:1038C0000E949E1B882349F095E0FE013196ABEEE5
:1038D000B2E001900D929A95E1F795E0EBEEF2E0FF
:1038E000D60101900D929A95E1F70F900F900F90ED
:1038F0000F900F90DF91CF911F910F91FF90EF905C
:10390000DF90CF9008950F931F93CF93DF93D82F1D
:10391000C92F8B0122E43CE145ED51E00E94821A5F
:10392000882371F127E13CE142EE51E0B8018D2F8F
:103930009C2F0E94821A882319F124E33AE14AEE6F
:1039400051E0B8018D2F9C2F0E94821A8823C1F06C
:1039500027E53BE145EF51E0B8018D2F9C2F0E94F8
:10396000821A882369F022E33BE141E052E0B8018A
:103970008D2F9C2FDF91CF911F910F910C94821A64
:1039800080E0DF91CF911F910F910895CF92DF9248
:10399000EF92FF920F931F93CF93DF930F92CDB7C8
:1039A000DEB7FB01F8940091D3011091D401C80156
:1039B000019625E0DC0101900D922A95E1F765E082
:1039C00070E00E94641EF80180837894F894CE0120
:1039D00001960E941B1E8981F801878361E070E0D7
:1039E000CE0101960E94641EF80186837894F894B3
:1039F0006085718582859385C090E702D090E8024A
:103A0000E090E902F090EA026C157D058E059F05B5
:103A100051F06093E7027093E8028093E90290937B
:103A2000EA020E94DC267894F894F8018485958552
:103A3000A685B7858093650290936602A09367027E
:103A4000B093680280899189A289B38980936902C1
:103A500090936A02A0936B02B0936C027894F894EE
:103A60008489882369F00E94391F78940F90DF9130
:103A7000CF911F910F91FF90EF90DF90CF9008951D
:103A80000E948420F2CF0E9436270E94472A0E947B
:103A9000602A0E94762A0E942314FBCF0C947C0695
:103AA000CF93DF9380910201811106C084EF809350
:103AB000540185EF8093530140915401A42FA295A6
:103AC000AF70E1E2EA0FF0E030814F7081E090E00A
:103AD000BC01042E01C0660F0A94EAF7262F209538
:103AE00023232083E2E2EA0FF0E02081262B2083CB
:103AF00030915301E32FE295EF70C1E2CE0FD0E099
:103B000028813F70032E01C0880F0A94EAF7982F8E
:103B1000909592239883C2E2CE0FD0E09881892BB2
:103B20008883A05EB0E02C91E05EF0E0808190E0C0
:103B300002C0959587953A95E2F78170880F30E03D
:103B400002C0359527954A95E2F72170822B809324
:103B50000D039091020181E0982790930903891B3E
:103B600080930803DF91CF910895CF934091540142
:103B7000E42FE295EF70E05EF0E020813091530198
:103B8000E32FE295EF70E05EF0E0808190E03F701F
:103B900002C0959587953A95E2F7880F991F827034
:103BA000992730E04F7002C0359527954A95E2F786
:103BB00021703327822BE0910D03EE0FEE0FE82BDF
:103BC000E0930D03C0910903EF70F0E0EA5FFD4F51
:103BD000808190910C03890F80930C0320E0823048
:103BE00064F0EC2FF0E0E65FFC4F80818F5F808314
:103BF00060E08C2F0E944E1D21E080910C038F3FCE
:103C000064F4EC2FF0E0E65FFC4F8081815080830C
:103C100061E08C2F0E944E1D21E080910C03082E44
:103C2000000C990B62E070E00E94BB2F80930C03A4
:103C3000822FCF910895E0910903F0E0E65FFC4FF9
:103C40002081FC0120830895FF920F931F93CF934F
:103C5000DF93D09108030D2F10E0065F1C4FFC018D
:103C6000C081F8018081C81BFC2E80E01F147CF00D
:103C70009C2FC7FD90E0C91BC11114C08823E9F037
:103C8000DF91CF911F910F91FF900C94F413FA9450
:103C9000F80180818F5F808360E08D2F0E944E1D30
:103CA00081E0E4CFCF5FF80180818150808361E0C3
:103CB0008D2F0E944E1D81E0DFCFDF91CF911F91AC
:103CC0000F91FF9008950895FC01680F791F8FEF01
:103CD00091E36E177F0709F408952191822728E068
:103CE00030E087FF06C0880F892721503109C9F7C6
:103CF000F0CF880FFACFCF92DF92EF92FF920F931F
:103D00001F93CF93DF936C017B0164E670E088E73B
:103D10000E94C122EC018601EC0CFD1C97FD0EC037
:103D2000F801849164E670E00E943A23EC01892B4B
:103D300029F40F5F1F4FE016F10691F70E94C72389
:103D4000CE01DF91CF911F910F91FF90EF90DF9007
:103D5000CF9008950895EAE6F3E080E092E0DF0175
:103D60009C011D9221503040E1F7F0937105E093E2
:103D700070058FEF9FEF9093340380933303089582
:103D8000CF93DF9300D000D0CDB7DEB70E94AA1E3C
:103D900090E280FF90E880932F0390932E030E947F
:103DA000BB226DE070E08BE899E00E947B1E892BBE
:103DB00061F08FE699E00E94DA0580E00F900F90A5
:103DC0000F900F90DF91CF91089580912F0363E0C2
:103DD00070E081FD09C08CE699E00E947B1E892B72
:103DE00061F086E499E0E7CF83E499E00E947B1ECE
:103DF000892B19F08BE299E0DECF6DE070E08EE167
:103E000099E00E947B1E892B19F087E099E0D3CFBF
:103E10000E94C527DC01CB01805A9541AF4FBF4FAF
:103E200080936C0590936D05A0936E05B0936F051C
:103E30000E94AB1E81E08093320380933103109285
:103E40003003BCCF20912E0336E0839FC0011124A4
:103E5000629F800D911D1124811522E0920714F0BC
:103E600090E080E086599C4F909371058093700597
:103E70000895CF93DF9300D000D0CDB7DEB7809107
:103E80003203811109C0809131030F900F900F9080
:103E90000F90DF91CF9108950E94C527DC01CB01DF
:103EA000805A9541AF4FBF4F80936C0590936D053D
:103EB000A0936E05B0936F05809131038111E3CF1C
:103EC00062E070E08EEA98E00E947B1E892B29F068
:103ED0008AE998E00E94DA05D6CF81E08093310329
:103EE000D2CF2F923F925F926F927F928F929F924A
:103EF000AF92BF92CF92DF92EF92FF920F931F93F8
:103F0000CF93DF9380913203882369F020913303AC
:103F1000309134032115310531F08091300361E097
:103F200070E0882399F0DF91CF911F910F91FF905E
:103F3000EF90DF90CF90BF90AF909F908F907F9049
:103F40006F905F903F902F9008958F5F082F10E043
:103F50001B01082E02C0220C331C0A94E2F7A901AF
:103F600042215321452B89F320912F03922F9170E9
:103F700020FD32C098013695279536952795829574
:103F8000880F80763FE1380F8093570120935A01C4
:103F90003093580190935B0124E630E047E050E015
:103FA00065E571E088E70E946923892BE9F084EEDA
:103FB00098E0DF91CF911F910F91FF90EF90DF90EC
:103FC000CF90BF90AF909F908F907F906F905F90B9
:103FD0003F902F900C94DA05880F880F880F37E0F8
:103FE000380F20E093E0D0CFA80125E0440F551F03
:103FF0002A95E1F780912F0380FD10C046595C4F50
:1040000004E610E020E230E060E488E70E949623B6
:10401000892B09F469C08BEC98E0CBCFEEE0F3E09C
:1040200080E2DF011D928A95E9F7AAE1B2E006E19C
:1040300012E08EE1C82E82E0D82E97E0592E772428
:1040400073949D91E80189918E01BA01680F711DE9
:1040500066597C4FE92FF0E0E25FFC4F90E080E092
:10406000652C681A872C082E01C0880C0A94EAF780
:104070007B01A12CE701B9907E01B820262D2A19D9
:104080002770922E022E000C330BDB2D01C0DD0FAA
:104090009A94EAF79D2E319521953109277033279F
:1040A00001C0B6942A95EAF79B282081922A908233
:1040B000A39428E0A212DECF0196319688309105B4
:1040C00079F6CA16DB0609F0BCCF04E610E020E260
:1040D00030E04EE053E060E488E70E949623892BAD
:1040E00019F080EB98E065CF0E94391FE101C0957F
:1040F000D09580913303909134038C239D2390932A
:104100003403809333030FCF8091310390913203B6
:10411000911103C091E089270895882389F062E016
:1041200070E088E998E00E947B1E892B39F083E8D3
:1041300098E00E94DA0580913103089510923103CE
:1041400080913103E7CF8091310308950895CF9393
:10415000DF9300D000D0CDB7DEB780913203882343
:1041600009F43FC080916A0590916B050E94E52794
:10417000C29760F00E94B92790936B0580936A05FF
:1041800060E080E00E94221F0E94A6200E94711F12
:1041900080913103882329F10E94C52769837A839E
:1041A0008B839C8380916C0590916D05A0916E0529
:1041B000B0916F0529813A814B815C81281B390BB5
:1041C0004A0B5B0BDA01C9018F3F9F4FAF4FBF47CF
:1041D00040F40F900F900F900F90DF91CF910C94BF
:1041E00084200F900F900F900F90DF91CF91089542
:1041F0000F931F93CF93DF93C42FD22FFC018281A3
:104200008823C9F0409337030E94B927909336035F
:104210008093350380E28C0F883008F050C0C7705F
:1042200081E001C0880FCA95EAF7DF91CF911F9115
:104230000F910C941F0910913703141335C080910E
:104240003503909136030E94E5278436910560F589
:10425000C0E2CD0F1D17B9F080E2810F883040F425
:10426000177081E001C0880F1A95EAF70E942609AD
:10427000C83048F481E09D2F977001C0880F9A954F
:10428000EAF70E941F09802F0E941709C830B8F46E
:10429000D77081E001C0880FDA95EAF7DF91CF91FE
:1042A0001F910F910C94260980E28C0F883038F40E
:1042B000C77081E001C0880FCA95EAF7EFCFDF91A0
:1042C000CF911F910F9108950F939C01CB01243F33
:1042D0004CE53407A1F190F4293DFCE53F0749F195
:1042E0002A3D4CE53407E9F1283D3C45C1F0FC018D
:1042F00082818823E1F11092370319C0263FFCE543
:104300003F0719F1273F4CE5340729F1253F3C458C
:1043100071F707E225EE44EE65EF7CE505C006E2A5
:1043200021EE41EE68ED7CE50E94F82080E00F91DF
:10433000089507E225EE45EE69ED7CE5F5CF06E24E
:1043400021EE40EE64EF7CE5EFCF06E221EE42EE97
:1043500066EF7CE5E9CF07E225EE46EE67EF7CE508
:10436000E3CF08E221E045EE6AED7CE5DDCF81E0B8
:10437000DECFCF93DF93EC01FB018281882309F428
:10438000CEC0C631FCE5DF07E0F4C2309CE5D907BA
:10439000F0F00E9448139093520380935103C6316A
:1043A000ECE5DE0720F5C230FCE5DF0798F48091EC
:1043B0005103909152030E9456130E94600C80E0BA
:1043C00006C09E012B5F3C452930310510F3DF917B
:1043D000CF910895FE01E350FC4580915103816027
:1043E000E331F105B0F4EE5BFF4C0C94CF2FCE011E
:1043F0008B5F9C450997D8F6FE01EC5FFC45E830E1
:10440000F10590F4EB5AFF4C0C94CF2F809151039F
:10441000826080935103CBCF809151038460F9CFA8
:10442000809151038860F5CF809152038160809321
:104430005203BDCF809152038260F9CF8091510326
:104440008061E7CF809151038062E3CF8091510377
:104450008064DFCF0E94600C809151038068D9CFC7
:10446000809151038C60D5CF809152038360DFCF60
:10447000809151038E7FCDCF809151038D7FC9CF25
:10448000809151038B7FC5CF80915103877FC1CF2E
:10449000809152038E7FCBCF809152038D7FC7CF07
:1044A000809151038F7EB5CF809151038F7DB1CF25
:1044B000809151038F7BADCF0E94600C809151039E
:1044C0008F77A7CF80915103837FA3CF8091520331
:1044D0008C7FADCF8091510382FB992790F921E029
:1044E000922790FB82F990FB83F993CF809152033E
:1044F000982F909591708E7F892B90FB81F997CFA3
:104500000E94600C90915103892F97FB87F9805886
:1045100080CF81E00E94DC134ACF80E0FBCF81E0B6
:1045200056CFCF93DF93EB0186319C4511F50E9466
:1045300083129A81992399F08A7A91E009F490E0A4
:1045400090933803811109C089E20E9404120E94ED
:10455000C81280E0DF91CF91089585E3F6CF809176
:104560003803811104C089E20E940B12F0CF85E369
:10457000FBCF81E0EFCF1092B9008CE08093B800C0
:1045800008959F92AF92BF92CF92DF92EF92FF92E7
:104590000F931F93CF93DF93B82EEB010E94B9279F
:1045A0006C01EE24E394F12CC431D10560F025E0D8
:1045B000E22EF12CCF3FDC0731F0CE0164E170E058
:1045C0000E94A72F7B0184EAA82E94E8992E1092CE
:1045D000BC00A092BC000E94B9278C018091BC0055
:1045E00087FF0CC08091B900887F883031F18091BD
:1045F000B900887F803109F10FEF08C00E94B92708
:10460000801B910B8E159F0548F30EEF1FEFCF3FD8
:10461000DC07E9F2C6010E94E5278C179D07B8F276
:10462000C801DF91CF911F910F91FF90EF90DF9024
:10463000CF90BF90AF909F900895B092BB009092A2
:10464000BC000E94B9278C018091BC0087FF0AC082
:104650002091B900287F283111F0203469F600E05C
:1046600010E0DECF0E94B927801B910B8E159F05AD
:1046700058F3CBCF0F931F93CF93DF93EB0180932E
:10468000BB0084E88093BC000E94B9278C01809114
:10469000BC0087FF11C02091B900287F81E090E025
:1046A000283211F490E080E0919581959109DF9195
:1046B000CF911F910F910895CF3FDC0741F30E94E6
:1046C000B927801B910B8C179D0708F38EEF9FEF86
:1046D000EECFCF92DF92EF92FF920F931F93CF9383
:1046E000DF936B018A01F22EE32E622F732F0E945B
:1046F000C122AC01E6010C0D1D1DC017D10711F040
:1047000057FF0DC084E98093BC00CA01DF91CF91AF
:104710001F910F91FF90EF90DF90CF9008956F2D34
:104720007E2D89910E943A23AC01E7CFCF92DF9290
:10473000EF92FF920F931F93CF93DF93C62F6A01DF
:104740007901B8010E94C1229C0197FD0DC0B801FA
:104750008C2F0E943A239C01E601EC0CFD1CCE1527
:10476000DF0511F037FF0DC084E98093BC00C9015B
:10477000DF91CF911F910F91FF90EF90DF90CF903D
:104780000895B80189910E943A239C01E8CF84E9F9
:104790008093BC0008958EE14A9B02C08150E1F7EE
:1047A0004A9BFECF08955A9880E28A95F1F75A9A6B
:1047B0000895FC013BE03A95F1F798E020E080E0B5
:1047C00031E040E14A95F1F7880F4A9B02C08160D1
:1047D000232742E04A95F1F7000040E14A95F1F7BE
:1047E000915079F790E19A95F1F799B132E03A95C5
:1047F000F1F7000040E14A95F1F792FB992790F913
:1048000092272081920F90830895EF92FF920F9349
:104810001F93CF93DF930F92CDB7DEB719828C0130
:104820007C01E60EF11C0E151F0561F481E09981F3
:10483000911180E00F90DF91CF911F910F91FF9028
:10484000EF9008950E94CB23CE0101960E94D923B8
:10485000F80181938F01E7CF529A5A9A089552989E
:104860005A9AEA9AE9E6F0E080818F7C8083089585
:104870006150770B91E001C0990F6A95EAF720E04B
:1048800031E0911108C0222391F05A9A80E28A9572
:10489000F1F75A980895492F482339F05A9A232757
:1048A00040E24A95F1F79695ECCF5A98F9CF5A988D
:1048B000EDCFFF920F931F93CF93DF93EC018C0109
:1048C000060F111DC017D10731F4DF91CF911F9151
:1048D0000F91FF900895F9900E94D32368E08F2DE7
:1048E0000E943824EFCF1F920F920FB60F9211241F
:1048F000EF92FF920F931F932F933F934F935F93EA
:104900006F937F938F939F93AF93BF93EF93FF9397
:10491000CF93DF930F92CDB7DEB719820E94CB23DE
:10492000CE0101960E94D923282FA82FA695A695DF
:10493000A695982F929595708A2F8570980F892F3C
:10494000837096959695890F822787709981892B18
:1049500009F075C0A93008F072C080E18A95F1F7BE
:104960005A9A529AB2E0BA95F1F700C0EA2EF12CA9
:104970005A98EAE0AE9FD0011124AD5FBE4F189661
:10498000ED91FC9119973097B1F06091D30170913E
:10499000D40116962D913C911797260F371F139629
:1049A0008D919C911497680F791F15964C911597CE
:1049B00012968C9109958AE08E9DF0018F9DF00DE5
:1049C0001124ED5FFE4F6581662351F02091D301E4
:1049D0003091D40186819781820F931F0E945924C0
:1049E0000E94D323F0E1FA95F1F75A9852985A9A17
:1049F00080E18A95F1F78AE08E9D80018F9D100DF0
:104A000011240D5F1E4FD80112966C9112976623E8
:104A100071F12091D3013091D40113968D919C9125
:104A2000820F931F0E940524D801ED91FC918823E9
:104A300011F088E001C082E080830E94CB230F90B8
:104A4000DF91CF91FF91EF91BF91AF919F918F91A6
:104A50007F916F915F914F913F912F911F910F9196
:104A6000FF90EF900F900FBE0F901F901895ED9153
:104A7000FC91DFCF0F931F93CF93DF93EC01099746
:104A80000CF0A9C08AE08C9FF0018D9FF00D1124DD
:104A9000ED5FFE4F80819181892B09F49CC0F894D1
:104AA000529A5A9885E08A95F1F700008C2F8695E6
:104AB00085709C2F9570890F982F93708695869599
:104AC000890F8E0193E0000F111F9A95E1F7082BD3
:104AD0000E94D32300C068E0802F0E943824A0E108
:104AE000AA95F1F752985A9A4A9B27C087E090E01E
:104AF0004A9925C08AE08C9F80018D9F100D11245A
:104B00000D5F1E4FF80165816623A1F12091D3014D
:104B10003091D40186819781820F931F0E940524D2
:104B2000811128C0529A5A9AD801ED91FC9182E0E5
:104B30008083789482E090E016C000C0D5CF0197C2
:104B4000B9F4529A5A9A8AE08C9FF0018D9FF00D29
:104B50001124ED5FFE4F0190F081E02D81E0808314
:104B6000789481E090E0DF91CF911F910F910895AB
:104B700000C0BECF0E94CB23B0E2BA95F1F75A989D
:104B8000529AE0E1EA95F1F78AE08C9FF0018D9F5F
:104B9000F00D1124ED5FFE4F6281662351F02091EC
:104BA000D3013091D40183819481820F931F0E949D
:104BB00059240E94D3238AE08C9FF0018D9FF00D31
:104BC0001124ED5FFE4F0190F081E02D108278946A
:104BD00090E080E0C8CF84E090E0C5CF90933F03A1
:104BE00080933E0308950E944919811103C080916A
:104BF00039030895E0913E03F0913F03309721F08F
:104C00000190F081E02D099480E00895EF92FF92E9
:104C10000F931F93CF93DF938C01E0913E03F091AC
:104C20003F033097A9F10280F381E02D099580912F
:104C3000CA0282FF2DC080FF04C080EA99E00E9472
:104C4000DA05E801C80108967C010AE919E08091BB
:104C5000CA0280FF0BC088811F928F931F930F930E
:104C60000E9473060F900F900F900F902196CE1513
:104C7000DF0569F78091CA0280FF0AC088E999E0E0
:104C8000DF91CF911F910F91FF90EF900C94DA0577
:104C9000DF91CF911F910F91FF90EF900895209198
:104CA0003C0330913D032817390771F090933D0381
:104CB00080933C03E0913E03F0913F03309721F055
:104CC0000680F781E02D0994089520913A033091F0
:104CD0003B032817390771F090933B0380933A0305
:104CE000E0913E03F0913F03309721F00084F1857D
:104CF000E02D09940895AC019C012E5F3F4F485F61
:104D00005F4F80E02417350709F40895F901919168
:104D10009F019923B9F38F5FF5CF9C01662351F072
:104D2000FC013296285F3F4F8191861729F0E217E8
:104D3000F307D1F780E0089581E008959C01FC011C
:104D400032968FEF90E04191461751F08F3F19F462
:104D5000411101C0892F9F5F9630A9F78F3F09F459
:104D60000895280F311D87FD3A95F9016283089552
:104D70009C01FC013296285F3F4F8191861303C04E
:104D8000DF0111971C92E217F307B9F708950C940D
:104D90009E260C94B826FC01329686E0DF011D9217
:104DA0008A95E9F708951092720510927305109292
:104DB0007405109275050895CF92DF92EF92FF92DD
:104DC000CF93DF9300D000D0CDB7DEB76B017C016D
:104DD0000E94491981110EC00E94C527C61AD70A20
:104DE000E80AF90AC0927205D0927305E092740540
:104DF000F09275050F900F900F900F90DF91CF916B
:104E0000FF90EF90DF90CF900895CF93DF9300D085
:104E100000D0CDB7DEB70E944919882341F00F902A
:104E20000F900F900F90DF91CF910C94C5270E94A7
:104E3000C52769837A838B839C83809172059091C7
:104E40007305A0917405B091750529813A814B8154
:104E50005C81280F391F4A1F5B1FCA01B9010F90DF
:104E60000F900F900F90DF91CF91089508950895BE
:104E700008950C94382780917E05843049F10E9472
:104E8000392780E00E94F0071092400388E190E00B
:104E900020E40FB6F894A895809360000FBE20938D
:104EA000600083B7817F846083BF83B7816083BFE5
:104EB0007894889583B78E7F83BF0FB6F894A895B2
:104EC00080916000886180936000109260000FBE46
:104ED00008950895CF930E9437270E94B6180E9424
:104EE0006927C0E08C2F0E943117811105C0CF5F68
:104EF000CA30C1F7CF91089581E0FCCF08950C949A
:104F00007E270E94600C0E94F3250E94F0070C94FB
:104F10007F271F921FB61F9211248F939F93AF93E9
:104F2000BF9380914003811113C0809176059091C9
:104F30007705A0917805B09179054196A11DB11D25
:104F40008093760590937705A0937805B0937905C3
:104F5000BF91AF919F918F911F901FBE1F90189589
:104F600082E084BD93E095BD9AEF97BD80936E007B
:104F700008952FB7F8948091760590917705A091C8
:104F80007805B09179052FBF0895CF93DF9300D0B6
:104F900000D0CDB7DEB78FB7F89420917605309169
:104FA0007705409178055091790529833A834B83A1
:104FB0005C838FBF69817A818B819C810F900F9078
:104FC0000F900F90DF91CF9108959C014FB7F89407
:104FD0008091760590917705A0917805B09179053B
:104FE0004FBF821B930B08950F931F93CF93DF93B3
:104FF00000D000D0CDB7DEB7462F572FBC012FB75A
:10500000F8948091760590917705A0917805B091FC
:1050100079052FBF8C019D01041B150B260B370B47
:10502000C901B8010F900F900F900F90DF91CF91B1
:105030001F910F91089578941F921FB61F9211240B
:105040008F939F93AF93BF9380917605909177054F
:10505000A0917805B09179050196A11DB11D8093AD
:10506000760590937705A0937805B0937905BF9165
:10507000AF919F918F911F901FBE1F90189587E74A
:1050800097E7909301088093000888E19AE00FB6B3
:10509000F894A895809360000FBE90936000FFCFB6
:1050A00090932F0280932E02089580914F030895CC
:1050B00090917E05943031F58093430360934403CF
:1050C0007093450382E08093E9008FEF9091E800B0
:1050D000815095FD06C095ED9A95F1F7000081117C
:1050E000F5CF8091E80085FF0DC050E040E063E01F
:1050F00070E083E493E00E94062B8091E8008E77B5
:105100008093E8000895BC0184E00C945828BC0109
:1051100083E00C945828CF93DF93D82FC92F81E0D8
:105120008093E9008FEF9091E800815095FD06C0D3
:1051300095ED9A95F1F700008111F5CF8091E80087
:1051400085FF16C050E040E068E070E08D2F9C2F96
:105150000E94062B8091E8008E778093E80088E01B
:10516000ED2FFC2FA7E4B3E001900D928A95E1F7B3
:10517000DF91CF910895089587ED99E00E94DA05B7
:1051800080917D05811109C00E948E2C0E94EB2C1C
:105190008091E20084608093E200089583ED99E0BD
:1051A0000E94DA0510927D0508958FEC99E00C9429
:1051B000DA058BEC99E00C94DA0587EC99E00C9415
:1051C000DA05209142032F5F822F62E30E949B2F1A
:1051D000992319F02093420308951092420380917D
:1051E00046038823E9F080917E058430B9F49091DC
:1051F000E9008091EC008795882787959F70892B1F
:1052000093E09093E9009091EB0090FF04C090919F
:10521000EE0097FD08C08F708093E900109246035E
:1052200008951092F1009091E80095FDFACF9091C9
:10523000E80090FFF0CF9091E8009E779093E8000F
:10524000EACF42E061EC81E00E940A2C42E261EC8C
:1052500082E00E940A2C42E261EC83E00C940A2C6A
:1052600080918005893089F148F4823009F49DC02D
:10527000833009F458C0813041F008958A3009F430
:1052800084C08B3009F46AC0089580917F05813A0B
:1052900009F048C08091E800877F8093E800809102
:1052A000830590918405892B61F468E087E493E09D
:1052B00070E00E94552B8091E8008B778093E80086
:1052C000089560E090E080E0F3CF80917F05813227
:1052D00049F58091830590918405029718F5809196
:1052E000E800877F8093E8008091E80082FF16C085
:1052F0009091F3008091F200029729F48091F100DF
:105300008B7F813021F48091F10080934F03809155
:10531000E8008B778093E8000C943E2C80917E050A
:105320008111E2CF089580917F05813AD9F780916C
:10533000830590918405892BA9F78091E800877FE8
:105340008093E8008091E80080FFFCCF80916601A7
:105350008093F1008091E8008E77DCCF80917F050B
:10536000813201F78091830590918405892BD1F6D4
:105370008091E800877F8093E8000E943E2C809116
:105380008105809366010C94600C80917F058132C9
:1053900049F68091E800877F8093E8000E943E2CC8
:1053A0008091820580935003089580917F05813A12
:1053B00009F0B8CF8091E800877F8093E800809162
:1053C000E80080FFFCCF80915003C2CF9FB7F894D4
:1053D000109246039FBF90917E05943009F047C01C
:1053E0002091E9009091EC009795992797952F705F
:1053F000922B23E02093E9002091EB0020FF34C0A2
:105400002091EE0027FF30C020914103222321F09C
:105410002091E80025FF28C01092410326E030913A
:10542000E80035FF14C08093F1008091E80085FD0D
:1054300027C08091E80080FFFCCF8091E8008E7744
:105440008093E8009F709093E90080E00895309188
:105450007E05343049F43091EB0035FD05C0215014
:1054600041F481E0809341039F709093E9008FEFB6
:105470000895EFE9FFE03197F1F700C00000CFCFCA
:105480008FB7F89421E0209346038FBFDBCF84B71A
:10549000877F84BF0FB6F894A895809160008861DB
:1054A00080936000109260000FBE80E890E00FB61D
:1054B000F89480936100909361000FBE0C941514D2
:1054C0000E948E2C0E94EB2CE2EEF0E08081846042
:1054D000808378940E94762F0E9427148CE591E0B7
:1054E0000E94EE2586EB99E00C94DA0580917E050A
:1054F000853051F482EB99E00E94DA0580917E05B7
:10550000853021F00E9481270C945E140E943B2775
:1055100080917C05882391F30E946A27882371F388
:105520000E94F02A0E94600CE9CF0C94972AFC019B
:10553000CB01DA012F2F332723303105D1F070F45E
:105540002130310509F447C02230310569F48BE57B
:1055500090E029E03AE02D933C9308952132310503
:10556000E9F02232310539F190E080E030E020E0CE
:10557000F2CFCF019927E13059F08230910559F0EF
:10558000E5E0FAE0892B81F7849190E09F01E3CF79
:10559000E9EEF9E0F9CFEBEDF9E0F6CF6330710514
:1055A00018F7880F991FFC01E95DFD4F20813181BB
:1055B00089E090E0D0CF63307105B0F6FB01EE0FCB
:1055C000FF1FEF5DFD4F20813181825E9D4FFC0109
:1055D000808190E0C0CF82E190E024E63AE0BBCF4A
:1055E00080E189BD82E189BD09B400FEFDCF8091D3
:1055F000D8008F7D8093D8008091E00082608093F6
:10560000E0008091E00081FDFCCF0895AF92BF9251
:10561000CF92DF92FF920F931F93CF93DF936C0192
:10562000EB018A010E945D2CF82E811123C0011527
:10563000110539F0F80180819181C81BD90BC80E82
:10564000D91EB12CA12C2097A9F08091E80085FDEE
:1056500022C08091E8008E778093E8000115110543
:10566000A1F0F801808191818A0D9B1D9183808337
:1056700085E0F82E8F2DDF91CF911F910F91FF9034
:10568000DF90CF90BF90AF9008950E945D2C88234B
:10569000D1F2F82EEFCFF60181916F018093F100E6
:1056A0002197FFEFAF1ABF0ACECFFC01CB012091AB
:1056B0008505309186052617370790F0009729F465
:1056C0002091E8002E772093E80040E0009751F405
:1056D000411108C08091E80082FF31C080E0089548
:1056E000C901F3CF20917E052223A9F12530A9F12C
:1056F0002091E80023FD2DC02091E80022FDEACF93
:105700002091E80020FFE2CF3091F3002091F200D9
:10571000009719F02830310558F041E02830310564
:1057200009F040E02091E8002E772093E800CECFEA
:1057300041914093F10001972F5F3F4FE9CF809156
:105740007E05882341F0853041F08091E80083FF99
:10575000C1CF81E0089582E0089583E00895FC01BF
:10576000CB0120918505309186052617370790F0EB
:10577000009729F42091E8002E772093E80040E07C
:10578000009751F4411108C08091E80082FF32C0B7
:1057900080E00895C901F3CF20917E052223B1F165
:1057A0002530B1F12091E80023FD2EC02091E800C2
:1057B00022FDEACF2091E80020FFE2CF3091F300F4
:1057C0002091F200009719F02830310558F041E09F
:1057D0002830310509F040E02091E8002E77209331
:1057E000E800CECF44914093F100319601972F5FAE
:1057F0003F4FE8CF80917E05882341F0853041F00E
:105800008091E80083FFC0CF81E0089582E0089591
:1058100083E00895982F973028F08F708093E900E7
:1058200081E008959093E900242F762F50E0981797
:1058300031F07091EC002091ED005091F00021FDCD
:1058400002C09F5FE8CF3091EB003E7F3093EB00CA
:105850003091ED003D7F3093ED003091EB003160F1
:105860003093EB007093EC002093ED005093F00028
:105870002091EE0027FDE5CF80E0089580917F051F
:1058800087FF13C08091E80082FF06C08091E80086
:105890008B778093E80004C080917E058111F2CF60
:1058A000089580917E058823D9F38091E80080FFD8
:1058B000F8CF8091E8008E77ECCF2091E400309112
:1058C000E50095E6A9012091EC00822F817020FF70
:1058D00006C08091E80080FF06C080E00895209116
:1058E000E80022FD1AC080917E05882389F085306A
:1058F00089F08091EB0085FD0FC02091E40030918C
:10590000E50042175307F9F29150E1F684E008955B
:1059100082E0089583E0089581E008950E94FC2CC0
:105920000E94042DE0EEF0E0808181608083E8ED4C
:10593000F0E080818F77808319BCA7EDB0E08C9177
:105940008E7F8C9380818F7E808310927D05089559
:105950000F931F93CF93DF930E94FC2C0E94042D82
:10596000C8EDD0E088818F778883888180688883BC
:1059700088818F7D888319BC10927E0510927A05EC
:1059800010927C0510927B0500EE10E0F8018081FA
:105990008B7F808388818160888342E060E080E043
:1059A0000E940A2CE1EEF0E080818E7F8083E2EE9F
:1059B000F0E0808181608083808188608083F8014D
:1059C00080818E7F8083888180618883DF91CF9101
:1059D0001F910F910895E8EDF0E080818F7E808324
:1059E000E7EDF0E080818160808384E082BF81E028
:1059F00080937D050C94A82CE8EDF0E080818E7FEB
:105A000080831092E20008951092DA001092E10073
:105A100008951F920F920FB60F9211242F933F9368
:105A20004F935F936F937F938F939F93AF93BF93A6
:105A3000EF93FF938091E10082FF0BC08091E20021
:105A400082FF07C08091E1008B7F8093E1000E947C
:105A5000E1288091DA0080FF19C08091D80080FF92
:105A600015C08091DA008E7F8093DA008091D90092
:105A700080FF94C080E189BD82E189BD09B400FE48
:105A8000FDCF81E080937E050E94BC288091E100DB
:105A900080FF19C08091E20080FF15C08091E20074
:105AA0008E7F8093E2008091E20080618093E2002B
:105AB0008091D80080628093D80019BC85E08093E3
:105AC0007E050E94D9288091E10084FF29C0809141
:105AD000E20084FF25C080E189BD82E189BD09B46F
